S02B00004E6663646C69624578315F4261736963446973634C6F6F705F7333326B3131385F56315F312E737211
S214000000005800203D0500009905000099050000F5
S21400001000000000000000000000000000000000DB
S214000020000000000000000000000000990500002D
S21400003000000000000000009905000015470100C0
S214000040B10D0100BD0D0100C90D0100D50D010067
S214000050E10D0100990500009905000099050000D2
S2140000609905000099050000DD240100E92401003F
S2140000709905000099050000990500009905000003
S21400008099050000990500009905000099050000F3
S21400009099050000990500009905000099050000E3
S2140000A09905000099050000E12A0100ED2A0100EB
S2140000B099050000990500009905000099050000C3
S214000400FFFFFFFFFFFFFFFFFFFFFFFFFE7FFFFF78
S214000410054B0648033310B51B1A062B03D9044BAD
S214000420002B00D0984710BD440A0020440A002044
S214000430000000000648074910B5091A8910CB0FBE
S2140004405918491003D0044B002B00D0984710BD14
S214000450440A0020440A00200000000010B5074CA3
S2140004602378002B09D1FFF7D3FF054B002B02D0D2
S214000470044800E000BF0123237010BDC0300020F8
S214000480000000006C6A0100094B10B5002B03D079
S2140004900849094800E000BF08480368002B02D15D
S2140004A0FFF7C8FF10BD064B002BF9D09847F7E7BB
S2140004B000000000C43000206C6A0100400A0020E2
S2140004C000000000164B002B00D1144B9D46402226
S2140004D092029A1A924600218B460F461348144AF7
S2140004E0121A14F0B4FD0F4B002B00D098470E4B99
S2140004F0002B00D098470020002104000D000D4876
S214000500002802D00C4814F02FFE14F073FD2000D3
S214000510290014F06BFB14F05DFDC04600000800D7
S214000520005800200000000000000000C03000203E
S214000530C4410020695101004151010072B61049C2
S2140005400F4A0F4B0E4C0E4D0D4E0D4FB846B9468A
S214000550BA46BB46BC460B490B4A521A013A05DD61
S2140005600020042308601944043AFBDA074885464D
S214000570074880470748804762B6FFF7A3FFFEE7B5
S2140005800000000000000020005800200058002056
S214000590B5EF0000D9EF0000FEE7C0460022430892
S2140005A08B4274D303098B425FD3030A8B4244D336
S2140005B0030B8B4228D3030C8B420DD3FF22090278
S2140005C012BA030C8B4202D31212090265D0030B37
S2140005D08B4219D300E0090AC30B8B4201D3CB032D
S2140005E0C01A5241830B8B4201D38B03C01A52416F
S2140005F0430B8B4201D34B03C01A5241030B8B4271
S21400060001D30B03C01A5241C30A8B4201D3CB025B
S214000610C01A5241830A8B4201D38B02C01A524140
S214000620430A8B4201D34B02C01A5241030A8B4243
S21400063001D30B02C01A5241CDD2C3098B4201D35B
S214000640CB01C01A524183098B4201D38B01C01AD9
S214000650524143098B4201D34B01C01A5241030950
S2140006608B4201D30B01C01A5241C3088B4201D3FF
S214000670CB00C01A524183088B4201D38B00C01AAC
S214000680524143088B4201D34B00C01A5241411AD3
S21400069000D20146524110467047FFE701B50020E0
S2140006A000F0F0F802BDC0460029F7D076E77047A4
S2140006B003460B437FD4002243088B4274D30309BE
S2140006C08B425FD3030A8B4244D3030B8B4228D35F
S2140006D0030C8B420DD3FF22090212BA030C8B4285
S2140006E002D31212090265D0030B8B4219D300E025
S2140006F0090AC30B8B4201D3CB03C01A5241830BAA
S2140007008B4201D38B03C01A5241430B8B4201D359
S2140007104B03C01A5241030B8B4201D30B03C01A82
S2140007205241C30A8B4201D3CB02C01A5241830AFC
S2140007308B4201D38B02C01A5241430A8B4201D32B
S2140007404B02C01A5241030A8B4201D30B02C01A55
S2140007505241CDD2C3098B4201D3CB01C01A5241BC
S21400076083098B4201D38B01C01A524143098B4245
S21400077001D34B01C01A524103098B4201D30B012E
S214000780C01A5241C3088B4201D3CB00C01A524153
S21400079083088B4201D38B00C01A524143088B4218
S2140007A001D34B00C01A5241411A00D201465241B1
S2140007B0104670475DE0CA0F00D04942031000D3D0
S2140007C04042534000229C4603098B422DD3030A25
S2140007D08B4212D3FC22890112BA030A8B420CD335
S2140007E0890192118B4208D3890192118B4204D35E
S2140007F089013AD0921100E08909C3098B4201D3DE
S214000800CB01C01A524183098B4201D38B01C01A17
S214000810524143098B4201D34B01C01A524103098E
S2140008208B4201D30B01C01A5241C3088B4201D33D
S214000830CB00C01A524183088B4201D38B00C01AEA
S2140008405241D9D243088B4201D34B00C01A5241C1
S214000850411A00D20146634652415B10104601D34E
S2140008604042002B00D54942704763465B1000D3D8
S214000870404201B5002000F005F802BD0029F8D07E
S21400088016E770477047C0468446101C62468C4682
S214000890191C634600E0C0461FB501F033FF002870
S2140008A001D40021C8421FBD10B501F08DFE4042A4
S2140008B0013010BD10B501F025FF002801DB002037
S2140008C010BD012010BDC04610B501F01BFF00286A
S2140008D001DD002010BD012010BDC04610B501F09E
S2140008E0ADFE002801DC002010BD012010BDC04672
S2140008F010B501F0A3FE002801DA002010BD01208B
S21400090010BDC0468446081C6146FFE71FB500F0D0
S214000910B3FC002801D40021C8421FBD10B500F06A
S21400092045FC4042013010BD10B500F0A5FC002883
S21400093001DB002010BD012010BDC04610B500F040
S2140009409BFC002801DD002010BD012010BDC04624
S21400095010B500F051FC002801DC002010BD01207D
S21400096010BDC04610B500F047FC002801DA002094
S21400097010BD012010BDC046002B11D1002A0FD19A
S214000980002900D1002802D00021C943081C07B462
S214000990024802A14018029003BDC046E9FEFFFFD0
S2140009A003B4684601B5029800F066F8019B9E46BF
S2140009B002B00CBC7047C046F0B5CE46474615049C
S2140009C02D0C2E0080B50704140C3F0C9946030C22
S2140009D07E435D43674363437F19340CE4199C46AA
S2140009E0A54203D980235B029846C4444B46514334
S2140009F043433604360C250C24046544A4195918C0
S214000A00491920000CBC90469946F0BD9E2110B5B1
S214000A10C905041CFFF7A6FF002803D1201C00F020
S214000A2029FF10BD9E21201CC90500F087FD00F09F
S214000A3021FF80231B069C466044F2E770B5002227
S214000A400C4B04000D00FFF753FF002804D12000D4
S214000A50290002F04FFC70BD064B00222000290042
S214000A6002F032F902F046FC80231B069C466044E6
S214000A70F1E7C0460000E041F0B557464E46454611
S214000A80DE46E0B5040083B00D00924699468B42E0
S214000A902FD82CD04946504602F0F8FC2900060014
S214000AA0200002F0F3FC331A9846203B9B4600D504
S214000AB074E053465A4693401F00534642469340BE
S214000AC01E00AF4229D826D05B46A41BBD41002B92
S214000AD000DA79E0002200230092019301235A46AF
S214000AE093400193012342469340009319E08242CB
S214000AF0D0D900220023009201930C9B002B01D03A
S214000B001C605D600098019903B03CBC9046994615
S214000B10A246AB46F0BDA342D6D9002200230092DF
S214000B2001934346002BE8D0FB0772081A4346465B
S214000B307B080EE0AB4201D1A2420CD8A41A9D411C
S214000B40012024196D410021013E24184D41002E3C
S214000B5006D0AB42EED9013E24196D41002EF8D1E5
S214000B605B460098019900196941002B22DB2B0097
S214000B705A46D3402A004446E2401C005B46150015
S214000B80002B2CDB26009E40330026004746BE4046
S214000B903200801A994100900191AEE74246202328
S214000BA09B1A5246DA40414613004A468A401700CE
S214000BB01F4382E7424620239B1A2A0046469A4055
S214000BC02300F3401343D5E74246202300219B1A17
S214000BD00022009101920122DA40019282E7424609
S214000BE0202326009B1ADE402F00B4469740664618
S214000BF03B003343C9E7C046F0B5C6464E0247023F
S214000C00760A7B0A4400C50FF7004800984600B5F0
S214000C10240E2A00DB00000EC90FBC468D4267D0AA
S214000C20221A002A00DCA5E000283AD1002F00D1C5
S214000C3093E0511E002900D0BCE00124DB1B5A01C2
S214000C4046D59B019E09300002F002FC053886401E
S214000C50844200DD9DE0041B320020200134E24087
S214000C60041BA64033005E1EB341002413435A07FC
S214000C7004D00F221A40042A00D004335A0129D582
S214000C800134FF2C00D181E02A009B015B0AE4B20C
S214000C905B02E405580AD2072043104304BC904682
S214000CA0F0BDFF2CE3D080213800C90408438446F9
S214000CB01B2A00DD82E020206146D140821A604671
S214000CC090400200501E82410A439B1A5A01B8D433
S214000CD05A07CED1DE082A00FF2C3AD1002E00D1CA
S214000CE0AEE08023DB0333435B025B0AFF24CFE7DF
S214000CF0211A002952DD002831D0FF2CB7D08020E1
S214000D003E00C0040643B4461B2900DDAAE02026A8
S214000D106046C840711A66468E4031004E1EB1418C
S214000D2001435B185901D3D50134FF2C00D187E06D
S214000D30012278491A405B080B40134397E7002CC2
S214000D4000D0A7E0002B00D0B6E03B1E62D1002604
S214000D50002273025B0AE4B29AE7140087E7002FCA
S214000D604DD0481E002857D1634401245A01AFD500
S214000D700224DDE7002A24D1621CD2B2012ADEDD7D
S214000D80DE1B720135D5FE1A0D005CE72A00002333
S214000D907EE73300604A241A134068E7002963D1CF
S214000DA0611CC8B201284EDDFF2949D063445B08A8
S214000DB00C005CE7FF2A41D00A0079E701229B1A63
S214000DC084E7002C1DD0FF2822D08024E404524261
S214000DD023431B2A00DD8AE01C002025D440AA1AE3
S214000DE093405A1E9341234362460400D31A0D00D3
S214000DF025E7002E00D026E700220024A9E70C00F5
S214000E0035E7002B4DD0D243002AEDD0FF28E0D1A5
S214000E106346FF240D002AE7FF290FD0010073E781
S214000E20002B61D0FF24002F00D120E7802241460E
S214000E30D203114202D0164200D13B00FF2416E72F
S214000E40FF24002324E7002CEAD1002B58D0002FE3
S214000E5000D10CE763445A0100D439E72E4A0C004F
S214000E60134004E701215CE7002C1ED1002B40D084
S214000E70C94300290BD0FF2836D01B2947DC1C00AD
S214000E802026CC40711A8B40591E8B412343634465
S214000E90040047E7002B18D13B1E2DD00D00FF2481
S214000EA0E5E63B0004000D00E1E6FF281CD08024A8
S214000EB0E40449422343E0E7002F00D1D7E6DE1BD7
S214000EC072011FD5FB1A0D00D1E6FF24002F00D1BA
S214000ED0CDE680224046D2031042AFD01642ADD1B6
S214000EE03B000D00FF24C2E66346FF24BFE6012355
S214000EF07AE73B000400BAE680260022F603F0E616
S214000F003B00B4E6331E00D0E2E6002221E70123D0
S214000F10BDE7C046FFFFFF7DFFFFFFFBF0B557466E
S214000F204E46DE464546E0B544024300C60F83B053
S214000F300F1C640A1B0EB24653D0FF2B27D080220C
S214000F40E400D20414437F22524290469844002381
S214000F5099469B467D027800FB0F6D0A000E0093B3
S214000F6024D0FF2846D080230021ED00DB041D435B
S214000F707F384746381A4F460F43BF00B9463300FE
S214000F80009A874F53404A46BA5801939746002C1A
S214000F904ED108239946F7339846FD3B9B467D0283
S214000FA07800FB0F6D0A000E0093DAD1002D26D1D3
S214000FB0002001213300009A7A4F53404246101A0F
S214000FC04A460A439200BA581D009746009B2C00DA
S214000FD09A468B465B46022B31D15346FF210024AE
S214000FE038E0002C17D10423994600239846013395
S214000FF09B46AFE7FF20002D0BD10221DAE7280041
S21400100002F026FA431F9D4076235B42181A002101
S214001010AFE70321ADE7200002F01AFA431F9C4019
S21400102076235B421B1A9846002399469B4691E717
S2140010300C239946F3339846FC3B9B468AE7032BE2
S21400104000D1A5E05546012B00D081E00123002108
S21400105000242B406402C905600ADB0708431843D6
S21400106003B03CBC90469946A246AB46F0BD8024F1
S2140010700023E403FF21EDE7FF210024EAE7012334
S214001080591A1B2966DD019A134000210024E1E766
S2140010908023DB031C4238D01D4251D01C4364021F
S2140010A0640A3300FF21D5E763016C01A3423BD2FB
S2140010B01B260021013801251F0049005B00002F78
S2140010C001DB9C4201D81B1B2943013E002EF3D1B5
S2140010D01C00631E9C410C4301007F310029CEDDBD
S2140010E0630704D00F232340042B00D004342301CD
S2140010F003D501002C4B80311C40FE290DDD012359
S214001100019AFF2113400024A4E78023DB031C433D
S2140011106402640A3300FF219CE70123019AA401BC
S214001120640AC9B2134095E71B1B1A260121C2E7C1
S214001130009B8B469A4600244CE76302E5D50025C3
S2140011408024E4032C436402640A009BFF2181E7A9
S2140011500195C1E723002020CB40411A8C40611E38
S2140011608C411C43630704D00F232340042B00D07C
S2140011700434630105D50123019A0121134000249C
S21400118068E70123019AA401640A1340002161E77D
S2140011908023DB031C436402640A5346FF2159E79D
S2140011A04052010080520100FFFFFFF770B5420079
S2140011B045024E024C00C30F6D0A120E760A240E2C
S2140011C0C90F0120FF2A06D0FF2C03D0A24201D16E
S2140011D0B54206D070BD002DFCD1FF2CFAD1002EF2
S2140011E0F8D18B4206D00120002AF3D12800451EF4
S2140011F0A841EFE70020EDE7F0B5420045024C02BB
S214001200C30F48006D0A120E640A000EC90FFF2AAB
S2140012101ED0FF2821D0002A0AD16E426E41F6B2B7
S21400122000280FD1002C0DD10020002D09D005E09C
S214001230002801D1002C01D08B4211D00121584248
S2140012400843F0BD002EF7D0012001390843F8E727
S214001250002DDED002204042F3E7002CDBD0F9E779
S2140012608242EBDC04DBA542E8D80020A542E8D2A7
S2140012700121581E0843E4E7F0B542004D024C0039
S2140012804602760A120EC30F6D0A240EC90FFF2AF5
S21400129016D0FF2C18D0002A0AD170427041C0B276
S2140012A0002C15D0002805D0012001390843F0BDD8
S2140012B0002C13D0994214D001205B421843F6E765
S2140012C00220002EF3D1E4E70220002DEFD1E2E762
S2140012D0002DE7D10020002EE9D0EDE7002DE9D162
S2140012E0EAE7A24206DCDFDBAE4203D80020AE42CD
S2140012F0DAD3DCE7012049420843D8E7F8B5574679
S2140013004E464546DE46E0B54702460088467F0A1A
S214001310360EC40F002E47D0FF2E24D0FB008027A9
S214001320FF041F43002399469A467F3E43465D02CC
S2140013305800DB0F6D0A000E984643D0FF283BD0BE
S214001340EB0080250022ED041D437F383618731C01
S21400135041469B464B46614013430F2B64D8754865
S2140013609B00C3589F46002F42D108239946063B50
S214001370FF269A46DAE74146022A28D0032A00D1F9
S214001380CEE0012A00D0ACE0114000200022CCB212
S2140013904002D205400AE407104320433CBC904676
S2140013A09946A246AB46F8BD002F15D104239946B0
S2140013B0033B00269A46B9E7FF200222002DC5D03F
S2140013C00322C3E7002D19D100200122BEE7012425
S2140013D0FF220C400020DBE7380002F039F87626C2
S2140013E0431F9F4000237642361A99469A469DE749
S2140013F00C239946093BFF269A4697E7280002F0F9
S21400140027F8431F9D4076235B42181A00229DE76B
S21400141080200024C003FF22BAE73D005246ABE717
S2140014203D0021005246A7E73B0C9C462A04120CBE
S2140014302B0C1400604665463F043F0C7C43424339
S2140014405D437B43270C9B18FF18BA4203D98023C1
S2140014505B029C46654424043A04240C121993014A
S2140014605C1EA3413F0C920E7D191A43AD01154335
S2140014702B0104D501235E466A081D401543320041
S2140014807F32002A25DD6B0704D00F232B40042B68
S21400149000D004352B0103D53200274B80321D4087
S2140014A0FE2A94DC0124A801400AD2B20C406FE761
S2140014B08020C003074207D0054205D128434002DA
S2140014C0400A4446FF2263E738434002400AFF22B0
S2140014D05EE70124A31A1B2B05DD0C40002200202A
S2140014E056E75E46CBE72A002020DA40C31A9D4026
S2140014F02B005D1EAB4113435A0704D00F221A403F
S214001500042A00D004335A0104D5012401220C40D9
S21400151000203DE701249B01580A0C40002237E7D3
S21400152080200124C00328434002400A0C40FF22CA
S2140015302EE7C046C0520100FFFFFFF7F0B54F464A
S214001540D64646464400C0B5C20F47024802400A87
S214001550844666467B0A4800C90F9A46240E150044
S214001560DB00000E8946F600FF2800D18FE001213F
S2140015704F464F403900914266D0221A002A00DCBE
S2140015809DE000283DD1002E00D18BE0511E0029A1
S21400159000D0B5E001249B1B5A0144D59B019F094E
S2140015A0380001F055FF05388740844200DD96E09C
S2140015B0041B3A0020200134E240041BA7403B00F5
S2140015C05F1EBB41002413435A0704D00F221A4063
S2140015D0042A00D004335A0127D50134FF2C00D149
S2140015E079E001229B015B0AE4B22A405B02E40533
S2140015F0580AD207204310431CBC90469946A24680
S214001600F0BDFF2CE0D08021C9040E431B2A7BDCF2
S21400161031002020D140821A9640721E96410E4319
S2140016209B1B5A01BAD45A07D0D10122DF082A40A0
S214001630FF2C33D1002F00D1A8E08023DB033B43EF
S2140016405B025B0AFF24D1E7211A00294CDD002843
S2140016502AD0FF2CB8D08020C00406431B2900DD0A
S214001660AFE030002027C840791A8E40711E8E41A8
S21400167006439B195901D6D50134FF2C00D185E0CD
S21400168001227A491A405B080B4013439CE7002E60
S21400169000D070E76BE73B1EC5D100227B025B0AD9
S2140016A0E4B2A3E714008FE7002E4DD0481E0028B2
S2140016B057D19B1901245A01B5D50224E0E7002A28
S2140016C025D1621CD2B2012A72DD9F1B7A0135D564
S2140016D0F71A0D0064E7012200232A4086E73B0044
S2140016E0634A241A13406FE700296CD1611CC8B204
S2140016F001284EDDFF2949D09B195B080C0063E7E3
S214001700FF2A41D00A0081E701269B1B89E7002CAF
S2140017101CD0FF2821D08024E404524223431B2AF5
S21400172000DD96E01C002025D440AA1A93405A1EDD
S21400173093412343F31A04000D002DE7002F00D039
S2140017402EE700220024A9E70C003DE7002B58D026
S214001750D243002AEED0FF28E1D13300FF240D004B
S21400176032E7FF2910D0010078E7002B6ED0FF2467
S214001770002E00D128E780225146D203114203D022
S2140017806146114200D13300FF241DE7FF240023E9
S2140017902CE7002CE9D1002B63D0002E00D113E7F4
S2140017A09B195A0100D43EE7314A0C0013400BE760
S2140017B0002C1ED1002B2FD1002E4FD033000D0051
S2140017C002E7012655E7002C1FD1002B43D0C94362
S2140017D000290BD0FF2839D01B2944DC1C00202709
S2140017E0CC40791A8B40591E8B4123439B19040029
S2140017F040E7002B1AD1002E24D180270022FF03B9
S2140018001BE7330004000D00DEE6FF281ED0802410
S214001810E40449422343DFE7002E00D1D4E69F1BB1
S2140018207A0100D437E7F31A0D00CDE6FF24002E28
S21400183000D1C9E680225046D2031042A4D06046AA
S2140018401042A1D133000D00FF24BDE63300FF2473
S214001850BAE601236EE733000400B5E6002700224F
S2140018601CE73300B0E60123C0E7C046FFFFFF7D5C
S214001870FFFFFFFB41024300C20F490A1B0E002078
S2140018807E2B0DDD9D2B0CDC802000040143952B68
S2140018900ADC9620C31AD9404842002A00D1080024
S2140018A07047034BD018FBE7963B9940F4E7C046D9
S2140018B0FFFFFF7F10B5041E27D001F0C9FD9E2351
S2140018C01B1A962B0ADC9622D21A94406402640AEB
S2140018D0DBB26402DB05600A184310BD992B17DCE7
S2140018E09922D21A002A27DD94402200134C144075
S2140018F0510704D00F210A40042A00D004346201A4
S21400190012D4A401640ADBB2E3E700230024E0E774
S214001910B9222100D21A91400A00511E8A4105219F
S214001920091ACC401443DBE7044B1C409F23A40158
S2140019301B1A640ADBB2CCE72200D7E7FFFFFFFBE7
S214001940F8B54546DE4657464E460C03E0B54E0013
S214001950C90F88460D00610A440F0C43C7001903DF
S2140019605800DB0F9B464B0A510F0B43760D400D7C
S2140019701900D200D84500D1AEE0351A002D00DCA3
S214001980F6E000280FD1134300D1DBE06B1E002BDE
S21400199000D037E1BA1A9742BF41641A7F42E41B6F
S2140019A00126170024E0C64B9E424DD080231B0420
S2140019B01943382D00DD07E11F2D00DD38E120201A
S2140019C0431B9A460B0050468340994613004846F0
S2140019D0EB401843030050468240501E8241E940C7
S2140019E01A43BA1A611A9742A441170064420C1BA4
S2140019F0230262D56402650A002D00D1DFE02800CC
S214001A0001F026FD0300083B1F2B00DDD2E020225C
S214001A103C00D21A9D40D4409F4025439E4200DDA4
S214001A20C4E09E1B731C1F2B00DDF1E02022380053
S214001A302900D21AD840914097402C000143781EC6
S214001A408741DC4000260F437B0709D00F233B402D
S214001A50042B05D03B1DBB42BF417F42E4191F004B
S214001A6023022CD5964B01369E4200D19AE045467D
S214001A70944BFF081C406007760564020743240B5E
S214001A80760D00212403230B0C0D8F4A24051C43DE
S214001A901440330523435B00ED075B082B433800F7
S214001AA019003CBC90469946A246AB46F8BD644633
S214001AB0044300D111E2040067467B07C6D14546C1
S214001AC06007FF080743E4087D4B9E4230D024039E
S214001AD07605240B760DD4E7331A9A46002B78DD6C
S214001AE0002831D076488642AED0802000040143DC
S214001AF05346382B00DCE9E00A43511E8A41002198
S214001B00D219BA42BF4109197C4217000C192302A8
S214001B10D3D56B4B01369E4200D13AE10120694B8A
S214001B201C407B0807401F43E007074364088BE719
S214001B3023003B4300D1CBE180221203144324034D
S214001B40240B9EE72E007FE70800104300D1B4E088
S214001B50581E002800D0DEE0BA18BA429B4164182E
S214001B605B42E418170001262302A6D50226D5E715
S214001B70002D6ED1701C4005400D012800DCF9E0F8
S214001B80B81A844687428041E51A40422D1A280238
S214001B9000D489E0D71BBA4292411C1B5242A51AB8
S214001BA0D84629E74546002400276AE7454CF61A3A
S214001BB02C4049E73D002838854000272EE73800AE
S214001BC001F046FC20301DE70A43511E8A410021E1
S214001BD007E7002B00D0F3E0701C43055B0D012BDC
S214001BE000DCADE0364B984200D1D1E0BA18BA42DC
S214001BF0BF4164187F42E419E70752081743640898
S214001C00060021E72E48854200D193E01D00D0E66D
S214001C1029001F3EF140202B00D18DE04022D31A30
S214001C209D402F437D1EAF4100240F43002644E70E
S214001C302B000800203BD8400300202D00D17DE07B
S214001C404020451BA9400A43511E8A4100211A43E1
S214001C50C7E6002E50D01A4EB04257D080266B42B0
S214001C609946360434434B46382B00DDD6E01F2B0E
S214001C7000DD35E12026F51A2600AE40B2463E00CD
S214001C80DE40AC46350056462E436546AF407D1EC8
S214001C90AF41DC403743D71BBA4292410C1B52423D
S214001CA0A41A0600D846A3E6644667462C4300D02E
S214001CB0A2E600250026002706E71E00C4E6C0466A
S214001CC0FF070000FFFF7FFFFFFF0F801F2B63DC77
S214001CD02020C31A080098409C46834653461000AE
S214001CE0D84003005846184363469A40531E9A410C
S214001CF053460243D94003E726003E4306D0EB4353
S214001D009946002BC7D0944EB042ACD10C001700B9
S214001D100600D84698E6904B9A450BD08246E7E6F2
S214001D20002800D09EE01800104300D1E9E01C0017
S214001D301700D846884E87E6002572E7002182E71E
S214001D4023003B43002E00D0ABE0002B00D1E7E0A1
S214001D500B00134300D177E6BA18BA42BF416418A5
S214001D607F42E419230200D4F2E07C4B17001C40AB
S214001D70060069E620003843002ED1D100285BD14A
S214001D801C00144300D1A8E01C001700D8465BE6F0
S214001D9006000024002797E650460B002038C34074
S214001DA099465346202B00D195E0402350461B1AF7
S214001DB099400A43511E8A414B4600211A439FE62A
S214001DC0002E30D126003E4367D0DB439A46002BD8
S214001DD01CD0614EB04260D05346382B00DD96E0F2
S214001DE01F2B00DD9FE02026F31A26009E409C460F
S214001DF0B34653463E00DE4033005E461E4363460F
S214001E009F407B1E9F415346DC403743BF18974296
S214001E10924164185242A418060078E627437C1EB6
S214001E20A741002437E74C4EB04236D080265B42AE
S214001E3036049A463443CFE71800104300D103E631
S214001E40B81A84466745AD41E01A6D42401B05024C
S214001E5000D42CE6D71BBA4292411C1B5242A41A4D
S214001E60D846F1E51800104300D163E7F808670785
S214001E7007438020E4080003044208D0DD0805423A
S214001E8005D1D208590711430F002C00D8467B0F06
S214001E90E4001C43FF00304ED6E50C001700060099
S214001EA0D2E5002B38D00B00134300D142E7F808E8
S214001EB0670707438020E40800030442E7D0CB0806
S214001EC00342E4D1D208490711430F001C00DEE7A5
S214001ED000270024D5E500216BE700250027F3E561
S214001EE04E462500203EF5404B462E00202B2DD09A
S214001EF04025ED1AAC4027437C1EA74100243743FB
S214001F00C9E6802400252403134E0027DCE527437A
S214001F107C1EA741002479E70C0017000E4E93E5BF
S214001F200C00170090E556462300203EF3409946E5
S214001F305346202B0ED0402356469B1B9C402743DF
S214001F407C1EA7414B4600241F435FE70024D2E7D0
S214001F501700B2E50024F2E7FF070000FFFF7FFF4F
S214001F60F0B557464546DE464E46E0B54C000E03F5
S214001F7087B0834692461D008046360B640DCF0F11
S214001F80002C4FD06F4B9C4235D08023420F1B0451
S214001F90F600134333439946C30098466A4B00261F
S214001FA09C460023644403932B031B0B9B466B0049
S214001FB0ED0F50465B0D01955ED0624A934253D0BA
S214001FC05A46D1008022400F120402430A43934629
S214001FD05246D1005C4A944600226344380068406A
S214001FE084460290E41A16430F2E00D9B4E0574BED
S214001FF0B6009B599F460300334399466CD1002395
S2140020009846023308260393CEE7CB464146039A0A
S2140020100197022A65D1019B4A4C9C460023002268
S21400202098466BE00300334399464ED0002E00D10D
S214002030BCE1300001F00CFA03000B3B1C2B00DD6A
S214002040ACE11D22D31A5A460100DA4008398E4008
S2140020501300334399465B468B40984600233C4C1E
S2140020600026241A03939FE751465A46114329D166
S214002070002293460232B1E7594601431ED05B4622
S214002080002B00D19EE1584601F0E2F903000B3B1D
S2140020901C2B00DD8FE102005946083A91408B4622
S2140020A01D21CB1A5146D9400B0059460B435146C9
S2140020B09B469140264B00221B1A8FE700230122E5
S2140020C09B468BE75146032288E700239846013358
S2140020D004260024039367E70323B14603930C26E4
S2140020E062E7032A00D15CE2019B012A00D0E4E10A
S2140020F013409C4600230024002298460021120329
S214002100130B0A0D12051A432305124C40462240B3
S214002110134362465B00D2075B081343190007B0FF
S2140021203CBC90469946A246AB46F0BD00238022B2
S2140021309C4612039846034CE0E70023014C00221D
S2140021409846DBE7FF07000001FCFFFF0053010095
S2140021500DFCFFFFFFFF0F80D94500D939E100D104
S21400216034E1002346464D469A46013C5B460A0E3D
S2140021701B021A430B02170C039313041B0C3900A3
S214002180280090460193FEF709FA0200019B834659
S2140021905A43280039009146FEF786FA350C0904A2
S2140021A00D43A9450DD95B464544013BA84500D9DA
S2140021B03AE1A94500D837E102235B429C464544F4
S2140021C0E3444B46EB1A390018000493FEF7E6F991
S2140021D0019B05004343390004989946FEF764FACC
S2140021E0330409041B0C0B43994509D943446A1E62
S2140021F0984500D91AE1994500D817E1023D4344B5
S2140022004A469B1A5A4612042A4303999346100CD0
S2140022100A0C914609045A46090C4E460D00120453
S214002220120C4543059151437243704352190E0CEC
S214002230B218954203D980256D02AC466044150C51
S21400224009041204090C28185218834200D2CEE062
S21400225000D1C8E01D1A53469E1AB245924152421A
S214002260AB1A9A46984500D117E139001800FEF7D8
S21400227095F9019B05004343390050460493FEF749
S21400228013FA04980B04310C1943884209D94144C7
S2140022906B1E884500D907E1884200D804E1023D5C
S2140022A04144049BCB1A180039000493FEF776F9D4
S2140022B0019B82464343390004980193FEF7F4F9E4
S2140022C001980B043104090C194388420DD9534672
S2140022D04144013B884500D9E8E0884200D8E5E063
S2140022E002235B429C464144E244019B2D04CE1AE5
S2140022F051462943059D4F462A000B04080C1B0C2B
S2140023005A4345437B4378435B19170CFB189D42A1
S21400231003D980256D02AC4660441D0C12041B04D4
S214002320120C28189B18864200D293E000D18EE04B
S21400233001231943A04BE318002B00DC99E04A0761
S21400234000D09EE05A46D20106D55A469B4B1A400C
S21400235080239346DB00E318994A934268DD012305
S214002360029A984C1A400023944698460022C5E6E6
S21400237080224B46120313420AD05B46134206D114
S2140023801A431203120BAC4688468E4CB6E64B46F2
S2140023901A431203120BBC468A4CAFE603005A4699
S2140023A0283B9A4000239146984657E6584601F047
S2140023B04FF8203040E603005246283B9A40002162
S2140023C0934677E601F044F820305FE6884500D271
S2140023D0C7E64B46DE075D0843465B081E4343469A
S2140023E0DB079A46C2E60025924500D333E7039EF4
S2140023F05946B446E244B245AD416D424544EB18F9
S2140024000139984507D2984200D97FE000D1BCE058
S2140024101D1A8B461FE79845FAD1039D5545F2D9FC
S21400242043468B461D1A16E79B46CAE61500E7E6A6
S2140024305A46C90852070A435B0590465C0D5A4641
S2140024400123029952021940120B8C4656E6002BC5
S21400245000D16FE746444A1EB04529D9110086428E
S21400246000D065E7039A934200D061E762E7012156
S21400247049420120C21A382A21DD029B03409C46AD
S21400248038E60F220A40042A00D15BE70A00111D35
S214002490914292415242934454E7474BE318002B33
S2140024A0E5DD01225242F2E71D00FAE69A461CE7F5
S2140024B0B04239D86ED011003AE702933AE71F2AA5
S2140024C03CDC20239B1A0C005846994098404B1E33
S2140024D099415B46D440D340204308431A00430743
S2140024E009D00F230340042B05D00100081D8842A5
S2140024F09B415B42D21813023AD50123029A01246B
S2140025001A400023944698460022F7E502214942E5
S2140025108C46039DE344AC46E244AA45AD416D4279
S2140025204544ED182D1A96E68A1E03994D008D42F5
S214002530894149424144761803958FE71F2040425F
S214002540C31A5846D8400300202A28D040205D46AB
S214002550821A954029434A1E9141194307230022B7
S2140025600B4009D00F2300220B400800042BBDD1DE
S214002570010053075202120BC9081943012388466B
S2140025800299002419408C46B8E55245BED88B46C1
S214002590002560E6039D9D42C6D3110062E7002534
S2140025A0D8E780225B4612031A43019B1203120BE4
S2140025B09C468846034CA1E5FF030000FFFFFFFE94
S2140025C0FE070000FF070000F0B54F464646D64619
S2140025D05C00C0B51F03DB0F9A46174B0E034D0079
S2140025E084468046360B6D0DC90F91463F0B640D31
S2140025F001209D4208D09C4201D0A5420BD01CBCB5
S21400260090469946A246F0BD63463343F7D1AC42A6
S214002610F5D13A43F3D10120BE42F0D1C845EED100
S214002620514507D0002DEAD163461E433000461EB2
S214002630B041E4E70020E2E7FF070000F0B54546BA
S214002640DE4657464E46E0B51F033D0B2C4F0E03A5
S2140026504C00AB465D008446360B640DC90F9046B1
S2140026606D0DDB0FBC422AD0254FBD422DD0002C6D
S2140026700FD130430700814678427841C0B2002D22
S21400268017D15F463A4314D14B460020002B0AD0A0
S21400269006E0002D02D15846024301D0994218D0D8
S2140026A04842012108433CBC90469946A246AB46A8
S2140026B0F0BD0028F2D00120013B1843F3E73700B5
S2140026C00743D1D002204042EDE75F461743CED005
S2140026D0F8E7AC42E4DC03DA481E01210843E2E7EF
S2140026E05E45DDD806D000205E45DCD20123481EBC
S2140026F01843D8E7C445D3D80020C445F6D3D2E75C
S214002700FF070000F0B54E464546DE4657465C00DD
S214002710E0B51F03DB0F99462A4B0E034D00C90F89
S2140027208446360B6D0D8B4690463F0B640D9D42DE
S21400273020D0244B9C4222D0002D12D1304343425D
S2140027404341DBB2002C1FD0002B0CD04B4601209F
S214002750013B034318003CBC90469946A246AB4654
S214002760F0BD002C16D0CB4517D05B46594201234E
S2140027700B43EFE7310002230143EBD1D9E73900E1
S21400278002231143E6D1D7E73A43DDD100230028E0
S214002790E0D0EAE73A43E6D1E7E7A542E5DC05DB29
S2140027A0BE42E2D807D00023BE42D3D25946012308
S2140027B001390B43CEE7C445D7D80023C445F5D32B
S2140027C0C8E7C046FF070000F0B557464546DE4658
S2140027D04E46E0B50C0398464E00230B87B0070024
S2140027E092469B46760DCD0F002E6BD06D4B9E42CB
S2140027F035D080245B46420F2404DB0014431C4380
S214002800C3009946684BA3469C46002300276644AF
S214002810029343461C035A00DB0F5046240B520D0E
S214002820984600D176E05F4B9A426DD08023410FE8
S2140028301B040B435C49E4008C461C43C300002089
S21400284062444146B6186940721C0191944607439B
S2140028500F2F00D9B0E0554ABF00D25997465B46C5
S2140028600343994600D087E000239B46023308279F
S2140028700293CEE742460192022867D0032800D191
S2140028800EE2012800D062E10023002400229946CF
S21400289001990140CDB2002112030B0D120B1B054E
S2140028A01343434A240513401C436400ED076408A1
S2140028B02C434846210007B03CBC90469946A246A9
S2140028C0AB46F0BD034399464FD05B46002B00D184
S2140028D089E1584600F0BCFD03000B3B1C2B00DDD5
S2140028E07AE11D22D31A3A0001005C46DA40083924
S2140028F08C4013008F4023439B46B94600232D4E41
S2140029000027361A029384E7534623432AD100242D
S214002910022096E75346234320D0002C00D157E1EF
S214002920200000F095FD03000B3B1C2B00DD49E169
S2140029301D21CB1A51460200D9405346083A94400E
S21400294093400C431B4A121A00207AE70125019B8C
S214002950144C1D400023002299469CE700240022C8
S21400296001206EE7534603206BE700239B460133A6
S2140029700427002602934CE7032381460C27029384
S21400298047E780220023002512039946054C82E77C
S2140029905C464B4602986FE75C464B4601950298AC
S2140029A06AE7C046FF07000001FCFFFF4053010036
S2140029B0FFFF0F800DFCFFFF4A464946170C1A0C16
S2140029C01B041B0C08041900000C41431500884624
S2140029D019007D4379430395894629001500454330
S2140029E04D44029545462D0CAA46029D5544A945E0
S2140029F006D98A46802149028946CA44514603912F
S214002A00290C0491414609042D04090C8846290026
S214002A10250C24044144240C05912100414388469A
S214002A20210079438A466843414650448146080C53
S214002A3048446F43824503D98021490289464F4462
S214002A40010C894639004944029141460F04049915
S214002A503F0C88460004C0198044414604915946FC
S214002A600F0C0904090C884659438A46390051431D
S214002A70894641464A435146090C8B467B43D21849
S214002A805A44934203D980235B029B46D94451465D
S214002A900904090C8A46414661437C43130C120420
S214002AA04B445244A1468A463C0041466C434D4343
S214002AB051464D440F0C7D19A94503D98021490282
S214002AC088464444049F0399B84641448B46834550
S214002AD0804141428846514608042F04000C3F18A6
S214002AE05846029910188946904292414F44BA4679
S214002AF0524299469346C244D144CB448F42BF418A
S214002B00C245894199459B41934592417F4249423E
S214002B102D0C52420F435B4213437F19FF185B464E
S214002B203C19DB0D059A64021C43430213435D1EE9
S214002B30AB415A46C00D034352021343E20156D539
S214002B4001205A0803401343E207134364085A4817
S214002B50604400284DDD5A0709D00F221A40042A87
S214002B6005D01A1D9A429B415B42E4181300E2010D
S214002B7004D58020514AC00014406044504A904218
S214002B8000DDE3E60125DB0862071A436402019BC9
S214002B909146220B4405640D1D407CE68022594672
S214002BA01203114208D0144206D122431203120B1C
S214002BB045469946434C6EE65B461A431203120B93
S214002BC0404C68E603005446283B9C400023B9E688
S214002BD000F03EFC2030A6E60300283B9F40002382
S214002BE0BB4699468AE600F033FC203074E6B446CD
S214002BF0ADE701252A1A382A06DD019B00241D4070
S214002C0000230022994646E61F2A21DC20252000C4
S214002C10AD1A1E00AB40A840D6405D1EAB41304307
S214002C201843D440430709D00F230340042B05D094
S214002C300300181D98429B415B42E418230221D5ED
S214002C400125019B01241D4000230022994622E60F
S214002C501F2521006D42281AC1400800202A1DD0D9
S214002C605F35AA1A944023435C1EA34107250343FD
S214002C701D400022002D09D00F2200241A40180003
S214002C80042AD6D1030065076402220BDB082B4317
S214002C9001259946019B00241D40FCE50024E2E73F
S214002CA0802201251203224301991203120B0D40C4
S214002CB09946044CEFE5C046FF030000FFFFFFFE09
S214002CC0FE070000FF070000F0B54646D6464F4612
S214002CD00C03C0B5CD0F4E00610A440F0C43C10073
S214002CE05800400D84468A460F001903500F490AC3
S214002CF00143C648760DA846DB0FD200844500D1B6
S214002D00D8E001204340AB4200D1A6E06046351A29
S214002D10002D00DC05E1002810D10B00134300D184
S214002D20D7E06B1E002B00D04BE153469F1ABA45E6
S214002D308041641A4042241A01261EE0B34B9E428C
S214002D4048D080231B041943382D00DD19E11F2DC0
S214002D5000DD4CE120230F005B1B10009A409F40D3
S214002D60E840531E9A41E940074317435346DF1B8A
S214002D70611ABA45A44164420C1B230200D4C5E084
S214002D806402650A002D00D1F6E0280000F060FB22
S214002D900300083B1F2B00DDE9E020223C00D21A8E
S214002DA09D40D4409F4025439E4200DDDBE09E1BB5
S214002DB0731C1F2B00DD0AE120223800D21A2900DE
S214002DC097402C009140D8407A1E9741DC40002660
S214002DD001430F437B0709D00F233B40042B05D04C
S214002DE03B1DBB42BF417F42E4191F00230225D58D
S214002DF0864B01369E4200D1AFE0854B01251C4034
S214002E0043466207FF08640276051743240B760DD7
S214002E101D4000212403230B0C0D7E4A24051C4371
S214002E201440330523435B00ED075B082B43380053
S214002E3019001CBC90469946A246F0BD01254346A3
S214002E406207FF081743E4081D40704B9E4236D0C9
S214002E5024037605240B760DDBE76346F31A002B76
S214002E6000DC94E06046002835D068488642B1D041
S214002E7080273F043943382B00DCFDE00A43170067
S214002E8000217A1E9741574457458041091944420C
S214002E900C1923023AD55D4B01369E4200D14BE118
S214002EA001225B4B1C407B0817401F43E207174379
S214002EB064088FE70800104300D024E721E72300CA
S214002EC03B4300D1B9E18022120314432403240BB0
S214002ED09FE72E007EE70800104300D1CAE0581E88
S214002EE08446002800D0E7E05244524580416418EA
S214002EF04042241817000126230207D50226CFE7F2
S214002F0064462C4300D1B3E12C0067467B0700D013
S214002F1062E76307FF081F4301254346E4081D4098
S214002F2093E7002D78D1751C6D056D0D012D00DC25
S214002F30F2E05046801A8245BF41651A7F42ED1B7B
S214002F408446280200D48CE05046171ABA429241B2
S214002F500C1B5542651B984614E701254346002482
S214002F601D40002755E72A4CF61A2C4032E73D0054
S214002F7028388540002717E7380000F069FA203027
S214002F8006E70A43170000217A1E9741EEE6002B5B
S214002F9000D0E5E0731C9C465B055B0D012B00DC56
S214002FA09FE01A4B9C4500D1C5E0524452458041F3
S214002FB0641840422418E707520817436408664618
S214002FC008E71248854200D185E01D00BCE62900CE
S214002FD01F3EF140202B00D17FE04022D31A9D40B7
S214002FE02F437D1EAF4100240F4300268EE72B00A3
S214002FF00F00203BDF40202D71D040235D1BA940F1
S2140030000A43511E8A4100211743AFE6FF0700001E
S214003010FFFF7FFFFFFF0F80002E3ED0B34EB4456C
S21400302045D0802636046D423443382D00DDA8E0B6
S2140030301F2D00DD1FE1202627005046761BB740D7
S214003040E84007435046B040461EB041EC40384387
S214003050171ABA4292410C1B5242A41A6646984668
S2140030608BE6644667462C4300D08BE60025002698
S2140030700027EAE61E00ADE61F2B60DC2027F81AC4
S2140030800F00844687401000D840074360468240C1
S214003090501E8241D9401743F5E6260050460643A7
S2140030A005D0ED43002DD3D0904EB445BDD10C00D5
S2140030B01700664698468DE68C4883420BD06346DA
S2140030C0D9E6002D00D096E00800104300D1E2E0DB
S2140030D00C0017009846854E7CE6002580E7002108
S2140030E08EE7230050460343002E00D0A8E0002BB6
S2140030F000D1DEE00B00134300D16BE6524452458C
S21400310080416418404224181700230200D4FDE6CC
S214003110774B66461C405DE6250050460543002E6C
S214003120CFD1002D4FD10C00144300D1A0E00C00ED
S214003130170098464EE666460024002785E61F00E0
S2140031400800203FF8400700202B00D18EE04020EA
S214003150C31A99400A43511E8A410021174392E63A
S214003160002E14D126005046064362D0DB43002BC7
S2140031705CD187189742924164185242A41866465A
S21400318087E650462043441EA041002460E7574E81
S214003190B4454ED0802636045B423443382B00DDDF
S2140031A07FE01F2B00DD8BE0202627005046F61A16
S2140031B0B740D84007435046B040461EB04107438C
S2140031C0DC40BF18D6E70D00154300D102E6504696
S2140031D0801A8245BF41651A7F42ED1B844628024D
S2140031E000D48DE65046171ABA4292410C1B524242
S2140031F0A41A9846EEE50D00154300D16BE750463D
S2140032006707C00807438020E4080003044207D08D
S214003210CD08054204D12C009846D70849070F432D
S2140032207B0FE4001C43FF00304ED3E52F4EB44521
S214003230B4D10C0017006646CCE500270024E8E56C
S214003240002B39D00B00134300D144E7C0086707B2
S21400325007438020E40800030442E1D0CB08034281
S214003260DED1D70849070F431C00D9E7002171E7D4
S21400327000250027E9E52E002700203EF740202DF8
S2140032802FD04026751BAC4050462043441EA0411C
S21400329000243843DCE6802400252403134E002750
S2140032A0D3E5504620430700781E87410024BF1808
S2140032B060E70C0017008DE50C0017000B4E89E543
S2140032C01E002700203EF740202B0CD04026F31A85
S2140032D09C4050462043441EA04107430024BF188C
S2140032E048E70024D0E70024F3E7C046FF070000C5
S2140032F0FFFF7FFF30B5134D0A034B00120B5B0D2B
S214003300C90F0024AB4210DD0F4CA3420FDC802413
S2140033100E4D64032243ED1A1F2D0BDD0C48C31A15
S214003320DA405442002900D11400200030BD094B79
S214003330CC18FAE7084CE840A44663449A40024397
S214003340EFE7C046FE0300001D0400003304000043
S21400335013040000FFFFFF7FEDFBFFFF70B50028A2
S21400336030D0C317C4185C40C50F200000F070F8BA
S214003370174B184A1B1AD21A1F2A18DD164AD21AD9
S2140033809440002224035B05240B5B0D00211000F3
S21400339024030A0D240B12052243104C1B05224061
S2140033A013435B00ED075B082B43190070BD21003B
S2140033B091400A000B21081AC4405B052403240B25
S2140033C05B0DE3E70025002300240022DEE7C0466D
S2140033D01E0400003304000013040000FFFF0F80EB
S2140033E010B5041E28D000F033F8154B154A1B1AEA
S2140033F0D21A1F2A15DD144AD21A9440002224033A
S2140034005B05240B5B0D0021100024030A0D240B22
S214003410120522430D4C1B05224013435B0059083E
S21400342010BD210091400A000B21081AC4405B051C
S2140034302403240B5B0DE6E7002300240022E2E7CA
S2140034401E0400003304000013040000FFFF0F807A
S2140034501C2101231B04984201D3000C10391B0ABF
S214003460984201D3000A08391B09984201D3000983
S214003470043902A2105C40187047C04604030202DA
S21400348001010101000000000000000010B5002945
S21400349003D1FFF7DDFF203002E0081CFFF7D8FF5E
S2140034A010BDC04610B50A2900D010BD0EF070F948
S2140034B0FBE7C04610B5002903D1024A00200DF0F4
S2140034C087FF10BDDC30002000B5174A85B01749CD
S2140034D000200DF03DFD012100200DF0A3FC002290
S2140034E0134900200EF05AF90022124900200EF06F
S2140034F061F90C22002101A811F0A9FD0823002281
S21400350002930021002300200DF0A6FC002301AA50
S214003510002100200DF030FF074A002100200DF0AA
S21400352057FF05B000BDC046F0610100E03F002037
S214003530B5340000A5340000DC30002070B586B03D
S21400354004000D00160000210C2203A811F07FFDD8
S21400355005230095019303AA230001210020049669
S2140035600DF070FE43425841C0B206B070BDC04672
S2140035700122014B1A7070472831002010B5012136
S21400358000200FF091F900280DD0012100200FF047
S21400359091F9012100200FF07FF900200FF07CF850
S2140035A0014B1B68984710BD2C310020F0B50C006D
S2140035B0050083B02E49002016000FF01BF801A965
S2140035C03E200CF035FE2200002301980021FDF776
S2140035D0F3F92A000023FDF7CFF901225242D31750
S2140035E080185941002902D0224803B0F0BD63017B
S2140035F01B1B9801C01AC000001980012900FCF7A7
S214003600CDFF1D4F7860002E15D01C4B01210020E9
S2140036101E600FF04FF93A00002100200FF044F82A
S2140036200022174914200EF065FF002001210FF03C
S2140036302BF90020D9E7114B124A134C0121002028
S2140036401A6026700FF036F93A00002100200FF0BD
S2140036502BF80B49142000220EF04CFF012100200D
S2140036600FF012F92378002BFCD00020BDE7C046EF
S2140036702862010080F100007C0100202C3100202F
S2140036807D3500007135000028310020002070478D
S21400369003040D4A1B0C10B51343040D042909D06E
S2140036A0180010F029FEFF232340D8400300012015
S2140036B0184010BDFF231B0318408023DB0518436A
S2140036C010F00CFEEFE7C04600F00F4010B50A0001
S2140036D0044B01010004000C090E184310F002FE12
S2140036E010BDC04600F00F40FF231B030101184029
S2140036F0802310B5DB05090E184310F0E7FD10BD5A
S21400370010B5002801D0042901D0094810BD094B86
S214003710094A038001230949837000200FF09AFAB2
S21400372064236422642100200FF048FB0020EDE7AC
S21400373080F1000032F1FFFF2C620100F44000200F
S21400374030B51C000023C3B00193479B1100002B2B
S21400375016D01A00002023000FF0C4FB050001A9B4
S21400376000200FF0D5FC0228F9D0002D02D0094821
S21400377043B030BD489B002B09D01C800020F7E7E3
S214003780230002AA00200FF0ADFB0500E7E70020AB
S214003790EEE7C04681F100007047C04600B583B032
S2140037A0002807D06B46D91D08706423012200202C
S2140037B010F004F803B000BDF0B54546DE465746A7
S2140037C04E46E0B583B099460EAB1D78119B8846F1
S2140037D09B460223129900920B4007000D9C109AFC
S2140037E00193002B28D15B46002B00D092E0944238
S2140037F022D201260E401F2C1ED80C9B30201B19EF
S21400380002E00133202C03D001341870A242F8D80D
S214003810002E11D0A3450FD90C9B30201B195E46F5
S2140038201F2C04D987E00133202C00D1A7E00134F7
S2140038301870B442F7D1A346CB0611D54B0502D477
S214003840002C00D07CE00F9B102B00D1A0E0022BB8
S21400385000D1A7E01F2C11D830230C9A1355013441
S2140038601F2C0BD8002D00D079E04B0700D588E040
S2140038700B0733D520230C9A135501348B0730D011
S214003880009E2500A24632004446B0460C9B013DF1
S214003890561C585D21004B46B8473200002DF5D126
S2140038A04646A04654463619019B002B0ED0009D76
S2140038B0731B5B450AD23200444601364B46210054
S2140038C02020B8473200731B5B45F6D3300003B0A8
S2140038D03CBC90469946A246AB46F0BD009E8B0780
S2140038E015D15C456ED2009A0D9413005B441D1BE7
S2140038F00D9B44469846561C4B4621002020B84750
S2140039003200B542F7D14346A0461C000D93002C6A
S214003910B7D1C9E701260E4028D0002D2AD10C23A6
S2140039200B4227D1944200D374E71F2C00D864E7DB
S214003930A34500D880E7CB06A0D54B0500D582E787
S214003940A24202D05C4500D07DE7631E002B3BD030
S2140039500F9A023C102A1BD01C00130077E72D2379
S2140039600C9A135501348B07BBD089E7944200D2DA
S21400397041E761E701235B429C46E344D2E7B34656
S214003980D9E72B230C9A135501348B07A9D077E778
S2140039908B060FD41F2C00D970E778230C9A13558A
S2140039A0013457E71F2C00D968E70C9A603313558B
S2140039B001344FE71F2C00D960E758230C9A1355A3
S2140039C0013447E7009EA2E700243CE7F0B5DE4658
S2140039D057464E464546E0B59BB01D00249B8246A2
S2140039E09946259B0C00089248464A4619009B4675
S2140039F0FCF75AFF002800D114E20122D54B5242B0
S214003A0048465946FCF76AFF0122D34B524200282B
S214003A1000D0D3E148465946FCF74CFF002800D0BA
S214003A204EE20022002348465946FCF743FF002892
S214003A3000D095E24A46D84609928023289ADB00B1
S214003A401A40119201D10623269343465800C34BD1
S214003A50400D9C466044FFF781FCC14AC14BFEF70F
S214003A60B3FEC14AC14BFDF76BFF4346C04A1B037A
S214003A70099E1B0B1A430A900B91BE4B3000110097
S214003A800022FFF721F9BC4ABC4BFEF79DFE020060
S214003A900B000A980B99FDF753FFFFF72BFC0A90D3
S214003AA0FFF75CFCB64AB74B06000F00FEF78CFE2D
S214003AB00022B54BFDF744FFFFF71CFCB34AB44B9E
S214003AC0109039003000FEF77FFE060010980F00B9
S214003AD0FFF744FCAF4AB04BFEF776FE02000B0041
S214003AE030003900FFF7F0F802000B000C900D9143
S214003AF0FEF76AFE06000F000C980D9902000B00F8
S214003B00FDF71EFF00220E900F91A44B30003900E7
S214003B10FEF726FA0022A24BFDF712FF02000B006A
S214003B2030003900FEF71CFA00229E4BFDF708FF16
S214003B3002000B0030003900FEF712FA0C9A0D9BBB
S214003B400F0080210600C9050020FFF7BDF802001F
S214003B500B0030003900FDF7F3FE02000B000E9854
S214003B600F99FEF7FDF90022814BFDF7E9FE109B49
S214003B708D4A1E009446664433050022FEF724FE56
S214003B8006000F0002000B0009984146FCF792FE63
S214003B9000280AD00A9B3000013B0A933900002215
S214003BA07F4BFEF7DDF906000F00C6230A9A633244
S214003BB093429B415B4204330C93289B1B0521D503
S214003BC07A4A7B4B09984146FCF792FE002800D1C2
S214003BD01DE10022774B09984146FCF76BFE002852
S214003BE000D114E10A9A26980023824201DA831A49
S214003BF0013B26938023289ADB001A430023289251
S214003C000C930A9300230C9A1093279B1900914259
S214003C1001D98B1A10930223289A1A400E9206D0C6
S214003C200C9B5A425341109A5B421A4010920A9BD0
S214003C30002B00D0E2E00022002348465946FCF75D
S214003C4039FE002800D092E1099E4346320030003B
S214003C504146FCF729FE002800D18DE101223E4BAB
S214003C60524209984146FCF725FE002800D0D0E1D4
S214003C70289A514B210013400493109B099A0393F2
S214003C80269B504602934346009201932B00089AC7
S214003C9000F014FA06000C9B002B00D1A6E0289B2F
S214003CA065209B0600D52038731C32009B462100F9
S214003CB02B00D0470A9B0026DA179F18DB0F0993C4
S214003CC00C9B5740013B0A9312AB9946A04602E074
S214003CD02600202C0DD038000A21FCF7E5FC741CC9
S214003CE030314E44317038000A21FCF757FC071E6D
S214003CF0EED14346A0461C00052306930A9B5A466F
S214003D000593002304930A330393099B210002932F
S214003D10434601934B46504600932B00FFF74CFD5D
S214003D200E9B0600002B61D00899279A431A9A42E8
S214003D305CD91700A94602002500884654464B4623
S214003D4029002020A047434601363200F31A9F423E
S214003D50F5D84BE0FFFFEF7FFFFFEFFF01FCFFFF13
S214003D60FB799F501344D33FB3C8608B288AC63F65
S214003D700000F03F0000F83F61436F63A787D23F23
S214003D8071A379094F930A400000E03F1655B5BB72
S214003D90B16B0240EF39FAFE422EE63F00002C409F
S214003DA00000244000001840FF0300002D431CEBD9
S214003DB0E2361A3F80842E41FFF7FFFF48465946F9
S214003DC0FCF778FD002800D07AE0289B4A4604934A
S214003DD0279B21000393269B504602935B46009246
S214003DE001932B00089A00F069F9060030001BB01A
S214003DF03CBC90469946A246AB46F0BD0998414663
S214003E0032003B00FEF7ACF80990884613E7269B85
S214003E10002B00D1F6E6119B5A1E9341269AD31A20
S214003E202693EFE6089A289B91469B0717D1279B77
S214003E30032B00D836E1D61E279AA84694462500BE
S214003E404A4654466644571C434629002020A0474D
S214003E503A00B742F7D1A246B9462C004546954BE4
S214003E604A4698462B000327250054469A46434662
S214003E70013F561CD85D29005346A0473200002F4C
S214003E80F5D153464E46A2462C001D00289B03360D
S214003E909B07ABD50899279A731A9A42A6D917009A
S214003EA0A94632002500884654464B462900202065
S214003EB0A047434601363200F31A9F42F5D895E7ED
S214003EC0089A289B91469B0717D1279B042B00D85E
S214003ED0EAE0161F279AA846944625004A46544606
S214003EE06644571C434629002020A0473A00B742A4
S214003EF0F7D1A246B9462C0045466F4B4A4698462F
S214003F002B000427250054469A464346013F561C7C
S214003F10D85D29005346A0473200002FF5D15346FE
S214003F204E46A2462C001D00289B04369B0700D454
S214003F305CE70899279A731A9A4200D856E7170042
S214003F40A94632002500884654464B4629002020C4
S214003F50A047434601363200F31A9F42F5D845E79C
S214003F604B46099380231B065B44984665E58021F3
S214003F7009064144884667E6089A289B16009B0770
S214003F8014D1109B032B00D890E09C46A846250031
S214003F905446D71E6744561C434629002020A04797
S214003FA03200BE42F7D1A2462C004546414B3200B5
S214003FB0A946032755469846B24626004346013F83
S214003FC0541CD85D31004B46A8472200002FF5D17F
S214003FD0340056460E9BAA4603364D46002B00D1AB
S214003FE059E60899109F731A9F4200D853E6250099
S214003FF03200884654464B4629002020A0474346B8
S21400400001363200F31A9F42F5D8A2462C004D46E0
S21400401041E6089A289B16009B0713D1109B042B99
S21400402046D99C46A84625005446171F6744561C8A
S214004030434629002020A0473200BE42F7D1A246C0
S2140040402C0045461C4B3200A94604275546984688
S214004050B24626004346013F541CD85D31004B460D
S214004060A8472200002FF5D1340056460E9BAA46DC
S21400407004364D46002B00D10DE60899109F731AA2
S2140040809F4200D807E625003200884654464B4635
S21400409029002020A047434601363200F31A9F42EB
S2140040A0F5D8B2E79146DAE6914626E716007DE7B0
S2140040B01600C7E76055010064550100F0B5574685
S2140040C04E464546DE46E0B597B00792012206000A
S2140040D00F002098219998465242C64BFCF7FEFBEB
S2140040E0002858D0249B5B0700D558E1C24B9A465F
S2140040F003239B46079A249B91469B071CD1239B30
S2140041009B4500D352E25946239B8D1AA946454645
S21400411098462B0039002020541CB0474B461B19EC
S21400412022009845F5D8239A079B944663441C00C2
S2140041305B46E31AA84699463B004A4637005D466A
S21400414056469A46013D541C705D43465146B84754
S2140041502200002DF6D15C46249B3E004C44574678
S2140041609B0710D5079D239A631B9A420BD9130011
S214004170220099460134434639002020B0472200E9
S214004180631B9945F6D8200017B03CBC904699466C
S214004190A246AB46F0BD002220982199974BFCF72B
S2140041A09DFB002800D0FFE0209821990022944B28
S2140041B0FCF780FB002800D0F6E02098219900222A
S2140041C00023FCF777FB002800D0FFE000230D93C8
S2140041D08023249ADB001A40914600D063E1002336
S2140041E0884C0625089309940EAB9B462098219987
S2140041F0FFF780F804000C90FFF7B0F802000B0001
S21400420020982199FEF760FD089A099BFEF7DCFAD4
S2140042100A900B91FCF712FC8246FFF7E1F80200C9
S2140042200B000A980B99FEF74FFD0022764B0A907A
S2140042300B91FCF753FB002800D124E101239C4698
S214004240E2445046FFF7CCF8089A099BFCF750FB6F
S214004250002804D0230001330C9300239A46002D37
S21400426000D0D5E00C98FFF779F802000B002098F4
S2140042702199FEF729FD0022634B04000D00FCF790
S21400428019FB002800D1ACE000225F4B200029007B
S214004290FCF724FB002800D0A3E04B46202B00D1DF
S2140042A0E9E00C9D0A2128005C1CFCF7E7FA4A4668
S2140042B05B463031995428000A21FCF7F9F9A146EB
S2140042C00500D944002815D033004E469946202CC8
S2140042D000D13CE128000A21FCF7D0FA30313170D9
S2140042E028000A21FCF7E4F901340500013600280D
S2140042F0EDD14E460323249A1340012B00D1F6E05D
S21400430020229246202C08D00D9A002A00D10FE1D8
S214004310621C924659462D220A55079A1400002B15
S21400432011D123998A4500D342E113008C46634499
S2140043301D005346ED1A541C434639002020B04752
S2140043402200AC42F7D1534608AA5D1E94461723B6
S21400435063445D4422009B46A146541C287843468D
S2140043603900013DB0472200AB45F6D14C46249BB0
S21400437054449B0700D406E7079D239A631B934289
S21400438000D300E713002200994601344346390063
S2140043902020B0472200631B9945F6D8F3E61B4B56
S2140043A09A4604239B46A5E6249B079A0493239BE0
S2140043B039000393229B30000293209B219C00939C
S2140043C001944346FFF702FB0400DCE6209A219B9B
S2140043D000200021FEF778FC0123209021910D9308
S2140043E0F6E60C9A0123944613409C4463460C93CD
S2140043F053E7C046FFFFEF7F7455010065CDCD4102
S21400440065CDCDC180842E410000E03F6C55010093
S2140044104B46202B2FD00A2150465C1CFCF744F953
S2140044204A465B463031995450460A21FCF7B6F8A6
S214004430013D8146002800D18FE0A2463B00DA44C9
S2140044402F0025004C46B14656469A460FE02000FF
S2140044500A21FCF729F93031317020000A21FCF7D7
S2140044609DF8013F013504000136002871D0202D4B
S214004470EDD14E4657460323249A1340012B35D0E0
S2140044802022924649E700220A980B99524BFCF7E5
S21400449011FA002800D0E2E65346002B7CD1012317
S2140044A09C46E244DBE6229B092B00D886E00EAB56
S2140044B09B4630235A46137001229146229B2F3288
S2140044C05D1E4946093B584604E042540131013D11
S2140044D0202901D08B42F8D1404BEA009B185C683B
S2140044E01B6889468346089309947FE62024239B0D
S2140044F0002B49D00D9B002B03D1249A0C3313427A
S21400450002D0239B013B2393239BA3423CD9202C20
S21400451050D018005B46302221001B1901311A705A
S214004520814230D001332029F8D18A46079C0AE719
S214004530249A520734D4249AA246120700D4ECE6F2
S2140045400122594694461F32E2440A55E5E64E4695
S21400455091E72C004E463D005746202C8BD05B46FC
S21400456061191B193022002D07D001341A70202C37
S21400457000D180E701338C42F7D1631C99465A4636
S2140045802E23135589E6239C0123202C00D0BBE65E
S2140045901F339A46079CD6E6DB0700D45FE67EE725
S2140045A0621C924659462B220A55B6E69146C3E54A
S2140045B01400C8E62023079C9A46C4E6DA00074B98
S2140045C0229D9B185C681B680893099400239946F3
S2140045D00EAB9B460AE6C0460000E03F7855010059
S2140045E0F0B54546DE4657464E46E0B5A1B01D003E
S2140045F02A9B0A90099108920B93002900D1BFE3E9
S21400460000239B46C84B2C009A465D46207800281F
S2140046100CD025281DD06E1C2A00089B0A9D0999DF
S2140046200134A847207835000028F2D10899AB4617
S2140046302A008D4200D34A1E089B099900200A9C36
S214004640A047584621B03CBC90469946A246AB4689
S214004650F0BD1023621C9846083B9C461678043B27
S2140046609946023B9B463300203BDBB200270121E4
S2140046701400102B0CD850469B00C3589F460F437F
S2140046800132167814003300203BDBB2102BF2D92F
S2140046903300303B092B00D8CAE1002398462A2E67
S2140046A000D18BE200239B462E2E00D1D5E13300AD
S2140046B0683BDBB2122B18D89C4A9B00D3589F4607
S2140046C0634601321F43DCE7434601321F43D8E707
S2140046D04B4601321F43D4E75B4601321F43D0E707
S2140046E080235B0066781F4301343300253BDBB232
S2140046F0532B0FD88E4A9B00D3589F466678682E59
S21400470000D16DE280231F433300253BDBB201342A
S214004710532BEFD96F1C2A00089B0A9D099930007D
S214004720A84701343D0071E766786C2E00D151E24F
S21400473080235B001F430134D7E780239B00667805
S2140047401F430134D1E70B9B1A1D1B680E920B9377
S2140047505B46002B00D122E20B9A10781600002848
S21400476004D100F014FD013B002B03D00136327853
S214004770002AF8D10B9BF31A0C938023DB003B40F6
S214004780994603D00C9B5B4500D992E202233B403E
S2140047900F9300D1AAE100281ED04B46002B00D173
S2140047A0C7E15B465F190B9BA3465E1BB1462A001A
S2140047B0089C0A9E09E023000999551CB0474B4601
S2140047C0585D002800D1C5E12A009742F3D15C4627
S2140047D03D000F9B002B14D00C9A904511D94346F0
S2140047E05819089B861A98462A00A1460A9F099CD3
S2140047F00135434621002020B8472A00B542F7D1AC
S2140048004C460E9B01340B9300E70B9B1A1D1B684E
S2140048109046002B00D1C5E1212217430B970F21AC
S214004820002218AE8946A44602E00A0020290CD0D1
S21400483048461840C4B22700511C3737092801D80B
S21400484030342700B7541B09EFD164460B9B019107
S2140048500693082305935B460493102303930023D3
S2140048602A0002930096089B09990A98FEF7A4FF6F
S2140048704346050001340B93C8E6782E00D1B4E118
S214004880582E00D170E26F2E00D154E3622E00D174
S21400489067E210233A009A430C92692E01D000F08A
S2140048A0BEFC0A230E937B0500D5A6E180270C9B51
S2140048B0BF001F4000D041E31A0080235B001A406F
S2140048C0914601D000F0FAFB0C9B5B0601D500F088
S2140048D08DFC0C9B0B9A1B0601D400F04CFC0021AF
S2140048E0535E0432D90F14910B92DA179F18574073
S2140048F0002B0AD10C9910330A009A4313000A00C1
S2140049000C93520501D500F079FC0C9A61239206AF
S21400491000D54123DBB218AE0A3B16940F934C46E3
S2140049201595B1460E9E14E080530100C453010055
S214004930105401003033DBB24A46380013553100BC
S214004940FBF72CFE071E00D17CE22C00202D00D1A8
S21400495078E231003800FBF7A7FE651CCBB20929C8
S214004960E8D90F9A94466344DBB2E5E7462E00D1B9
S2140049709CE107220B9B07339343013294469C44E9
S21400498062460B921A685B68100019000C900D9135
S214004990FBF78AFF002800D1F5E10C980D9901225B
S2140049A0C84B5242FBF786FF002800D08CE14346F6
S2140049B003935B460497029309990C9A0D9B0A98F9
S2140049C0009201932A00089BFFF778FB013405004C
S2140049D01CE66E1C2A00089B0A9D09992520A847FC
S2140049E00134350012E6BB0700D5B5E04346012B7F
S2140049F001D800F009FC089B6F1E474498462A0021
S214004A00A1460A9D099C561C434621002020A84723
S214004A103200BE42F7D14C460B9B32001F1D187861
S214004A20751C089B09990A9EB04701340B97EDE563
S214004A30002332009E00F61801347600B61822785D
S214004A40330011003039303B0929F3D9984600234A
S214004A5016009B462E2E00D029E680236678DB00C3
S214004A601F433300303B621C092B11D8140033005F
S214004A705A469600B61801347600F61823783200A7
S214004A8019003039303A0929F3D91E0093460EE64C
S214004A902A2E00D140E2140009E6202332009A4371
S214004AA0472A04D180231B011F4302239E43452E21
S214004AB001D120231F4307220B9B04970733934300
S214004AC0013294469C4462460B92424603925A46F2
S214004AD002921A685B680999009201930A982A0064
S214004AE0089BFEF773FF013405008FE50C990B0059
S214004AF00133884500D885E343462A005F190C94A5
S214004B00099D0A9C7F1A561C089B29002020A04756
S214004B103200BE42F7D14346350001330C9C0C935D
S214004B200B9B1878002800D16BE64B46002B00D074
S214004B3037E62A000B9BA3465F1BB9460A9E099CD4
S214004B40089F3B002100551CB0474B46585D2A0085
S214004B500028F6D15C463CE60B9B09991A1D18788E
S214004B609146089B2A000A9FB84743466E1C454458
S214004B70012B00D84BE3A3463200A846099C089EAA
S214004B800A9D571C330021002020A8473A004745BD
S214004B90F7D15C464B463D000B93013436E50123C6
S214004BA05B42D9E5102239009143113211430B9133
S214004BB07A0500D433E6002118AE47E60B990B00C1
S214004BC0096804338846002900DA9FE156780B937B
S214004BD0541C67E5C0239B00A6781F43023484E577
S214004BE0C023A6781F4302347FE510230E930C23C0
S214004BF03A009A430C927B0502D501239A430C9205
S214004C00692E00D152E6642E00D14FE680270C9B19
S214004C10BF001F4000D027E11A0080235B001A4027
S214004C20914600D007E20C9B5B0600D5CFE20C9BBA
S214004C301B0600D4A6E20B9B1F8804330B93002FA1
S214004C4009D10C9910230A009A4313000A000C930A
S214004C50520500D556E10C9A6123920600D54123F1
S214004C60DBB218AE0A3B15940F934C461495B1462A
S214004C700E9E0EE03033DBB24A4638001355310044
S214004C80FBF78CFC071E00D1C2E02C00202D00D1C3
S214004C90BEE031003800FBF707FD651CCBB20929E2
S214004CA0E8D90F9A94466344DBB2E5E720231F4316
S214004CB05FE65B460C9302233B400F9300D06AE509
S214004CC014E7C046FFFFEFFFA946BB0716D14346D1
S214004CD0042B00D888E2A3462E1F2A000C970A9DB4
S214004CE0099F4644541C089B39002020A8472200F0
S214004CF0B442F7D14D46A1465C460C9F089B4A46F7
S214004D00042699460C97A3460A9F099C0E950F9277
S214004D10DA4B013E551C985D21004B46B8472A00E9
S214004D20002EF5D10F9B0C9F0E9D5C461A1DBB07EF
S214004D3000D495E0531B434500D391E0099B4746BA
S214004D409846089B0A9C9946561C4B46414620208E
S214004D50A0473200731B9F42F6D85C46150001340C
S214004D6054E402230E9342E70C233A009A4314338A
S214004D701A4310230C920E937B0500D53DE745E7BA
S214004D80BF4B0A933CE4A946BB0716D14346032B08
S214004D9000D842E2A346EE1E2A000C970A9D099F01
S214004DA04644541C089B39002020A8472200B442E1
S214004DB0F7D14D46A1465C460C9F4A4603260E9503
S214004DC0A346099D0A9C0C97AE4B013E571C985D66
S214004DD02900089BA0473A00002EF5D14A460C9FB2
S214004DE00E9D5C460332BB073AD5531B984537D910
S214004DF0099B47469846089B0A9C9946561C4B4674
S214004E0041462020A0473200731B9F42F6D8A4E7F5
S214004E104E462A00159C149D0C9B0693434605930C
S214004E205B4604930E9B03930023029301922A0091
S214004E300096089B09990A98FEF7BEFC0134050007
S214004E40FFF7E4FB4E462A00169C159D0C9B069326
S214004E50434605935B4604930E9B0393149BE4E73B
S214004E6015000134FFF7D2FB07220B9B0733934351
S214004E70013294469C4462460B921A685F6813009F
S214004E8091463B4308D10C9910330A009A4313000D
S214004E900A000C93520535D40C9A6123920600D56D
S214004EA09AE1DBB20A3B0F934346002216930E9B11
S214004EB018AE1495159415004C469846B14612E067
S214004EC03032D2B24B4620005A55390042460023B3
S214004ED0FBF752FD0F000400014300D1A4E03500AB
S214004EE0202E00D1A0E04246002320003900FBF728
S214004EF043FDD2B26E1C092AE2D90F9B9C4662443F
S214004F00D2B2DFE7002318AE1A0085E702210F436E
S214004F1041464942884659E60B9AA67813680234F9
S214004F209B46DB435946DB171940130004338B4678
S214004F300B93FFF7BCFB08230E9358E607220B9B48
S214004F4007339343013294469C4462460B921A6898
S214004F505B68D91712911391129813990600564060
S214004F6010960E005E401196109E119F361A8F41C5
S214004F70D90F1096119717911A430BD10C9910233D
S214004F800A009A4313000A000C93520502D5002724
S214004F9018AE3EE00C9A6123920600D51EE1DBB205
S214004FA00A3B0F93434616930E9B18AE0022984674
S214004FB03300149515941600109C119D994611E027
S214004FC03032D2B24B4620009A5529000023424682
S214004FD0FBF7D2FC030004000D000B4311D03E008B
S214004FE0202F0ED04246002320002900FBF7C4FCE9
S214004FF0D2B2771C092AE3D90F9B9C466244D2B2F0
S214005000E0E74E46169B109411959846159C149D05
S2140050100C9B0693434605935B4604930E9B0197B1
S2140050200393179B029302E7169B3200149D159C70
S21400503098464E46F0E60B9B1A1D1B68159299463D
S214005040002B0CD10C9910330A009A4313000A0067
S2140050500C93520503D5002318AE1A0073E00C9A81
S2140050606123920600D5BBE0DBB218AE0A3B14946F
S2140050700B934C460F95B1460E9E12E06455010008
S21400508099370000605501003033DBB24A462000F5
S214005090D3553100FBF782FA041E50D02F00202D86
S2140050A04DD031002000FBF7FFFA7D1CCBB209295A
S2140050B0EAD90B9A94466344DBB2E7E70B9B1A1DCA
S2140050C01B681692D9175A184A409146DA0F15925D
S2140050D0002B0CD10C9910330A009A4313000A00D7
S2140050E00C93520503D5002318AE1A0057E00C9A0D
S2140050F06123920676D4DBB218AE0A3B14940B9367
S2140051004C460F95B1460E9E0CE03033DBB24A4655
S2140051102000D3553100FBF741FA041E3BD02F0088
S214005120202D38D031002000FBF7BEFA7D1CCBB214
S2140051300929EAD90B9A94466344DBB2E7E74E4660
S2140051402A00149C0F9D0C9B0192069343460593E0
S2140051505B4604930E9B2A0003930023009602935B
S2140051600999089B0A98FEF727FB159B05000B93E9
S2140051700134FFF74BFA13680432D90F14910B92DF
S214005180FFF7B3FB0B9B1F6804330B9357E5002315
S2140051900C93FFF7F2FA4E462A00149C0F9D0C9BC8
S2140051A001920693434605935B4604930E9B2A00A2
S2140051B00393159B009602930999089B0A98FEF79D
S2140051C0FBFA169B05000B930134FFF71FFA0B9BA7
S2140051D01F7804330B9332E5412362E64123DEE673
S2140051E0412341E7412386E7A94687E50B9A1378D2
S2140051F004320B9200221492FFF777FB002318AEBE
S2140052001A0023E60C938DE42E00FFF705FC4B46B0
S21400521035000B930134FFF7F9F9A946CDE5063BB7
S21400522017000E93642E00D0E1E4530500D5E4E4A5
S214005230FFF73CFB0FB400B585B006AA08CA02A962
S21400524003920092012204485242FFF7C9F905B0C2
S21400525008BC04B01847C0469D370000002804D09C
S21400526002680020024B5A6070470220FCE7C046E6
S21400527094310020F0B54546DE4657464E46E0B52A
S214005280494C85B023780125002B07D0280005B0AF
S2140052903CBC90469946A246AB46F0BD434B444EB6
S2140052A00393444B3700E3180293434B08370193AC
S2140052B02300183300937268404BC421380001F075
S2140052C0CDFE002801D00500E0E7D8239846B0447C
S2140052D03A001821404608F0EDFD002801D01025C0
S2140052E0D4E7F0239946B1443A001421484609F021
S2140052F0BBF90028F3D1731DFF333A0018211800BC
S2140053009B4609F0E3F90028E9D19E235B009A4604
S214005310B24442461021504601F03CFD0028DED142
S2140053200190009000235A462021254801F00CFDEC
S2140053300028D4D1A6235B009C4643460393204B0B
S214005340B444029301900090002352465C216046CC
S21400535001F07AFD0028C2D13000A930FF303A00B3
S214005360702100F0B5FA0028B9D1E82342465B0068
S214005370F7500433F2504A461033F2505A4604337C
S214005380F25052461033F2500023FF226371A3718D
S21400539023710C4B2570E254D423A570E570607021
S2140053A02081F050002571E7AC3300200C08000087
S2140053B0943100201E0400000604000078610100FD
S2140053C0B03200202B0C00001F4B1B78002B26D081
S2140053D0A8235B01984232D00ED9E8235B0198429D
S2140053E02FD01ED98023DB01984214D0E2231B0263
S2140053F0984214D115487047C0239B0098421CD091
S21400540015D9A023DB00984207D0A0231B019842A1
S21400541005D10F48EFE70F48EDE70F48EBE7002010
S214005420E9E7013BFF3B9842F9D10C48E3E7013B33
S214005430FF3B9842F3D10A48DDE70A48DBE70A4813
S214005440D9E70A48D7E7C046AC33002060320020D0
S214005450983200203C33002084320020D0320020D6
S2140054609C3100206C320020B0320020E032002058
S214005470F0B5454657464E46DE46E0B585B01F00B9
S2140054800EAB1B8804000E0015009846012807D9AD
S2140054906E4805B03CBC90469946A246AB46F0BD69
S2140054A0072FF5D8002A29D0002F30D10921100067
S2140054B0FBF774F8092183B228009946FBF7F4F845
S2140054C0C9B24B46DB005B189BB2B94201D9013B1F
S2140054D09BB2109AFF1A138007231F40119B1F7060
S2140054E0109B1A88002F02D0013292B21A80904583
S2140054F01BD20023109A56481380CAE7002FC7D144
S214005500109B119A1F80002300201370C1E7531EC2
S214005510092118009A46FBF741F8092183B2504644
S2140055209946FBF7C1F8C9B2CBE7002A6ED0012333
S214005530072100270020A246A8469B46631CDBB234
S214005540039301960F9B421CDD1907235C1A019BEF
S2140055501B5C2341DBB202932B70424546D2019B73
S2140055609E18B1463678B4464E1C330066469E40BA
S2140055703300029E1E43F3B22B70119D2D78002D32
S21400558005D0109D7E1C2D88B446AE4232D25E46B3
S21400559055461E4200D0039D02261E4201D001350C
S2140055A0EDB204261E4201D00135EDB208261E4299
S2140055B001D00135EDB2DE0601D50135EDB29E060D
S2140055C001D50135EDB25E0601D50135EDB25BB20F
S2140055D0002B01DA0135EDB25B464E46A340367825
S2140055E033405E463540A540AB422CD1109B1D880B
S2140055F07B1C9C4600291CD06846634603810789AD
S2140056000139C9B290B2BD429CD82A00119B002035
S2140056101B78002B00D13CE70F99013A8C460821F5
S214005620C91AFF23CB401900624413780B4013704D
S2140056302FE76A46634613811789023080B2AF426D
S214005640E3D207217EE7034823E7C04621E30000B4
S21400565004E3000002E30000F0B54E46DE4657467F
S21400566045468446E0B583B099460CAB10001E88CC
S214005670624607239A4307D0864803B03CBC904650
S2140056809946A246AB46F0BD0D9B624619700223B2
S2140056901A40904600D087E0002E77D0042362465A
S2140056A01A406446924642B201279446033B019450
S2140056B07C1EA4B2A3465446002C00D1BFE0072EA1
S2140056C000D9C2E00822F4B2921B0026009242469D
S2140056D0002A73D05D464A46525D009D9346FF22DF
S2140056E0AA4015005A4615404D402A0600D5B2E09D
S2140056F06D00E9B2012C3BD04A0093462A0600D53D
S214005700C3E069465A460A700978022C30D05A46D9
S2140057104D00120600D5B4E0E9B2032C28D04A00AA
S21400572093462A0600D5A7E069465A460A700978C5
S214005730042C1DD05A464D00120600D598E0E9B25A
S214005740052C15D04A0093462A0600D58BE06946FC
S2140057505A460A700978062C0AD05A464D00120698
S2140057607DD4E9B2082C03D14C002A0618D4E1B245
S2140057700D9A01371170BFB2002E99D1019B9C463D
S2140057804346002B02D00D9BC908197063460020C3
S214005790DB0700D471E71F2359400D9B19706CE797
S2140057A0624662401400E2E7C9000D9BC9B2C00021
S2140057B01970C0B2002E00D070E7E4E75D464A4696
S2140057C0525D009D9346FF22EA4015005A4615405A
S2140057D069404D080B4200D04540E9B2012CC7D0C5
S2140057E04D080B4200D04540E9B2022CC0D04D080F
S2140057F00B4200D04540E9B2032CB9D04D080B420D
S21400580000D04540E9B2042CB2D04D080B4200D07F
S2140058104540E9B2052CABD04D080B4200D04540C0
S214005820E9B2062CA4D04D080B4200D04540E9B2A0
S214005830082C9DD14C080B4299D0444097E7002293
S214005840013EB6B20092082441E70022083EB6B2F6
S214005850009208243BE762466D00554049E76246E1
S2140058606A4015007DE7594662464A4093466EE711
S21400587062466A40150062E7594662464A409346C9
S21400588052E762466A40150046E7594662464A4075
S214005890934636E721E3000030B50C4D41180478F6
S2140058A001306C40E3B21C016340DBB22D0A1C09D8
S2140058B06C401D026540DB005D408142EFD1ED4348
S2140058C0ADB215702D0A5570002030BDFFFF0000E8
S2140058D010B5702901D01A4810BD1A4B8262038099
S2140058E0022200234F39C362436383630363C363A7
S2140058F0036443648364C364036501244254033130
S2140059004254012104811F344371C37083710155D1
S2140059100234C377035503340355817281730A49F1
S2140059200A4C01831121817043318377037184838C
S21400593004824354113143546633C2540020CBE7EB
S214005940204000000140000050140000EC1300004E
S214005950212370B5C35C04000D00032B06D0002283
S2140059605E21806A02F006FB00280FD1002220216B
S214005970A06A02F0FFFA002808D1002D07D0012DFA
S21400598003D12C4B62681A4225D12B4870BDE37FA9
S214005990002B0BD02389012B31D0A378002B2AD1E2
S2140059A02522A354033AA3542448EFE7E378002BB8
S2140059B0F3D02389012BF0D1200000F04DF9FF230E
S2140059C00340842B28D08C2BE0D0822BDED0E084C2
S2140059D08120C001DAE7A06A01F08AFE0028D5D14E
S2140059E0200000F035F9FF2380221B02D20103407D
S2140059F09342ECD1CAE7200000F01EFAF3E7104805
S214005A00FFF718FCA06A05F02FFAFF230340CDD05D
S214005A10012BBBD10948B9E7A06A01F069FE00284E
S214005A20B4D1A28B0021A06A02F064F90028B4D099
S214005A30ACE7C04600FFFF002140000084400000A5
S214005A40385A010070B5050014008D2903D8434B61
S214005A5089005B589F46424870BD531E012BFAD8FA
S214005A6024230020EA54F7E7AA700020F4E76A71BE
S214005A700020F1E7EA700020EEE7AA710020EBE7CD
S214005A8020230020EA54E7E71F239A43E3D104715A
S214005A900020E1E7FF231C40631E022BDBD80481B5
S214005AA00020D9E7AA770020D6E7531E022BD2D8CB
S214005AB02123EA545A21806A02F05CFA0028CBD1EE
S214005AC022000121E86A08F007FA0028C4D1E86B32
S214005AD02200012108F0E4FDBEE7EA770020BBE7DC
S214005AE013000C3B012BB6D86622835C0D2C2FD0FE
S214005AF002218B4383540020AEE7FF231340012B83
S214005B00A9D8AA730020A7E7FF231340012BA2D829
S214005B10AA720020A0E7AA8300209DE76A830020DF
S214005B209AE72A83002097E70E4B9A4200D892E71E
S214005B30EA82002090E70C4B9A4200D88BE7AA82B4
S214005B40002089E76A82002086E72A82002083E711
S214005B5002210B43835400207EE7C046C85501004F
S214005B6021400000C33B0000AF4F00008D2961D8E4
S214005B70334B89005B589F462423C35C0020138068
S214005B807047837800201380FAE74379002013805B
S214005B90F6E7C37800201380F2E7837900201380AD
S214005BA0EEE72023C35C00201380E9E72523C35CCF
S214005BB000201380E4E7037900201380E0E7C38C1D
S214005BC000201380DCE7037A00201380D8E7837F69
S214005BD000201380D4E72223C35C00201380CFE785
S214005BE0C37F00201380CBE76623C35C9B0723D4C8
S214005BF00C2300201380C3E76523C35C00201380BA
