S02900004E666372646C69624578315F4261736963446973634C6F6F705F7333326B3131362E7372656351
S21400000000380020110400006D0400006D0400009C
S21400001000000000000000000000000000000000DB
S2140000200000000000000000000000006D0400005A
S21400003000000000000000006D040000D90B010065
S2140000402DF4000039F4000045F4000051F40000DF
S2140000505DF400006D0400006D0400006D040000F7
S2140000606D0400006D0400006D0400006D040000C7
S2140000706D0400006D0400006D0400006D040000B7
S2140000806D0400006D0400006D0400006D040000A7
S2140000906D0400006D0400006D0400006D04000097
S2140000A06D0400006D0400008DFC00006D0400006F
S2140000B06D0400006D0400006D0400006D04000077
S214000400FFFFFFFFFFFFFFFFFFFFFFFFFE7FFFFF78
S21400041072B610490F4A0F4B0E4C0E4D0D4E0D4F37
S214000420B846B946BA46BB46BC460B490B4A521AB2
S214000430013A05DD0020042308601944043AFBDA7B
S21400044007488546074880470748804762B611F048
S21400045077F8FEE7000000000000002000380020CB
S214000460003800209DDC0000C1DC0000FEE7C0462E
S214000470002243088B4274D303098B425FD3030ADE
S2140004808B4244D3030B8B4228D3030C8B420DD3F1
S214000490FF22090212BA030C8B4202D3121209027F
S2140004A065D0030B8B4219D300E0090AC30B8B42BD
S2140004B001D3CB03C01A5241830B8B4201D38B036B
S2140004C0C01A5241430B8B4201D34B03C01A524110
S2140004D0030B8B4201D30B03C01A5241C30A8B4253
S2140004E001D3CB02C01A5241830A8B4201D38B023E
S2140004F0C01A5241430A8B4201D34B02C01A5241E2
S214000500030A8B4201D30B02C01A5241CDD2C30953
S2140005108B4201D3CB01C01A524183098B4201D3CF
S2140005208B01C01A524143098B4201D34B01C01ABA
S214000530524103098B4201D30B01C01A5241C30832
S2140005408B4201D3CB00C01A524183088B4201D3A1
S2140005508B00C01A524143088B4201D34B00C01A8D
S2140005605241411A00D20146524110467047FFE7F9
S21400057001B5002000F0FCF802BDC0460029F7D007
S21400058003B5FFF775FF0EBC4243891A1847C046ED
S21400059003460B437FD4002243088B4274D30309DF
S2140005A08B425FD3030A8B4244D3030B8B4228D380
S2140005B0030C8B420DD3FF22090212BA030C8B42A6
S2140005C002D31212090265D0030B8B4219D300E046
S2140005D0090AC30B8B4201D3CB03C01A5241830BCB
S2140005E08B4201D38B03C01A5241430B8B4201D37B
S2140005F04B03C01A5241030B8B4201D30B03C01AA4
S2140006005241C30A8B4201D3CB02C01A5241830A1D
S2140006108B4201D38B02C01A5241430A8B4201D34C
S2140006204B02C01A5241030A8B4201D30B02C01A76
S2140006305241CDD2C3098B4201D3CB01C01A5241DD
S21400064083098B4201D38B01C01A524143098B4266
S21400065001D34B01C01A524103098B4201D30B014F
S214000660C01A5241C3088B4201D3CB00C01A524174
S21400067083088B4201D38B00C01A524143088B4239
S21400068001D34B00C01A5241411A00D201465241D2
S214000690104670475DE0CA0F00D04942031000D3F1
S2140006A04042534000229C4603098B422DD3030A46
S2140006B08B4212D3FC22890112BA030A8B420CD356
S2140006C0890192118B4208D3890192118B4204D37F
S2140006D089013AD0921100E08909C3098B4201D3FF
S2140006E0CB01C01A524183098B4201D38B01C01A39
S2140006F0524143098B4201D34B01C01A52410309B0
S2140007008B4201D30B01C01A5241C3088B4201D35E
S214000710CB00C01A524183088B4201D38B00C01A0B
S2140007205241D9D243088B4201D34B00C01A5241E2
S214000730411A00D20146634652415B10104601D36F
S2140007404042002B00D54942704763465B1000D3F9
S214000750404201B5002000F00BF802BD0029F8D099
S21400076003B5FFF715FF0EBC4243891A1847C0466B
S2140007707047C0468446081C6146FFE71FB500F078
S21400078011FC002801D40021C8421FBD10B500F09E
S21400079095FB4042013010BD10B500F003FC002868
S2140007A001DB002010BD012010BDC04610B500F0D2
S2140007B0F9FB002801DD002010BD012010BDC04659
S2140007C010B500F0A5FB002801DC002010BD0120BC
S2140007D010BDC04610B500F09BFB002801DA0020D3
S2140007E010BD012010BDC046002B11D1002A0FD12C
S2140007F0002900D1002802D00021C943081C07B4F4
S214000800024802A14018029003BDC04665FFFFFFE4
S21400081003B4684601B5029800F082F8019B9E4634
S21400082002B00CBC7047C046F0B54F4646460504BD
S2140008302D0C2C1CC0B41704160C3F0C9946030C48
S2140008407C4375435F4373437D19260CAD199C4664
S214000850AF4203D980235B029846C4444B465143BB
S214000860434324042E0C240C2D0466442C195918DA
S2140008708919201C0CBC90469946F0BD9E2110B5E7
S214000880C905041CFFF7A6FF002803D1201C00F0B2
S2140008907FFE10BD9E21201CC90500F0FBFC00F069
S2140008A077FE80231B069C466044F2E738B500229C
S2140008B00C4B041C0D1C02F08FF9002804D1201CE0
S2140008C0291C02F009F838BD064B0022201C291C02
S2140008D001F088FC02F000F880231B069C4660446A
S2140008E0F1E7C0460000E041F0B583B0161C1F1CBF
S2140008F00090019102F098F9041C0D1C221C2B1C80
S214000900301C391CFFF790FF009A019B121A8B418E
S2140009100899201C0A604B60291C03B0F0BDC04635
S214000920F0B5141C83B01D1C0090019102F074FAFF
S214000930221C2B1C061C0F1CFFF776FF009A019B3F
S214000940121A8B410899301C0A604B60391C03B0A0
S214000950F0BDC046F8B54A00430244004E02C50F3B
S214000960240E281C9B09120EC90FB7098D4240D0D1
S214000970A01A002800DC84E0002A1CD1002F5CD1DD
S2140009805A0704D00F221A40042A00D004338022CB
S214000990D2041A40281C002A24D00134FF2C00D18F
S2140009A07BE09B015B0AE4B25B02E4055B0A23433F
S2140009B0C0071843F8BDFF2CE2D08022D2041743AC
S2140009C001261B2808DC391C20223E1CC140101AB8
S2140009D08640771EBE410E439B1B5A0133D4281C0B
S2140009E05A07CFD1DB08FF2C1ED05B025B0AE4B2AD
S2140009F0DAE7A11A002957DD002A3AD0FF2CBFD02B
S214000A008022D204174301261B2972DD9B195A0146
S214000A10E5D50134FF2C00D187E001218A4A194030
S214000A2013405B080B43ABE7002B36D08022D20383
S214000A3013435B025B0AFF24B6E7013800283FD168
S214000A40DB1B5A01CBD59B019E09301C02F0CEF869
S214000A5005388640844223DC001B1F24321C431CBE
S214000A60201ADA408640131C741EA6410024334325
S214000A7086E7002F00D183E70139002950D1DB1922
S214000A80C5E7002820D1621CD2B2012A5EDDDE1B3B
S214000A90720128D5FE1A0D1CD7E7FF24002383E732
S214000AA0694B241A33406BE7002958D1621CD1B237
S214000AB001293CDDFF2A37D0FB185B08141C5FE7D2
S214000AC0FF2C00D07CE75BE7002C1ED0FF2A23D04B
S214000AD08024E404404223431B285BDD0123FB1AE9
S214000AE0141C0D1CADE7002EAFD1002300200024FF
S214000AF078E73A1CCA40944620223E1C511A8E4083
S214000B006246771EBE41164380E7002B3ED0C043A8
S214000B100028E4D0FF2ADFD13B1CFF240D1C2FE762
S214000B20FF2C00D06FE72BE7FF2400235AE7002CAA
S214000B305AD1002B7FD0002F00D121E7DB195A01B4
S214000B4000D44CE7404A0134134019E7002C15D175
S214000B50002B2FD1002F5DD03B1C0D1C10E7002C66
S214000B6021D1002B53D0C943002904D0FF2A4BD0F3
S214000B701B2957DD0123DB19141C48E7002B22D163
S214000B80002F4AD03B1C0D1CFF24F9E63B1C141C0E
S214000B900D1CF5E61D1C2024C540201A8340581E57
S214000BA083412B439BE7FF2A2ED08024E40449424E
S214000BB02343DDE7002F00D1E2E6DA1B50013CD5E7
S214000BC0FB1A0D1CDCE6FF24002F00D1D8E680229D
S214000BD0DB08D203134204D0FE08164201D1331CB0
S214000BE00D1CDB00FF24CBE6002B0DD0FF24002FCE
S214000BF000D1C5E68022DB08D2031342F1D0FE08FE
S214000C001642EED1331CECE73B1CFF24B8E63B1C37
S214000C10141CB5E6231C0020E4E6802300209B0479
S214000C20FF24DFE61E1C2024CE40611A8B40591E8E
S214000C308B4133439FE73B1CA2E6131E00D0CEE653
S214000C4000230020CEE6C046FFFFFFFBF0B5564669
S214000C504D465F464446F0B443024500C70F83B096
S214000C608A465C0A2E0EB94641D0FF2E26D0802337
S214000C701B042343DC00002398469B467F3E5346D6
S214000C805B025D0A53465A00DB0F120E9A4639D0B5
S214000C90FF2A33D080231B042B43DD0000237F3A3A
S214000CA05146B21A46467940081C01921E430F2E42
S214000CB000D976E07E4AB6009659B746002C30D169
S214000CC008239846063B9B46D9E780230021DB0392
S214000CD0FF245B02E4055B0AC90723430B43181C89
S214000CE003B03CBC90469946A246AB46F0BD002CED
S214000CF028D104239846033B9B46C0E7002D1FD10E
S214000D00022302E0002D11D10123B21A50464646B6
S214000D10784001921E430F2E27D86649B60089599F
S214000D208F460C239846093B9B46A8E7281C01F0F3
S214000D305DFF7622431F52429D40121A0023AFE702
S214000D400323ADE7201C01F051FF431F9C40762390
S214000D505B421E1A002398469B4690E70025D14624
S214000D609B465B464846022B6FD10121FF2401407B
S214000D700023AEE77E23019A5B429B1A1B2B6DDD98
S214000D8001214B46194000240023A2E78023DB0301
S214000D901C4249D18023DB0323435B025B0A391CD8
S214000DA096E763016D01AB4237D389461A200121CD
S214000DB05B1B01241E1C49005B00002E01DBAB42BE
S214000DC001D35B1B214301380028F3D1581E834111
S214000DD00B431D1C019C7F34002CCBDD6B0704D01D
S214000DE00F232B40042B00D004352B0104D5019A89
S214000DF0314B8032141C1D40FE2C07DD4B46012172
S214000E00FF241940002364E7251CAAE701214A466F
S214000E10AB015B0AE4B211405BE7019A8946013AEE
S214000E2001921B200021C4E71D4207D023435B022A
S214000E305B0A391C4CE700256302ABD58023DB0335
S214000E402B435B025B0A514642E7032B25D0012B5E
S214000E50C0D101210024014000233AE7291CD940D3
S214000E602B1C019A9E3293405D1EAB410B435A07E2
S214000E7004D00F221A40042A00D004335A0105D5A4
S214000E804B46012101241940002322E701214A464E
S214000E909B015B0A114000241BE7802301214A4680
S214000EA0DB032B435B020A405B0A111C10E7C046BB
S214000EB0A42E0100E42E0100FFFFFFF7430270B5E9
S214000EC042004C005D0AC30F4802120E460A240E6A
S214000ED0C90FFF2A05D0FF2C08D00120A2420BD054
S214000EE070BD0120002DFBD1FF2CF6D10120002E75
S214000EF0F6D10120A242F3D1B542F1D18B4205D002
S214000F00002AEDD1281C431E9841E9E70020E7E7B8
S214000F10F0B543024D024A0044005E0A240EC30F99
S214000F206D0A120EC90FFF2C0DD0FF2A31D0002CEF
S214000F300DD177427741002A23D1002D21D1002000
S214000F40002F0BD107E0002E28D1FF2A21D0002A3F
S214000F5005D08B4207D0584201231843F0BD002D20
S214000F60F9D08B42F7D19442F5DC04DBAE42F2D8DE
S214000F700020AE42F2D25842434101205B42184361
S214000F80ECE7002FE5D048424141012049420843A2
S214000F90E4E7002D02D1002CCBD0DAE70220404255
S214000FA0DCE7C0464302F0B542004C005E0AC30FC1
S214000FB04802120E450A240EC90FFF2A0FD0FF2C36
S214000FC01AD0002A10D177427741002C29D0002F62
S214000FD017D0484241410120494208430BE0022015
S214000FE0002E08D1FF2C07D0002C0AD1002D08D1E6
S214000FF0584201231843F0BD0220002DFBD1002AE1
S214001000E1D08B42F4D1A242F2DC04DBAE42EFD850
S2140010100020AE42EFD25842434101205B421843C3
S214001020E9E7002DD3D10020002FE4D1E0E7C04649
S214001030F0B55F4656464D464446F0B44502460077
S214001040C40F83B00F1C6D0A360EA34645D0FF2E84
S21400105025D080231B041D4300239A46ED007F3EC7
S21400106001937B025B0A98467800FB0F000E9946B8
S21400107040D0FF2838D0802342461B041343DB00B1
S214001080984600237F384A46019F30186240411C2C
S2140010901F430F2F69D87D4EBF00F659B746002D67
S2140010A045D108230193063B9A46DAE79346534612
S2140010B0022B2FD15B46012400251C40FF236D0226
S2140010C0DB056D0AE4071D432543281C03B03CBC22
S2140010D090469946A246AB46F0BD002D2CD104237F
S2140010E00193033B9A46BCE743465A4253410322C8
S2140010F0D31AC8E742460123002AC4D0404601F06E
S21400110075FD4246431F9A4076235B42181A904666
S2140011100023B8E7032B00D1ADE0012B00D08CE014
S2140011205B4654461C40E4B200230025C7E70C2368
S2140011300193093B9A4694E7281C01F057FD762652
S214001140431F9D4000237642361A01939A4688E74D
S21400115080250024ED03FF23B1E74546CB469A469B
S214001160A5E7454693469A46A1E743462C041B0C42
S2140011709C46230C444626041C1C360C2F0C744339
S214001180351C66467D4373437743EB18260C9E1941
S214001190B54203D980235B029C466744240433048B
S2140011A0240C1B199D016C1EA5419B0E360C2B436F
S2140011B0BD19AD011D432B0104D5012368081D4050
S2140011C00543081C031C7F33002B2CDD690704D065
S2140011D00F212940042900D00435290103D52C4BC2
S2140011E01D40031C8033FE2B17DD0124FF23144013
S2140011F0002564E78020C003054209D04346034229
S21400120006D1454605436D026D0A4C46FF2356E758
S21400121005436D026D0AFF2351E70124AD016D0AF7
S214001220DBB214404BE77E235B421B1A1B2B07DD09
S214001230012400231440002541E7081C5A46C1E754
S2140012409E30291C8540D940681E85410D436B079A
S21400125004D00F232B40042B00D004356B0104D59B
S214001260012401231440002529E70124AD016D0A5D
S2140012701440002323E78023DB031D4301245B4641
S2140012806D0223401C1C6D0AFF2318E7242F010063
S214001290FFFFFFF7F8B54A00430244004D02C00FB7
S2140012A0240E061C9B09120EC90FAD09FF2A00D199
S2140012B075E001277940884250D0A01A002800DC4B
S2140012C08FE0002A1ED1002D00D075E05A0704D00A
S2140012D00F221A40042A00D0043380220120D204B0
S2140012E01A403040002A32D00134FF2C00D184E06E
S2140012F09B015B0AE4B25B02E4055B0A2343C0077A
S2140013001843F8BDFF2CE1D08022D20415431B28D9
S2140013107ADD01255B1B5A015DD59B019F09381CB0
S21400132001F064FC05388740844269DC001B1F24FA
S2140013303A1C431C201ADA408740131C7C1EA74127
S21400134000243B43C2E7131E45D100230020DB08E0
S214001350FF2C28D05B025B0AE4B2CCE7A11A002976
S2140013605BDD002A2ED0FF2CB0D08022D20415439D
S2140013701B2974DC2F1C2022CF40511A8D40691E79
S2140013808D413D435B195A0125D50134FF2C74D09D
S21400139001217E4A194013405B080B4396E7002D57
S2140013A000D088E785E7002B27D08022D20313439E
S2140013B05B025B0AFF249EE701380028AAD0FF2CB8
S2140013C0A5D183E7002D00D180E701390029D9D0C7
S2140013D0FF2CCDD17AE75A0700D079E701203040BC
S2140013E0B5E7002825D1621CD2B2012A55DD5F1B65
S2140013F07A012DD5EF1A0E1C91E7FF2400237AE719
S214001400624B241A3B4061E7291C2022C140101A77
S2140014108540681E85410D437CE7002946D1621C45
S214001420D1B201292BDDFF2A26D0EB185B08141C4D
S2140014304CE7002C15D0FF2A1AD08024E404404242
S21400144023431B284DDD0123EB1A141C0E1C62E7F8
S214001450002F00D063E700230020002477E7012553
S21400146090E7002B39D0C0430028EDD0FF2AE8D102
S2140014702B1CFF240E1C29E7FF24002367E7002C03
S2140014805AD1002B7FD0002D00D11FE75B195A01DF
S214001490A1D53E4A0134134018E7002C15D1002B85
S2140014A02FD1002D5ED02B1C0E1C0FE7002C21D157
S2140014B0002B54D0C943002904D0FF2A4CD01B2946
S2140014C058DD01235B19141C5DE7002B23D1002D8A
S2140014D04BD02B1C0E1CFF24F8E62B1C141C0E1CD9
S2140014E0F4E61E1C2024C640201A8340581E834162
S2140014F03343A9E7FF2A2FD08024E404494223433C
S214001500DDE7002D00D1E1E65A1B500100D41AE7B2
S214001510EB1A0E1CDAE6FF24002D00D1D6E6802258
S214001520DB08D203134204D0ED08154201D12B1C70
S2140015300E1CDB00FF24C9E6002B0DD0FF24002D77
S21400154000D1C3E68022DB08D2031342F1D0ED08B7
S2140015501542EED12B1CECE72B1CFF24B6E62B1C09
S214001560141CB3E6231C0020F1E6802300209B0415
S214001570FF24ECE61F1C2024CF40611A8B40591E26
S2140015808B413B439EE72B1CA0E6C046FFFFFFFBBC
S2140015904202510A4200C30F120E00207E2A0DDDC1
S2140015A09D2A0CDC802000040143952A0ADC962044
S2140015B0821AD1400A1C58424240D0187047034A4B
S2140015C09818FBE7963A91400A1CF4E7FFFFFF7F66
S2140015D010B5041E35D001F009FB9E21091A962984
S2140015E009DC082830DD021C231C083A93405B0205
S2140015F05B0AC8B220E099290CDD0522231C121ACA
S214001600D3401A1C031C1B339C40231C5C1EA341A6
S21400161013431C1C052801DD431F9C400F4B234031
S214001620620704D00F221440042C00D004335A0161
S2140016300ED49B015B0AC8B25B025B0AC005184366
S21400164010BD00200023F7E763025B0AC8B2F3E789
S2140016509F21024A091A1340EBE7C046FFFFFFFB33
S214001660F0B5454657464E4694464C000A03C90F09
S214001670E0B488460E1C1903470FC500480A6146A9
S214001680490F01436046520A1743C0005A00640DD2
S214001690520DDB0F8446984500D1A7E0A01A00281B
S2140016A000DC01E1002A3DD163460B4300D0D4E0C4
S2140016B06B0700D188E00F232B40042B00D183E07A
S2140016C02A1DAA42AD4180236D427F191B043B4070
S2140016D04646151C002B00D17CE0CC4B01349C42C6
S2140016E000D1FDE03A1CCA4BED081A4050076405CD
S2140016F052020543120B640D002112030B0D1B054D
S2140017006405120B1A436308C24CF60714401C43C8
S214001710640064083443281C211C1CBC904699466F
S214001720A246F0BDB94B9C42C2D080231B0419438D
S214001730382800DDECE01F2800DD21E120220E1C09
S2140017406346121A9640C340334366469640321CA0
S214001750561EB24113430A1CC240EB1A9D42B641C4
S2140017601D1CBA1A7642971B3B0200D497E07A02F9
S214001770560A002E00D1B6E0301C01F037FA031CE2
S214001780083B1F2B00DDB7E09E40371C28262A1C8E
S214001790361AF240161C9D403E439C4200DDB2E0E5
S2140017A01C1B621C1F2A00DDD8E01F23291C1C1BE3
S2140017B0331CA540A340D1406C1EA541D64019431A
S2140017C00D43371C002473E780231B043B4046462A
S2140017D000D082E78D4BED0878070543FA089C4257
S2140017E032D012036405120B640D85E7A31A002B92
S2140017F000DC94E0002A3CD0844A944200D157E7AB
S214001800802212041143382B00DC05E1634619439D
S214001810481E81410022C8B24019A8429B41051CBF
S214001820D2195B42D7183B0239D5784B01349C421B
S21400183000D14CE10120764A6B083A402840184314
S214001840D5070543570833E72B1C134348D080239E
S2140018501B031A431203120B4EE70138002878D1F7
S2140018606346EE1AB5429B417A1A5B42D71A351C7C
S2140018707AE7021C0A4300D11AE7013B002B00D08E
S214001880F2E04019A8429B41CA195B42D718051CD2
S214001890C9E7131C334300D118E1171C351C464614
S2140018A06B0700D007E795E700287AD1621C52053F
S2140018B0520D012A00DCFBE06246AA1A9542B641A8
S2140018C09146781A7242861A320200D493E0624633
S2140018D0551BAC458041CF1B40423E1A984648E710
S2140018E00022002508E7281C01F080F92030031CA0
S2140018F0083B1F2B00DC47E7283885402E1C0025B8
S2140019009C4200DC4CE7424AE41A1640371CCFE6FD
S214001910634619434B1E99410022CBB21DE7002BAC
S21400192000D0F2E0601C43055B0D012B00DCA4E058
S214001930364B984200D121E163465C19AC429B418C
S214001940CF195B42FA186408D50725435708041CCC
S214001950AEE62E4B9C4200D0EAE6A9E6211C331CDC
S2140019601F39CB40191C202A00D182E03F231C1BC4
S214001970A64035436E1EB54100270D4300248EE772
S214001980031C0E1C203BDE40202874D040231B1A6C
S21400199099400B1C62461343591E8B410022334369
S2140019A0DBE6002C50D0194CA24200D1A8E08024DF
S2140019B0240440422743382800DDD9E01F2800DDF4
S2140019C039E120243E1C241AA640B0462E1CA1460F
S2140019D0C640444626434C46A5406C1EA541C7401B
S2140019E035436046451BCF1BAC45894149427F1AAB
S2140019F0141C9846B8E64B464D46334300D0B8E62E
S214001A000026002700240025E4E6C046FF07000065
S214001A10FFFF7FFFFFFF0F801F2B5BDC2022081CD1
S214001A20D21A9040814660469246D8404A461043B5
S214001A308146524660469040021C501E82414846EF
S214001A4010430A1CDA40E7E63C1C2C4358D0C0433F
S214001A50002851D16046451BAC458041CF1B404213
S214001A603F1A141C98467FE68F4A944200D0CAE676
S214001A701EE600267DE700238CE73B1C2B43002C4C
S214001A8000D0BDE0002B00D1F5E063460B4300D14B
S214001A900EE663465B19AB428041CA1940421718EE
S214001AA03A0200D4FCE0814A1D1C17400134FFE5D1
S214001AB03A1C2A43002C51D1002A00D085E0624609
S214001AC00A4303D00F1C65469846F1E5002600271A
S214001AD000257FE6181C0A1C2038C240202B00D1A7
S214001AE0A7E04020C01A8140081C63461843411EE8
S214001AF08841104300228FE66B4CA24200D05AE782
S214001B000F1C6546141C9846D2E5002C3AD1381CAA
S214001B10284371D0DB43002B18D0634882426BD039
S214001B20382B00DD9DE01F2B00DDA7E020203C1CAD
S214001B30C01A8440A1462C1C8246DC40484604431A
S214001B4050468540681E8541DF402543654465450F
S214001B509B417F185B42FF18141C64E6002A19D1CB
S214001B6062460A4377D00F1C654698464E4C9FE562
S214001B703D436F1EBD410027EDB232E7041C00272F
S214001B80002527E64848824236D0802000045B4283
S214001B900743C5E762460A4349D08024ED08780724
S214001BA0FA0824032843224209D0CE08264206D14A
S214001BB062464F07381CD20810439846321CD200A3
S214001BC0470F1743C500384C72E562460A4300D1FA
S214001BD06EE56246AE1AB5429241781A5242821AB1
S214001BE0100200D455E66246551BAC458041CA1B20
S214001BF04042171A98465BE50F1C6546141C57E5CD
S214001C00002B34D063460B4311D08024ED087807B0
S214001C10FA08240328432242D1D0CB082342CED14F
S214001C2062464F07381CD20810431A1CC7E71E4CE2
S214001C303EE5002059E7041C3E1C203CE640341CD0
S214001C4020282BD04026301A87403D436F1EBD41CA
S214001C5000272543C5E680270026FF03124C0025F3
S214001C60B8E53D436F1EBD410027EDB26EE70F1C81
S214001C7065460D4C1CE50F1C654619E51C1C381CFA
S214001C80203CE040041C202B0CD04020C31A9F4070
S214001C903D436F1EBD410027254357E70027D4E785
S214001CA01D1CFCE50027F3E7FF070000FFFF7FFF92
S214001CB0F0B55F4656464D464446F0B4051C061C35
S214001CC0080387B099464F00030BCC0F92469B46FD
S214001CD07F0D019467D06C4B9F4236D080205B46C8
S214001CE040031843C0006B0F1843684B83469C465E
S214001CF000239846EE00674400934B4649461D0372
S214001D00C90F5B0052462D0B5B0D894600D16EE075
S214001D105D498B4264D080205C4940038C4600219C
S214001D200543ED00500F0543D20063444846FF18B4
S214001D307B1C9A46009B604002900B430F2B00D9F9
S214001D40ACE053489B00C3589F465B461D4300D0FB
S214001D5082E00823009300239B4602330026984621
S214001D60CBE7029B01934346022B59D10124002561
S214001D700026019B1C40444B00212D030A0D120532
S214001D802D0B1543434A1B0515401D436D00E40704
S214001D906D082543301C291C07B03CBC904699466C
S214001DA0A246AB46F0BD2B434ED05B46002B00D17F
S214001DB085E1584600F01AFF021C2823291C9B1AAE
S214001DC0161C5846D940083EB0400B1CB54003438D
S214001DD09B462E1C0023304F0093BF1A98468CE774
S214001DE0514629432ED10025002202219EE7514666
S214001DF0294323D0002D00D154E1281C00F0F6FE24
S214001E00031C28215046C91A1A1CC8405146083AD5
S214001E10914095400A1C05431F480021C31A85E7D8
S214001E20032B00D1C2E1012B00D06DE14446019B9B
S214001E3000251C40E4B2002300269DE70025002272
S214001E40012173E7032171E70423009300239B46D7
S214001E5001330026984650E70C230093093B98462A
S214001E604BE7802500242D030026074B84E74B46CE
S214001E70AB46161C0193884675E7029BAB46161CBC
S214001E80019388466FE7C046FF07000001FCFFFF8E
S214001E90642F0100FFFF0F800DFCFFFF330C36049C
S214001EA0360C9C46331C140C1204120C53439846F2
S214001EB0634653439946634663430193331C414646
S214001EC06343090C4B445B18994505D980204002B2
S214001ED08146019949440191190C03914146090430
S214001EE0090C1B045B1804932B0C9846331C2D041A
S214001EF0290C4B43604600934346654658435E4371
S214001F00009B4D431B0C9946AE194E448446B54281
S214001F1003D980235B029946CC44350C2B1C0398CE
S214001F20634484460593009B36041B041B0CF3187D
S214001F309C446046039058460504060C280C8446CC
S214001F405043351C81466046654344434846000C72
S214001F508346724314195C44A24203D9802252027B
S214001F6093465D44220CAD184A461204120C240413
S214001F704046A41862464A4371434643604600966C
S214001F80464670438046100C84468844E0444145EB
S214001F9005D9802149028C46009961440091019838
S214001FA003998446614499429B415B429946059851
S214001FB0434684461204120C1B049B1863449C463A
S214001FC0AB4683429B4140460A19CC44A242894113
S214001FD0E344CC45B6415C46000C80464942764216
S214001FE05B426418334398448C428941AB459B411D
S214001FF049425B4219430D1C009B4544EE1876028D
S214002000E50D2E43B346049B56021E43731E9E41A7
S2140020105B46D20D324366021643DB010AD5012326
S214002020334076081E435B46DB071E435B465B0871
S2140020309B465746634BFB18002B5ADD720709D0A8
S2140020400F223240042A05D0321DB242B6417642F3
S214002050B344161C5A46D20106D55A465A4B1A4065
S21400206080239346DB00FB18584A934234DD012454
S214002070029B00251C400026554B7DE680205B46D3
S2140020800003034208D0054206D105432D032D0B5D
S2140020904C46161C4E4B6FE65D4605432D032D0B36
S2140020A04B4B69E6504600F0A1FD031C2033272B5E
S2140020B000DCA6E65546083885400022ACE6281C1B
S2140020C000F094FD021C2032272A00DC75E6083852
S2140020D085400026AB467DE65A46F608520716436C
S2140020E05A4601245502029A5B052D0B5B0D1440DF
S2140020F042E6384DED1B382D0ADD0124029B0025F3
S2140021001C400026002337E6019B5746029391E7C2
S2140021101F2D25DC304B321C9C466744BE405B4678
S214002120BB40371CEA407E1EB74113433B431E1C90
S2140021305B46EB401D1C730709D00F233340042B6E
S21400214005D0331DB342B6417642AD191E1C2B0294
S21400215020D50124029B00251C40002601230BE607
S2140021605A461E4BDB1BDA40131C202D1CD01C4A83
S21400217094465A466744BA40171C3E43721E964120
S2140021801E4307230025334007D00F230025334086
S214002190042BD6D16B076D022D0B0124F6081E43C7
S2140021A0029B1C400023E7E50027E6E780255B4608
S2140021B001242D031D43019B2D0323401C1C2D0BC6
S2140021C0034BD9E5FF030000FFFFFFFEFE070000FC
S2140021D0FF07000002FCFFFF1E040000E2FBFFFFFB
S2140021E03E040000F0B54D4644465F465646F0B401
S2140021F00E1C111C3203520A470F1743C5001A0360
S2140022005800DB0F9946520A4B0F83B01A43CB0097
S2140022100193CF4B7400F60F640DB046400D984204
S21400222000D1E8E00123494659400B1C9E4200D1EC
S214002230B1E0261A002E00DC1CE1002842D1131C57
S21400224001990B4300D0E6E06B0700D18EE00F2328
S2140022502B40042B00D189E02A1DAA42AD418023E1
S214002260012641466D427F191B043B400E40151C5B
S214002270002B00D183E0B64B01349C4200D116E11E
S2140022803A1CB44BED081A40500764055202054349
S214002290120B640D002112030B0D1B056405120BB7
S2140022A01A436308AC4CF60714401C4364006408E9
S2140022B03443281C211C03B03CBC90469946A246D9
S2140022C0AB46F0BDA24B9C42BED080231B041A43F3
S2140022D0382E00DD03E11F2E00DD3FE12020831BAA
S2140022E09946131C49468B409C46019B6046F3402A
S2140022F003430198F2408840011C481E81410B436D
S214002300EB1A9D4280411D1CBA1A4042171A3B0226
S21400231000D4A8E07A02560A002E00D1CAE0301C8B
S21400232000F064FC031C083B1F2B00DDCBE02822DA
S214002330291C121AD1409E400A1C9D4032439C42E2
S21400234000DDC8E01C1B671C1F2F00DDEDE01F230F
S214002350291C1C1B131CA540A340F9406C1EA5415C
S214002360FA4019430D43171C00246DE7802301260D
S21400237042461B043B401640002B00D07BE7744BC4
S214002380ED0878070543FA089C423BD01203640523
S214002390120B640D7EE7231A9A46002B00DCA5E09C
S2140023A0002844D06A48844200D14DE780200004CB
S2140023B002435346382B00DC1CE1019B1A43511E96
S2140023C08A41D1B200224919A94280410D1CD21976
S2140023D0404217183B0246D55D4B01349C4200D163
S2140023E069E101205B4A6B083A4028401843D5074C
S2140023F00543570828E7131C01990B4300D111E742
S2140024004B4613E72B1C134351D080231B031A4360
S2140024101203120B3EE7013E002E00D080E0691A40
S2140024208D429B41BA1A5B42D71A0D1C6FE7101CEF
S214002430019B184300D107E701235B429C46E24418
S2140024405346002B00D002E1019BD2195919A9422C
S2140024509B415B42D7180D1CBCE76346034300D183
S21400246028E1071C65466B0700D0F0E601264346C8
S2140024701E4084E7002E00D081E0601C4005400D21
S214002480012800DC07E10199681A84466545B641D3
S214002490B81A7642861B300200D4A1E08C464D1B4B
S2140024A0AC458941D21B4942561A984634E7002269
S2140024B00025EFE6281C00F099FB2030031C083BA3
S2140024C01F2B00DC33E7021C283A95402A1C002507
S2140024D09C4200DC36E71F4FE41A1740B4E6019B27
S2140024E01A43511E8A41D3B2002209E7002B00D0BE
S2140024F001E1601C43055B0D012B00DCB0E0144BD2
S214002500984200D11EE1019BD2195919A9429B415C
S2140025105B42D2184908D5070D435708041C93E6BA
S2140025200B4B9C4200D0D3E68EE6211C131C1F39B1
S214002530CB40191C202F00D18EE03F231C1BA2404D
S21400254015436A1E954100270D4300248BE7C046BD
S214002550FF070000FFFF7FFFFFFF0F80331C101CEC
S214002560203BD840202E79D040239B1B9A40131C3A
S214002570019A1343591E8B4100220343C0E6002CE8
S21400258053D0C74CA04200D1B0E0802471428946A7
S214002590240427434946382900DDCDE01F2900DD05
S2140025A059E120243E1C611A8E408A46B0464946B0
S2140025B02E1CCE405146B4468D406446464649469B
S2140025C026436C1EA541CF4035430199D71B8C4648
S2140025D04D1BAC4592415242BF1A041C984696E6E3
S2140025E063466546334300D096E60026002700245F
S2140025F00025C4E61F2B61DC2020C31A9B46131C53
S21400260059468B4051469946019BCB409C464B46CB
S214002610604603439C465B46019999406346481EC4
S214002620814119435346DA40CDE63C1C2C435DD02D
S214002630F1438946002955D10199D21B8C464D1B82
S214002640AC4589414942571A041C98465FE69448AF
S214002650844200D0ADE6F7E5002271E7002387E765
S2140026603B1C2B43002C00D0DAE0002B00D113E1FA
S214002670131C01990B4300D1E6E54919A9429B4179
S214002680D2195B42D7183B0200D421E1854B0D1CC2
S2140026901F40041CD8E5381C2843002C40D10028D5
S2140026A000D083E0101C0199084303D0171C0D1CB2
S2140026B09846C9E500260027002560E65046131C0C
S2140026C02038C340181C5346202B00D1C1E04023BD
S2140026D051465B1A9A40019911434A1E91410022C5
S2140026E0014370E66E4CA04200D053E7171C019DD4
S2140026F0041C9846A8E5002C28D13C1C2C4300D18D
S2140027008AE0DB439A46002B00D082E0019BD21978
S2140027109C4665449D42894149425718041C59E627
S21400272000285BD1101C0199084300D1A4E0171CB7
S2140027300D1C98465A4C87E53D436F1EBD41002749
S214002740EDB242E7041C0027002518E6544CA042D0
S21400275062D0534680245B429A462404274353465D
S214002760382B00DD8EE01F2B00DD9DE02024E31AD1
S2140027709B463B1C59468B40514699462B1CCB40EA
S2140027809C464B46644623439C465B469D406346B8
S2140027906C1EA541CF401D43019BBF189C46654457
S2140027A09D4292415242BF18041C13E6101C019928
S2140027B0084300D148E5681A844685428041BE1A1F
S2140027C04042301A060200D447E68C464D1BAC4504
S2140027D08941D21B4942571A984635E5101C019983
S2140027E0084334D080247807ED08FF0824032843E4
S2140027F0274208D0D608264205D1C90852070A4300
S214002800101C371C9846FF00420F1743C500244C87
S2140028101AE5234CA042A2D1171C019D041C13E507
S214002820002B35D0131C01990B4310D08024780759
S214002830ED08FF08240328432742E4D0D3082342A8
S214002840E1D1C90852070A43101C1F1CDBE7144CD1
S214002850FAE400223FE74C463E1C203CE640494650
S214002860341C202932D04026761AB7403D436F1ECE
S214002870BD4100272543A8E680270026FF03084C15
S21400288000257CE53D436F1EBD410027EDB283E782
S214002890171C019D024CD7E4171C019DD4E4C046CA
S2140028A0FF070000FFFF7FFF54463B1C203CE34031
S2140028B01C1C5346202B0DD0402351465B1A9F40CC
S2140028C03D436F1EBD410027254365E70027CDE742
S2140028D00D1CC8E50027F3E70B0330B5134C1A0BA5
S2140028E04B00051C5B0DC90F0020A34210DD1048ED
S2140028F083420EDC80200F4C40030243E41A1F2C58
S2140029000ADD0D48C31ADA40131C484243405818E3
S21400291030BD0A4BC818FBE7281CE040084CA4460C
S21400292063449A40131C0343EFE7C046FE030000CF
S2140029301D0400003304000013040000FFFFFF7FA7
S214002940EDFBFFFF10B5041E10D000F04FF9144A3F
S214002950121A0A281ADC0B23211C1B1AD940153020
S2140029600B03520584401B0B520D01E0002200238E
S21400297000211B03201C1C0B0B0D1B052343094CBD
S2140029801205234013435B00590810BD031C0B3B84
S2140029909C40520523031B0B520D0024E8E7C0465B
S2140029A01E040000FFFF0F804200120E511C38B5B7
S2140029B0C9B243025D0AC40F012915DDE021890072
S2140029C08C466D071B0B62440021281C0D0D2D053F
S2140029D02B431C4D52052B40520813435B00E40763
S2140029E05B082343191C38BD002A15D1002D1FD0C3
S2140029F0281C00F0FBF80A281DDC0B232A1C1B1AD7
S214002A00DA40131C021C153295400F4A1B03121A9B
S214002A1052051B0B520DD7E7002D06D080221B0B4C
S214002A20120313436D07094ACEE7084A0023CBE793
S214002A3000220023C8E7031C0B3B9D402B1C0025EF
S214002A40E3E7C046FFFF0F8089030000FF07000092
S214002A5070B50B034D00440F6D0D5B0A23436C1CD1
S214002A606405C90FC200640D012C2ADD3B4C2C19ED
S214002A70FE2C1ADC002C35DD8001451EA841DB004B
S214002A800343520F13435A0704D00F221A40042A56
S214002A9000D004338022D2041A4027D00134FF2C01
S214002AA003D09B015B0AE4B201E0FF2400235B0233
S214002AB0E4055B0A23435B00C9075B080B43181C4D
S214002AC070BD002D06D113430ED100245B025B0AB5
S214002AD0E4B2ECE71A43E8D08020DB00800403432E
S214002AE0FF24D0E717340CDA05230024DB08FF2C7C
S214002AF0ECD1002B2DD08022D20313435B025B0A5D
S214002B00D5E78024164824042343401B1F280DDCE9
S214002B10144CA4466544AB401C1C131CAB405D1E05
S214002B20AB41C240234313430024ACE71E1C0E4CAB
S214002B30641BE640341C20280DD00C4884466544AF
S214002B40AB401D1C2A43531E9A41131C23430024EA
S214002B5099E70023ABE70025F4E7C04680FCFFFFBB
S214002B609E03000082FCFFFF7E030000A2FCFFFF26
S214002B708446101C62468C46191C634600E0C0461C
S214002B801FB500F0A9FA002801D40021C8421FBDD5
S214002B9010B500F0EDF94042013010BD10B500F060
S214002BA09BFA002801DB002010BD012010BDC046A6
S214002BB010B500F091FA002801DD002010BD0120BC
S214002BC010BDC04610B500F017FA002801DC002042
S214002BD010BD012010BDC04610B500F00DFA00284B
S214002BE001DA002010BD012010BDC0461C210123C3
S214002BF01B04984201D3000C10391B0A984201D3DB
S214002C00000A08391B09984201D30009043902A2B8
S214002C10105C40187047C04604030202010101011F
S214002C200000000000000000F0B544465F4656462F
S214002C304D46F0B41C1C85B0002900DAA9E00F1C34
S214002C400021061C8846101C191C002C00DA97E090
S214002C50341C3D1C82468946B94273D870D049461A
S214002C60504600F09FFA8346391C301C00F09AFA52
S214002C705B46181A031C8346203B9C4600D59CE006
S214002C800023002251460092019363469940019129
S214002C9051468140019B0091BB4200D983E000D1A0
S214002CA07EE0009A019B341C3D1CA41A9D4163469D
S214002CB0002B00DA9AE000260027029603970136DA
S214002CC09E400396012686400296002800D171E0B9
S214002CD00099019AD30799464B464E081E4357085B
S214002CE0002301220CE0AF4201D1A6420AD8A41B61
S214002CF0BD4124196D410138A4185D41002806D055
S214002D00AF42F0D9013824196D410028F8D12022AD
S214002D10029E039F5B46524236196F4199185AD459
S214002D20281CC8402C1C5B46DC40002968DB041CC1
S214002D308C40231C59468840021CB61A9F4103E06B
S214002D40B0428CD90026002741464B1E99410023ED
S214002D5000910193009A019B002554429D41331C2B
S214002D606340181C3B1C6B40191C009B019CC01840
S214002D70614105B03CBC90469946A246AB46F0BDC4
S214002D804346DB430C1C9846131C00215842A141C5
S214002D905EE7002746428F4101214942884652E7B6
S214002DA0B14200D87DE70026002702960397002848
S214002DB000D08DE7029E039FC6E720215346091ADE
S214002DC0CB400022191C0023009201934B468340FF
S214002DD00B4301935CE75A4620239B1A2A1C9A4011
S214002DE0201C131C5A46D04018439BE72026002779
S214002DF0331A0026029603970127DF40039761E700
S214002E005B4620215D46C91A031CAC40CB40191C0A
S214002E10231C0B438EE7C046F0B545464E46574644
S214002E20E0B4041C82B00D1C914698468B4262D8D2
S214002E305FD04146484600F0B5F9291C061C201C08
S214002E4000F0B0F92023311A5B428A46C81865D4D0
S214002E504B4683401F1C4B468B401E1CAF4258D827
S214002E6055D0A41BBD41002800DA77E000220023DD
S214002E700092019301328240019201238B4000931D
S214002E8000293CD0FB079846404672087B08024360
S214002E90012600270CE0AB4201D1A2420AD8A41AB0
S214002EA09D4124196D410139A4197D41002906D0A0
S214002EB0AB42F0D9013924196D410029F8D12022FE
S214002EC00098019953465242001969419E183AD417
S214002ED02F1CF7405346DD40002E29DB3C1CB44037
S214002EE0231C5446A7403A1C801A99410090019131
S214002EF005E082429DD900230024009301940098A7
S214002F00019902B01CBC90469946A246F0BDA34269
S214002F10A7D90022002300920193B1E720224B4656
S214002F20521AD3401A1C43468B401F1C174392E785
S214002F30534620245646E41A3B1CB540E3401C1C6E
S214002F402B1C2343CDE7524620239B1A2A1C9A406B
S214002F50271C131C5246D7401F43BBE720230022E2
S214002F60581A0023009201930132C240019284E76E
S214002F70F0B55F464D4644465646F0B41F035C0027
S214002F80DB0F99461B4B0E034D00C90F8446360BCC
S214002F906D0D8B4690463F0B640D9D420CD0154B35
S214002FA09C4210D00123A54214D0181C3CBC90466D
S214002FB09946A246AB46F0BD311C01230143F4D12D
S214002FC00C4B9C42EED13A430123002AEDD101235B
S214002FD0A542EAD1BE42E8D1C445E6D1CB4506D0EB
S214002FE0002DE2D13043031C581E8341DDE7002349
S214002FF0DBE7C046FF070000F0B5574645464E469D
S214003000E0B40F034E00C90F8A4632491D035C0028
S21400301084463F0B760D90462D0B640DDB0F8E42DB
S2140030200FD08C4239D0002E10D138434142414156
S2140030308946002C27D12A4325D1002000290ED10D
S21400304008E0391C01432ED1B44226D0002C0BD008
S2140030509A450DD05346594201231943081C1CBCFF
S21400306090469946A246F0BD2A43F3D09A45F1D140
S214003070A642EFDC1ADA504641424841012341425B
S2140030801943081CEBE74A46002AE1D0584258414B
S214003090012241421143081CE1E7291C114302D1D9
S2140030A0002EC2D0D4E702204042D8E7AF42D1D8A3
S2140030B009D00020AF42D2D25046414248410123B7
S2140030C040421843CBE7C445C4D80020C445F3D3D8
S2140030D0C5E7C046FF070000F0B55F464D464446CC
S2140030E056468046F0B4061C0803000B84462C485F
S2140030F04C001F035D00C90F640D8B4691463F0BC5
S2140031006D0DDB0F844212D0854225D0002C14D1E1
S21400311061460E4370424641002D35D0002E21D028
S21400312058425841012143420B43181C0EE06146A9
S214003130022031430AD1A5420ED0002D12D13A43C7
S21400314010D15B46594201231943081C3CBC9046EB
S2140031509946A246AB46F0BD391C02201143F5D174
S214003160002CD5D09B45ECD1AC42EADC05DBBC4557
S214003170E7D80FD00020BC45E8D258464142484127
S214003180414201200843E1E73A43C7D10020002E20
S214003190DCD1D6E7C845D4D80020C845EDD3D5E75E
S2140031A0FF07000010B5002903D1FFF71FFD2030F0
S2140031B002E0081CFFF71AFD10BDC0460122014BB5
S2140031C01A707047C020002008B5002001210CF0BE
S2140031D017FC00280DD0002001210CF025FC002053
S2140031E001210CF09FFA00200CF07CFA014B1B68C2
S2140031F0984708BDC420002070B582B0061C0D1C80
S214003200141C00202C490CF027FA3E2001A90BF0D4
S21400321037FC281C0021019A0023FDF705FB321C11
S2140032200023FDF7E1FA01225242D31780185941D4
S21400323000293DD121486843311CFDF719F9204B80
S2140032405860002C19D100221E4B1A701E4A1F4BC4
S2140032501A60002001210CF0E7FB00200021184A2C
S2140032600CF002FB14201A4900220CF009F9002089
S21400327001210CF043FA134A15E0144B1C600020A1
S21400328001210CF0D1FB002000210D4A0CF0ECFAD5
S21400329014200F4900220CF0F3F8002001210CF056
S2140032A02DFA002005E01378002BFCD0002000E06B
S2140032B0084802B070BDC046C834010040420F0046
S2140032C0E4010020C0200020BD310000C420002002
S2140032D0C931000080F100000020704710B5021CC4
S2140032E00001040E13041B0C0A48184304290BD1D2
S2140032F0FF20000302408020C00510430DF036FA80
S214003300E0400123184004E00DF03EFAE0400123BF
S214003310184010BD00F00F4008B5031C0A1C00043E
S214003320000C034908431901090E0DF023FA08BDE5
S21400333000F00F4008B5011CFF2000030840802362
S214003340DB0518430901090E0DF0FAF908BDC04661
S21400335008B5002812D0042912D10A4B0380012395
S214003360837000200849094A0CF0EEFE0020642114
S214003370642264230CF0E4FD002002E0044800E030
S214003380034808BD32F1FFFFD0300020CC340100E6
S21400339080F1000030B5C3B01D1C00234193479B4D
S2140033A0002B07D00020111C1A1C2B1C0CF018FF39
S2140033B0041C06E00020111C01AA2B1C0CF010FFB8
S2140033C0041C002041A90CF021FF0228F9D0002C93
S2140033D005D1489B002B04D01D80002002E0024847
S2140033E000E0002043B030BD81F10000002804D08A
S2140033F00268034B5A60002000E002207047C04677
S214003400D421002000B585B0644B1B780120002B2A
S21400341000D0C0E06248031C083B5A68614B00932A
S214003420614901918C4663440293604B0393C42127
S2140034305F4B02F0DFFB002800D0ACE05D48021CCA
S214003440D03A182108F096F9031E00D08AE05A48B0
S214003450021CE83A2C2108F0E9FD031E00D081E0AA
S2140034605648021C153AFF3A142109F0A9FA031E21
S21400347078D15348021C293AFF3A142109F034FA4D
S214003480031E6FD14F48021C553AFF3A202108F020
S2140034905FF9031E66D14C48021C3D3AFF3A1821DC
S2140034A009F08CFD002875D14848021C203A0C21F2
S2140034B002F05CF9031E55D14548021CD03A102193
S2140034C002F0BAFA031E4DD14248021C443A009359
S2140034D00193202102F058F9031E43D13E48021CF6
S2140034E0103A031C3C3B009300230193031C303B23
S2140034F00293031CE03B03935C21002302F002FBD3
S214003500002847D13548364BC218A02100F072FA81
S21400351000283FD1334B191C08318F229200995056
S214003520191CD83104329950191CF03108329950C0
S214003530191C1D31FF3108329950191C3131FF31E9
S214003540043A9950191C5D31FF31083A9950191CFC
S2140035504531FF3110329950191CA931FF31103214
S214003560995002E01020002B15D10C4B0121197048
S214003570002200205A701A819970D9700021597162
S21400358098711871FF2018495854D4231549CA5009
S214003590002000E0102005B000BDC04688240020B2
S2140035A0DC210020A0240020060400000C080000F7
S2140035B04C330100AC220020C4220020F022002060
S2140035C0042300203023002018230020502300204E
S2140035D07C2300205C2300208C230020E82300208E
S2140035E0F4FDFFFFD42100202B0C00002E4B1B788F
S2140035F0002B54D0A0231B01984240D01AD8802319
S214003600DB00984235D008D880239B0098422CD007
S2140036100133FF3398422AD043E0C023DB009842B0
S2140036202BD080231B0198422BD0A023DB0098428E
S21400363037D120E0E0235B01984228D008D8A023A9
S2140036405B0198421FD00133FF3398421DD028E01B
S2140036508023DB0198421ED0E2231B0298421CD036
S214003660E8235B0198421CD113E010481AE010488A
S21400367018E0104816E0104814E0104812E0104811
S21400368010E010480EE010480CE010480AE0104821
S21400369008E0104806E0104804E0104802E0002069
S2140036A000E000207047C04688240020DC2100206F
S2140036B0AC220020C4220020F02200200423002098
S2140036C01823002030230020502300205C230020F5
S2140036D07C2300208C230020E8230020A02200204A
S2140036E0F0B55F4656464D464446F0B483B00CAC43
S2140036F02688012800D9B0E0072B00D9AFE0002AC1
S21400370008D1002B00D0ACE00E9A13800F9A1370ED
S2140037100020A9E01F1E9346894600900AD1101C7F
S2140037200921FCF7A5FE84B258460921FCF726FFBE
S214003730C9B20AE0551E281C0921FCF799FE84B27E
S214003740281C0921FCF71AFFC9B2E300CB189BB26C
S214003750B94202D80E9A138002E0013B0E9A1380FB
S2140037600E9B1B88FB1A072213400F9A137004D077
S2140037700E9B1B8801330E9A13800E9B1B88B34248
S21400378002D8002B05D156E000230E9A13803A4843
S2140037906AE007239846002700229A46009C601E8F
S2140037A08441E3B201930126414600970D9BDD1943
S2140037B053465B1A9C464B46985C63461841C0B21B
S2140037C02870541C5C4527D24C44A04623784C1CD9
S2140037D0A3401843C0B228700F9B1B78002B05D05F
S2140037E03D1C01350E9B1B889D4215D2019B002572
S2140037F0341CAC40044201D00133DBB20135082D45
S214003800F6D1301C6446A04044462478204033401D
S2140038106446A340984226D1002902D1013292B2D2
S21400382008310137BFB2013292B20139C9B20E9BDC
S2140038301B88BB42B9D80F9A12780020002A13D0F2
S214003840013B0D998C46634408218A1AF731D14012
S2140038500A1C19780A401A7006E0084804E007486F
S21400386002E0064800E0064803B03CBC9046994695
S214003870A246AB46F0BDC04604E3000021E30000CC
S21400388002E30000F0B55F4656464D464446F0B4A7
S21400389083B0019094469A460CAB1F880D9C072374
S2140038A0021C9A43131E79D121700233021C1A405F
S2140038B0914675D0C90021706346DA00D3B29C46A3
S2140038C0002F5FD001220423019919408B46FB3359
S2140038D09846FE3B664694466246511E89B25A4654
S2140038E0002A08D0072F02D8FDB2002706E0083FBE
S2140038F0BFB2082502E0013FBFB208254A46002AAB
S2140039001CD00822501B42468240101C5246515C76
S2140039100140207841402170002D2AD000202278D6
S21400392051B2002903DA52007240227001E05200C0
S21400393022700130C0B2A842F1D11AE00822501B12
S2140039404246C240101C5246515C0140207841401D
S2140039502170002D0DD000202278134203D052088B
S2140039607240227001E0520822700130C0B2A842B4
S214003970F2D16246013292B29446002FACD14B4649
S214003980002B02D02378DB0823700020019BDB0786
S21400399009D522781F235340237004E0054802E02F
S2140039A0002F8FD1F1E703B03CBC90469946A24663
S2140039B0AB46F0BD21E3000070B5061C41180C4D67
S2140039C034786C40E4B223015C40E3B218092D0A57
S2140039D0454018024540DB005D4001368E42EFD17F
S2140039E0EB439BB213701B0A5370002070BDC04699
S2140039F0FFFF000030B5A0294FD1294B038082621B
S214003A000023C362436383630363C3630364436443
S214003A108364C364036502227F39425403314254EF
S214003A20233901814371C370837120240125055514
S214003A30C37702340355033403558377194C8483C4
S214003A40037181720482C1724482817316490183B4
S214003A5013218170413143544C3968240155013497
S214003A600355013403550134035501340355083416
S214003A700355013403550334015571314354013164
S214003A8043540131435401314354063943541C31E5
S214003A9043549333C254002000E0044830BDC0466F
S214003AA001400000EC13000050140000204000000D
S214003AB038B5041C0D1C2123C35C032B07D0806A79
S214003AC05E21002202F076FF031E00D081E0A06A8D
S214003AD02021002202F06EFF031E00D079E0002DA8
S214003AE002D0012D51D067E0E37F002B14D023894C
S214003AF0012B32D138480EF0FDFA384B1B68986817
S214003B000EF0B8F8A06A05F023FCFF23034003D0AC
S214003B10012B53D0031C5CE0E378002B1DD02389D7
S214003B20012B1AD1201C00F0CFFAFF230340842B70
S214003B3007D08C2B44D0822B44D0E0848123DB0139
S214003B4047E0A06A02F0D8FB031E42D1A28BA06A0F
S214003B50002102F0E9FB031E3BD1A378002B0DD019
S214003B60201C00F06FFDFF231B0203408022D201C1
S214003B70934229D0E0848123DB012AE0002325221A
S214003B80A354033AA354164B23E0164B62681A421A
S214003B901CD0A06A02F0B0FB031E1AD1201C00F055
S214003BA08FFAFF231B0203408022D20193420FD0DC
S214003BB0E0848123DB010CE00B4B0AE0084B08E0B5
S214003BC0031C06E0031C04E0031C02E0064B00E0B6
S214003BD0031C181C38BDC046A42F01006406002034
S214003BE08440000000FFFF002140000038B5051C9F
S214003BF0141C362900D12AE130D8102900D1D6E08D
S214003C0012D8032900D18CE005D8012900D17EE026
S214003C1000D879E07EE0052900D18CE000D287E06C
S214003C20062900D18AE034E1312900D1EDE009D837
S214003C30132900D111E1302900D1E2E0112900D08A
S214003C4027E1D7E0332900D1F1E000D2E9E03429BA
S214003C5000D1F2E0352900D1F3E01AE1832937D00C
S214003C601AD8432900D1B9E008D8412900D1ABE0E1
S214003C7000D9AFE0402900D1A0E00AE1602900D1D8
S214003C80F2E003D8442900D1AEE002E1802900D159
S214003C908AE082295CD0FCE0892910D007D88629E2
S214003CA04FD0882923D0842900D0F2E013E08B2956
S214003CB00BD007D38C2917D08D291CD0E9E0AA7128
S214003CC000200BE1EA70002008E16A71002005E19F
S214003CD0AA77002002E1FF231C40631E022B00D9B6
S214003CE0D9E004810020F9E0AA700020F6E0202345
S214003CF0EA540020F2E0531E9BB2012B00D9CCE020
S214003D002423EA540020E9E02A820020E6E06A82C2
S214003D100020E3E0724B9A4200D8C0E0AA8200205E
S214003D20DCE0704B9A4200D8BBE0EA820020D5E087
S214003D302A830020D2E06A830020CFE0AA830020F6
S214003D40CCE01F239A4300D0ADE004710020C5E00C
S214003D50531E9BB2022B00D9A7E02123EA54806AA7
S214003D605A2102F027FE031E00D0B7E0A86B0621FA
S214003D70221C08F0CBFD031E00D0AFE0686B0121CB
S214003D80221C08F07DF9031E00D0A7E0E86A012196
S214003D90221C07F001FD031E00D09FE0E86B012106
S214003DA0221C08F029FE99E0EA77002096E0FF231F
S214003DB01340012B7BD8AA7200208FE00C2A78D8FB
S214003DC06823EA54002089E00E2A74D86923EA544E
S214003DD0002083E06A23EA5400207FE0032A6CD8A0
S214003DE06B23EA54002079E0032A68D86C23EA544F
S214003DF0002073E0FF231340012B62D8EA720020F4
S214003E006CE07523EA54002068E0002A04D1002202
S214003E107623C254002061E001227623C25400209B
S214003E205CE00C2A4FD87823EA54002056E00E2A8D
S214003E304BD87923EA54002050E07A23EA54002035
S214003E404CE0032A43D87B23EA54002046E0032AAA
S214003E503FD87C23EA54002040E0FF231340012B88
S214003E6039D8AA73002039E0131C0C3B9BB2012BF7
S214003E7033D80D2A06D19322815C02230B43835448
S214003E8000202BE09322835C02218B438354002086
S214003E9024E0154822E0144820E013481EE01248AB
S214003EA01CE011481AE0104818E00F4816E00E48CB
S214003EB014E00D4812E00C4810E00B480EE00A48EB
S214003EC00CE009480AE0084808E0074806E006480B
S214003ED004E0054802E0044800E0034838BDC04658
S214003EE0AF4F0000C33B00002140000000B543294F
S214003EF000D1ADE02DD8132900D1C4E014D8042990
S214003F0000D1BCE006D8002900D180E0012900D10C
S214003F10A3E0CDE0102900D182E0112900D1A5E070
S214003F20062900D0C4E06EE0252900D1A2E009D819
S214003F30212900D195E0232900D1A8E0202900D02E
S214003F40B6E068E0412974D000D977E040296BD00C
S214003F50AEE0862942D011D881293AD008D8602907
S214003F6000D199E0802941D0442900D0A0E06AE041
S214003F70842920D043D8832919D099E08A2912D0E1
S214003F8003D888291BD01FD909E08C292AD002D350
S214003F908D292FD08CE043791380002089E0837927
S214003FA01380002085E0C3781380002081E0837FA3
S214003FB0138000207DE0037A1380002079E0202320
S214003FC0C35C1380002074E02523C35C13800020AC
S214003FD06FE02223C35C138000206AE0037913801D
S214003FE0002066E083781380002062E0C37F1380A1
S214003FF000205EE02423C35C1380002059E0C38CBD
S2140040001380002055E0838B1380002051E0038A44
S214004010138000204DE05423C35C1380002048E04A
S214004020837A1380002044E06823C35C138000205A
S2140040303FE06923C35C138000203AE06A23C35C38
S2140040401380002035E06C23C35C1380002030E032
S2140040506B23C35C138000202BE0438A1380002070
S21400406027E07423C35C1380002022E0C37A138009
S21400407000201EE08F23C35C1380002019E0038B12
S2140040801380002015E0837B1380002011E092232C
S214004090C35C138000200CE09323C35C9B0703D50E
S2140040A00D231380002004E00C231380002000E082
S2140040B0004800BD2140000008B500F035F808BDF6
S2140040C0004870472440000000222523C2540148BF
S2140040D07047C0468440000038B5041C0D1C002301
S2140040E025228354033A83548A000C4BD3589847AE
S2140040F0FF2303400ED10133AB401D1C2523E5549E
S214004100033BE05C213B834280414042044B9C469B
S214004110604402E0012B00D1024838BDEC2F0100BC
S214004120894000008540000038B5041C0D1C0021A5
S2140041302523C154A9000B4BCB58111C9847FF23CD
S214004140034006D10133AB401D1C2523E554064829
S21400415007E08D3B012B04D80123AB401D1C252313
S214004160E55438BDBC2F01008B40000010B5041C80
S214004170806A5621002202F01DFCFF230340232BF9
S21400418001D0002B02D1A06A02F0A0F810BDC046F4
S214004190F0B5474680B482B0061C806A02F0ACF8E0
S2140041A0031E74D1B06A00213B4A02F0BDF8031E1C
S2140041B06DD1012333812433F35CDB0730D5002235
S2140041C02523F254B06A012104F034FA031E5ED1AE
S2140041D0301CFFF7CBFF031E59D10025341C563484
S2140041E0FF27328AB06A352102F0E4FB002849D165
S2140041F0F06A211C07F090FD031C384001280AD005
S214004200122844D0F06A07F0DDFA031C3840122862
S2140042103DD00025E5E76B1CDDB2022DE1D935E087
S21400422000222523F254B06A022104F003FA031E8A
S2140042302DD1301CFFF79AFF031E28D100248123BE
S2140042409846B044371C8E37FF25728AB06A3521EF
S21400425002F0B0FB002817D1434600930197706B1D
S21400426000210022002308F09FF8031C28400128A4
S21400427003D012280BD00024E7E70134E4B2022C66
S214004280E3D903E0031C02E0031C00E00023181C33
S21400429002B004BC9046F0BDEC130000F0B55746E3
S2140042A04646C0B485B0041C0F1C0192002225238C
S2140042B0C254806A5F2102AB9A1D01F087FD009010
S2140042C0002800D0C1E002AB06331B88002B00D0CC
S2140042D09DE0A06A012104F0ADF9031E00D0B4E011
S2140042E0201CFFF743FF031E00D190E0ADE0002E38
S2140042F000D1A2E02523E35C52461A4200D0A0E09B
S214004300228AA06A352102F055FB002800D09CE0E6
S21400431002AB06331B88012B06D1A06A514604F077
S21400432089F9002803D090E002AB5246DA80201CC0
S21400433000F02CFA0090FF231840872807D125228A
S214004340A15C01230B43A3540135EDB275E012289E
S21400435073D158E02523E35C42461A4260D15246A8
S2140043601A4208D0628A3B4B9A4204D93A4B9C4682
S214004370624492B200E0628AA06A352102F01AFB1B
S214004380002862D1A06A414604F054F900285CD1A6
S214004390201C00F097FD0090FF231840872807D1C7
S2140043A02522A15C02230B43A3540135EDB23DE068
S2140043B012283BD129E0002D10D0002B97D0012DDC
S2140043C005D10123019A1370863300930EE0012D68
S2140043D004D9019B1D708823009307E0FF23009AF1
S2140043E01340012B26D00020002A2ED0009A101C45
S2140043F0FF231B021A4228D1FF20161C06408020ED
S214004400C001304321E000981FE000981DE0002521
S21400441001239A461E1C3E40013398461F4066E71D
S2140044202B1C00E02B1C002BD8D0C8E7002D00D09A
S2140044305DE7D3E784230093D8E70023002FBAD0A4
S21400444088E7002FEED15346B5E705B00CBC904682
S2140044509A46F0BD4C040000B4FBFFFF10B5041CE8
S214004460806A5621012202F0A5FAFF230340232B7F
S21400447001D0002B14D1A06A01F028FF021CFF23F4
S21400448003400A2B0BD00020002A09D0101CFF2165
S21400449009020A4204D18020C001184300E0014806
S2140044A010BDC04682400000F0B55F4656464D46F9
S2140044B04446F0B483B0051C8946171C9B46002270
S2140044C001AB1A802523C254033BC25400239846EE
S2140044D00024843308223A4092462122AA5C022A0B
S2140044E005D14246002A02D0052C00D180E0261CC9
S2140044F03A1CE240D20776D5A86A5F216B469A1D21
S21400450001F064FC002800D08BE06B4606331B8865
S214004510012B0BD1A31E012B08D90A335B005A5B73
S214004520A86A352102F046FA00287AD1B300404A3C
S214004530D15CA86A04F07EF8002872D1281CFFF728
S2140045408DFF00286DD1A86A622101AA01F03EFC09
S214004550002808D101AB1B88012B04D1A86A04F0FF
S21400456021FA00285DD16B4606331B88002B0CD140
S214004570A31E012B09D9331C08335B005A5BA86ABB
S214004580352102F017FA00284BD1B300294A9B5870
S214004590281C9847031CFF221040872816D1FE3A95
S2140045A0B240161C25216A5C1643F6B26E5442468B
S2140045B00132D2B2904672070AD55246002A07D078
S2140045C05A46414611700134E4B201E0122825D063
S2140045D04A46E240D20706D54246002A03D05A464B
S2140045E04146117004E00134E4B2052C00D874E7AB
S2140045F04246012A04D101235A4613700E4810E0A1
S2140046004246012A04D95B4642461A700B4808E027
S214004610FF221A40181C012A03D101E0181C00E0F2
S214004620074803B03CBC90469946A246AB46F0BD50
S21400463004300100D42F01008740000088400000AD
S2140046408440000030B583B0041C00226B46DA714B
S21400465003892132012B2FD12033C35C9A1E012AF5
S2140046600BD8017982786B460733FFF71DFF021CD3
S214004670FF21014012290CD16EE0012B67D1817811
S2140046806B46DA1DFFF70AFE021CFF2101401229C5
S21400469062D0E37F002B08D0A378002B05D0FF2341
S2140046A01340842B01D14AE02122FF231340872B9D
S2140046B002D1853B238102E02389022B25D1A378F2
S2140046C02522A25C13403CD05A1E1A423BD100223F
S2140046D05B080132D2B2002BFAD17F20002A3BD0F1
S2140046E0013AD5B2201C291CFFF7F6FC021CFF235A
S2140046F01840892805D1201C291C0022FFF714FD2C
S214004700021CFF231340122B1FD02389032B07D133
S2140047101E33E35C012B03D1201CFFF739FD021C7E
S2140047200020002A18D0101CFF231B021A4213D1A7
S214004730FF231340181C8023DB0118430CE00748B6
S2140047400AE0074808E0064806E0101C04E0C37FBD
S2140047502122002BD9D0A7E703B030BD8640000049
S21400476021400000FF2303400120002B0CD05A1FDD
S21400477092B2012A07D9023B9BB2002001229A423C
S2140047804041C0B200E001207047C04638B5041C66
S214004790002354228354827F01218A438277642235
S2140047A08354023A8354011C5631C06A07F0B4FAA7
S2140047B0051CFFF7D7FF2B1C002822D0FF231D4027
S2140047C0032D03D1A27F01231343A377A06A0721F9
S2140047D0FA22520002F0EEF82423E35C022B03D008
S2140047E02123E35C022B06D0E06A06F0EBFFFF23F2
S2140047F00340122B04D001225423E254024B00E063
S214004800031C181C38BDC04687400000F0B55F4644
S21400481056464D464446F0B48DB00AAB00220A9286
S2140048209A809A71837FDB0707D5837A002B04D1A1
S21400483000225433C254C84843E2071C2123C35CF9
S214004840022B0FD12233C35C012B0BD1806A0121CE
S21400485003F0F0FE031E00D033E2BB7FDB0700D57B
S21400486002E20CE23A8AB86A352102F0A3F8031E87
S21400487000D026E2B86A012103F0DCFE031E00D059
S2140048801FE2F86A391C563107F046FA031CFF226D
S2140048901040032807D1DE3ABA5C012A00D1D3E1E2
S2140048A001220692E3E1002255217A5401397A5416
S2140048B0069200282ED15623FB5C00220692002B7F
S2140048C000D0ECE1B86A2021013202F073F8031E32
S2140048D000D0F6E1391C5831386D3A1C623201F0CE
S2140048E0B7F8FF2303400CD101335522BB54013ADD
S2140048F0BB54323ABB54BA7F9A43BA778020C00181
S214004900DFE1032B00D0DCE1BB7F01221343BB7742
S2140049109248D6E1BA7A002A05D1B97F01220A4325
S214004920BA77181CCDE12122BA5C012A21D10128D0
S21400493017D102263D1C5635FF24B86A0021884A46
S21400494001F0F2FC002800D0BBE1F86A291C07F051
S214004950E3F9031C2040012803D1013EF6B2002EE5
S214004960EBD1BA7F01218A43BA77181E00D196E1AF
S214004970A7E1032800D192E1BA7F01218A43BA77E2
S214004980181C9EE1BA7F01231343BB77734898E156
S214004990059A9A4200D942E1BB7F01229343BB7736
S2140049A0704B9A46059A13019B1A98463B1C434443
S2140049B008933E1C5746C24600220F2308A98C4681
S2140049C063441A7000230AAC0F25654421229346DF
S2140049D004973A78039200940195F06A111C221C01
S2140049E006F02CFF031C5A46B25C012A00D05CE19C
S2140049F0FE320240012A00D05DE10223B846371C91
S214004A001E1CB86A0021564A01F08EFC002800D011
S214004A1057E12B7800940195F86A0399221C06F05A
S214004A200DFF031CFF221040012806D1013EF6B2FE
S214004A30002EE6D13E1C474634E03E1C4746FF2289
S214004A401A40032A2ED15B46F35C012B00D1FDE011
S214004A50B27F01231343B377B37A059A934200D803
S214004A60F6E02B7807221A40062A0DDC0133DBB26B
S214004A702B701A0907210B40013B063999400B1C85
S214004A80A15C0B43A35410E01B0901331B01DBB2EE
S214004A902B701B09013BDBB2E25C802149420A43D2
S214004AA0E25402E0002B00D0D4E02B78402B8FD1CC
S214004AB0069B002B19D1B37F01221A4215D1089B01
S214004AC050339B793E32934304D1049B1B78932B3F
S214004AD00BD105E0402B08D1049B1B78952B04D105
S214004AE00AAB1B78882B00D1B6E0049B1B78039397
S214004AF0059D5246B4186334F06A191C0AAA231C92
S214004B0007F05CF8021C2123F35C012B2DD1FE3349
S214004B101840012829D1FD3B9846FD339946231CB1
S214004B204446A8461D1CB06A00210D4A01F0FCFB55
S214004B30002800D0C5E0F06A03990AAA2B1C07F0EB
S214004B403DF8021C4B46184001280DD1013CE4B24A
S214004B50002CE8D116E0C0468540000081400000E9
S214004B60B80B00001C3001004546FF23134209D154
S214004B702B015B1BF3185833DB7A5B0704D4371C16
S214004B802E1C08E0101C9CE00137099B9F4200D0B9
S214004B9012E7371C2E1C002A41D133019B1BF91843
S214004BA05831FA186232F86A07F02AFA002800D05C
S214004BB087E0059B0133DBB21C1C0593BB7F0122FB
S214004BC01A4235D0BB7AA34232D9F86A06F0FAFD0B
S214004BD0002876D1621E13019B1AFB185833012257
S214004BE01A732101091B79185631F86A07F08EF8F6
S214004BF0021CFF2318400CD1059A13019B1AFB18C0
S214004C0050339B79002B0AD1BB7F01221343BB771D
S214004C1057E0032822D1BA7F01231343BB77079BB3
S214004C200133DBB21A1C0793BB7A934200D3AFE67C
S214004C30059B9B4654235A46FA54323BFA545B462D
S214004C400020002B3DD10BE021483AE0204838E018
S214004C50002036E0181C34E01E4832E0101C30E01D
S214004C601D482EE01A482CE000230693033300224A
S214004C7055217A5401397A54FF2018404AE6002319
S214004C805522BB54013ABB5415E6BB7A0022934624
S214004C900792124A033209925A46059278E6202372
S214004CA0FB5C002B00D16DE6EFE7FF2210400328E7
S214004CB000D0F7E6CCE6FF221040032800D0F1E64D
S214004CC0D0E70DB03CBC90469946A246AB46F0BD38
S214004CD08140000006400000854000001C300100B6
S214004CE030B58BB05423C35C8B4200D8D3E0002988
S214004CF000D0D2E0041C012B00D8D4E06423C35CAF
S214004D00012B00D0CFE0011C58316133C25C473B19
S214004D106B440093031C633301931A236B44029382
S214004D20C06A07AB06F0FEFF031E00D0C2E00022FA
S214004D306433E254B7E02123E35C032B07D0A06A78
S214004D405E21012201F036FE031E00D0B2E0682389
S214004D50E15C0133E25C0233E35C6C20205C009093
S214004D60206F0190E06B08F0EBF8031E00D0A1E086
S214004D7016336B44009315236B44019305AB0293E3
S214004D80E06B1921694406AA17236B4408F004F95E
S214004D90031E00D08EE02133E35C012B06D105AB69
S214004DA01B78082B02D9082205AB1A70A06B1923B2
S214004DB06B44197806AB1A7817236B441B786A2560
S214004DC0645D009416246C442478019415246C4485
S214004DD02478029405AC2478039407F04DFD69E02E
S214004DE0022B5CD0032B4DD11E33E35C012B58D134
S214004DF0A06A5E21012201F0DDFD031E5AD1683350
S214004E00E15C0133E25C0233E35C6C20205C0090E2
S214004E10206F0190E06B08F093F8031E4AD116331A
S214004E206B44009315236B44019305AB0293E06B30
S214004E301921694406AA17236B4408F0ADF8031E2F
S214004E4038D105AB1B78082B02D9082205AB1A709F
S214004E5019236B44197806AB1A7817236B441B7812
S214004E606A20205C00901620684400780190152087
S214004E7068440078029005A800780390A06B07F0BD
S214004E80FBFC17E00020002B14D12133E35C012B40
S214004E9010D109480EE009480CE008480AE0064828
S214004EA008E0074806E06323E35C5B069B0F012BE4
S214004EB096D140E70BB030BD854000002140000091
S214004EC08E40000030B583B0041C00237522835446
S214004ED0013A8354837F723A934383777623C35C85
S214004EE0021C813200920D320192406B002100229A
S214004EF007F05AFA051CFFF735FC00280CD0FF23F4
S214004F002B4203D0A27F02231343A3777422A35C11
S214004F100133A354024800E0281C03B030BDC0464D
S214004F2087400000F0B55F4656464D464446F0B40E
S214004F3085B0837F9B0707D5C37A002B04D1002258
S214004F407433C254B54861E1041C2123C35C022BB0
S214004F5018D12233C35C012B14D1806A022103F0DE
S214004F6069FB031E00D051E1636B9A8BA06A072190
S214004F7001F020FD031E00D048E1A27F920700D575
S214004F803CE15CE0628AA06A352101F013FD031E55
S214004F9000D03BE1A06A022103F04CFB031E00D0C8
S214004FA034E17533E25C0133E35C211C813100910E
S214004FB00D310191606B002107F0F6F9031CFF220A
S214004FC010403CD0DE3AA25C012A29D1012820D12B
S214004FD0022675257627A06A0021914A01F0A4F9D9
S214004FE0002800D012E1625DE35D211C8131009152
S214004FF00D310191606B002107F0D6F9031CFF22EA
S2140050001040012805D1013EF6B2002EE3D100E0A3
S2140050100323A27F02218A43A277181E0FD0F5E051
S214005020012800D1DAE0E27A002A08D100217432A1
S214005030A154A17F02220A43A277181CE6E00022B0
S214005040029274266946CA7302229046FD32914641
S2140050506A46D27BA255A27F41468A43A2770022A7
S21400506092460027013202998A4093464A461A40E1
S214005070012A48D0002B42D12433E35C022B16D100
S2140050805346002B13D0A35D013BD900C918490035
S214005090C91861187D31606B07F0E4FB606B07F0A0
S2140050A013F8031C4A461040122800D198E0A35D6E
S2140050B0D900C9184900CB18E0187D30E1188231B4
S2140050C004220CF0BEFEA35D0133DBB2A3555246AC
S2140050D00132D2B29246E27A9A4203D82222A354EE
S2140050E0002093E02423E35C012B0CD1606B06F0D8
S2140050F0EBFF031C4A461040122804D172E0A27F40
S21400510002231343A3777D1CEDB25D4514DAA25D3E
S2140051100237F9B2D3009B185B009B18E218813265
S214005120E3188E33606B07F095F8031C4A46104070
S214005130122859D02F1C99E7A37F42461A4239D02D
S214005140A35D002B06D0E27A9A420FD82222A354FF
S21400515000205BE0029B042B04D100221E33E254A5
S2140051602E4853E0029B0133DBB202935346002BDA
S21400517007D0606B06F0A8FF031C4A4610401228B2
S21400518034D0A15D7523E25C0133E35CC8004018AF
S2140051904000411860188130009061188E310191EE
S2140051A0606B029907F0F0F8031C4A46104012287C
S2140051B008D11DE07423E35C2222A3540020002BB8
S2140051C024D117E0029A042A00D841E77423E35C4E
S2140051D02222A3540020002B18D10DE0181C15E045
S2140051E0181C13E0181C11E0181C0FE0181C0DE02A
S2140051F0181C0BE0094809E0084807E02123E35C97
S214005200012B00D104E70320032309E705B03CBCCB
S21400521090469946A246AB46F0BDC0468540000083
S214005220B80B000030B58BB07423C35C8B4200D83B
S21400523087E00D1C041C013B994210DA7523C25C02
S2140052400133C35C06A90091272169440191406B94
S214005250002107F0A9F8FF230340122B78D0212362
S214005260E35C032B06D0A06A5E21012201F0A2FBBC
S214005270031E6DD1EB005B195B005B19E3181A1C6B
S21400528088320021D17182335B7ADB075BD5131C31
S2140052900122DA71E900491949004D196119813175
S2140052A065198835AA797823E35C7920205C00901C
S2140052B07B20205C01907C20205C0290201C90309B
S2140052C00390606B07F0B6F8031E41D105AB009360
S2140052D013236B44019312236B440293606B1721D4
S2140052E0694416226A4415236B4406F029FF031E00
S2140052F02ED12133E35C012B08D111336B441B788C
S214005300082B03D9082212236B441A70A06B1723AC
S2140053106B44197816236B441A7815236B441B7854
S2140053207A25645D009405AC2478019413246C44BB
S2140053302478029412246C442478039407F09CFA90
S21400534006E0044804E02123E35C0020032BA1D1FF
S2140053500BB030BD214000000048704724400000DC
S2140053600048704724400000004870472440000072
S2140053700048704724400000004870472440000062
S214005380004870472440000010B584B0026C932398
S214005390C15C6F3B194300230093031C94330193B5
S2140053A001330293101C0022002308F05BFC041C4F
S2140053B0FFF7D8F9002801D1201C00E0014804B00E
S2140053C010BDC04687400000F0B55F4656464D46C5
S2140053D04446F0B49BB0041C00231293139314931A
S2140053E015930A930B930C930D930E930F931093B0
S2140053F0119392228354837F823A93438377028B5E
S214005400806A352101F0D6FA031E00D088E1A06A32
S214005410042103F00FF9031E00D081E19323E15C21
S2140054206F3B194300230093231C943301930133ED
S2140054300293206C002218AB08F014FCFF230340F4
S214005440012B00D15FE1002B08D19221625C013272
S21400545062547039625C0132625461E19A1E031C28
S214005460012A00D95CE1A27F10231343A377A37B14
S214005470002B00D149E100230993002607939225CB
S2140054801033984631E1A27F41468A43A2779322A1
S214005490A15C8F3A1143079A0092DA00D318903332
S2140054A0E3181A1D019205330293206C002218ABF4
S2140054B008F0D8FB011C00239A46FF339B462227A0
S2140054C0B14656465B460B40012B1ED09A1E012A5B
S2140054D00DD8A27F10231343A3770AA94B465B007F
S2140054E00122B240101C5A5A02435A520DE0002BB9
S2140054F000D00CE1625D0132D2B26255E15D01314D
S214005500E155A17B914200D80AE10F2E1BD0635DC6
S214005510DA00D3189033E3181A1D0533472106A87E
S21400552084466144009117A9019142216144029189
S214005530206C002107F0DCFE011C01365B4618409B
S2140055401228BFD1E5E04E46002399469C467200DD
S2140055500AA9505A002800D1A8E00696059612AA75
S214005560331C975D0F2F00D9BBE008973841C20760
S2140055700DD471000122A4460C1C71E0059B0AA8FC
S214005580205A384102426BD006930897644607209B
S214005590079A10408446472106AB9946494408704E
S2140055A0002803D1D10818A8475428E0079AD20843
S2140055B092460822121A9346FF2259460A419146FD
S2140055C0524606AB48215B189A5C93464A465946B3
S2140055D00A409146089A824093464A4659460A43EC
S2140055E091465246494606A84823C0188154634649
S2140055F0042B04D918A95144089A1A414A70079AEC
S2140056000432D2B20792A07F10210143A177069BF5
S2140056105900012208988240914606AA10201218C6
S214005620525A4846131C834306A810228018435239
S2140056300F2F0ED1002112AA069BD1545A000AA899
S2140056401152002E69D00F3112AAD1540136F6B28B
S21400565047E07A1C12A9069BCA540136F6B240E00F
S2140056600F2F1CD106936446002E06D1A37F424618
S2140056709343A3770123099333E0A27F41468A43ED
S214005680A277079F043FFAB20792069B58000022B3
S2140056900AA9425212A9CA54013EF6B221E00137C5
S2140056A0FFB2102F00D069E764461AE0002E06D13C
S2140056B0A37F42469343A3770123099311E0A27F79
S2140056C041468A43A277079A043AD2B207927100FB
S2140056D00AAA4846885212AA61469155013EF6B279
S2140056E035E7A37F42461A4204D0635DA27B9A4206
S2140056F000D9C8E6099B002BF7D09223E35C002B69
S21400570009D10B4B0CE0031C0AE00A4B08E00B1C0B
S21400571006E00B1C04E0002302E001230993E0E707
S214005720181C1BB03CBC90469946A246AB46F0BD42
S214005730854000008140000010B59223C35C8B4278
S2140057400ED900290ED1041C011C9531006C0822CC
S21400575007F0F0FC031E06D1206C07F02BFF02E0DA
S214005760014800E0004810BD214000000C2906D189
S214005770044B0380426000230381002001E0A12047
S214005780400170470114000010B500281CD0002A04
S2140057901DD0A924640120291AD10E490180426037
S2140057A08360029BC360039B03610123837700230E
S2140057B0037543758375C375037643768376C37620
S2140057C003774377002403E0A924640100E0024C39
S2140057D0201C10BD011500002115000010B582B078
S2140057E04068049C009400F0C1F802B010BDC046AA
S2140057F010B582B004AC24784068009400F0DAF863
S21400580002B010BD30B583B000226B46DA800129A5
S2140058101FD80C1C051C00216B469A1D07F002FFC2
S214005820031E17D1002C04D06B46DA8840231A4397
S21400583004E06B4606331B88BF221A406B460633CD
S2140058401B880020934205D0281C002107F082FC0C
S21400585000E0014803B030BD2115000000B58BB054
S214005860002327226A4413701B226A4413701622F0
S2140058706A441380FF330B40032B06D8022B17D243
S214005880002B24D0012B04D001E0052B10D0081CDF
S2140058901EE01B236B44009306AB019316236B4458
S2140058A00293022127226A4407AB07F021FD0FE08E
S2140058B01B236B44009306AB019316236B440293A1
S2140058C0032127226A4407AB07F012FD00E00148D7
S2140058D00BB000BD0615000000B583B000226B4675
S2140058E0DA80FF230B40802B3DD101216B469A1DA9
S2140058F007F098FE011E36D16B46DA88111CA039D7
S21400590089B280233F292BD9112A24D010D8032A04
S2140059101FD006D80133012A22D00133022A1FD015
S2140059201DE084230F2A1BD00133102A18D016E05E
S214005930142A12D006D88723122A11D00133132A2C
S2140059400ED00CE08A23152A0AD00133402A07D04D
S21400595005E0832304E0862302E0892300E0062393
S214005960A82149011943081C03B000BD30B585B015
S214005970041C1D1C03AB202018705A70201CFFF757
S21400598041FF031E14D1201C0221A222520007F060
S214005990E1FB031E0CD10095089B0193201C0021FF
S2140059A003AA022307F022FB011C201CFFF794FF2A
S2140059B005B030BDF0B587B0041C0D1C1E1C0CAB2A
S2140059C01F78002104910E236B44198005A921201D
S2140059D008704A70201C291CFFF714FF021E27D1EE
S2140059E0201C0221134A07F0B5FB031E20D10093AA
S2140059F00193201C8021090205AA023307F0F6FA5B
S214005A00031E15D1BBB204AA00920E226A4401926C
S214005A10201C8021C901321C07F0E8FA011C002D69
S214005A2003D0201CFFF71AFF011C201CFFF754FFB1
S214005A3007B0F0BD204E0000102904D1034B0380B0
S214005A404260002001E0E12040017047011C000098
S214005A5070B586B0061C0D1C141C0022059203AB04
S214005A60782119705A709A70DA701A715A719A7190
S214005A70406875392422FF3205F08EFE031E2FD1B2
S214005A8005AB009301947068002103AA072306F073
S214005A90A1F8031E24D173681B7D022B07D123882F
S214005AA0062B18D1059B1B78DB0616D502E023884B
S214005AB0062B14D10598037833724378737200234B
S214005AC0C2189278F1188A72EA540133042BF7D17F
S214005AD02380002004E0034802E0024800E001487A
S214005AE006B070BD061C000008B500230371837065
S214005AF0C370C38003812430002138220CF0AAF939
S214005B00002008BD10B5041CE92040015C290ED118
S214005B10201C07492180E2602361029B6361039B8E
S214005B20A361049BE361059B2362FFF7DDFF10BDC5
S214005B30011D000008B5B0300821012200230AF03C
S214005B409BFF08BD70B582B0061C0C1C151C742388
S214005B50C35C002B3ED15533C35CFF2B22D10F21F3
S214005B606B46DA1D03F010F9031E41D16B46DA7955
S214005B7008231A43301C0F2103F0A4F8031E37D164
S214005B80301C14216B46DA1D03F0FEF8031E2FD1DD
S214005B906B46DA7902231A43301C142103F092F87C
S214005BA0031E25D10D2C0AD1301C00212A1C04F01E
S214005BB01BFC031E1CD100225633F25413E0301C8B
S214005BC001212A1C04F010FC031E11D101225633B9
S214005BD0F25408E00D2903D100225623C25402E0F5
S214005BE001225623C2540C34640034196580002008
S214005BF002B070BDF0B583B0041C151C08AA40CADC
