S02900004E666372646C69624578315F4261736963446973634C6F6F705F7333326B3131362E7372656351
S21400000000380020110400006D0400006D0400009C
S21400001000000000000000000000000000000000DB
S2140000200000000000000000000000006D0400005A
S21400003000000000000000006D040000C130010058
S21400004015190100211901002D19010039190100A7
S214000050451901006D0400006D0400006D040000E9
S2140000606D0400006D0400006D0400006D040000C7
S2140000706D0400006D0400006D0400006D040000B7
S2140000806D0400006D0400006D0400006D040000A7
S2140000906D0400006D0400006D0400006D04000097
S2140000A06D0400006D040000752101006D04000061
S2140000B06D0400006D0400006D0400006D04000077
S214000400FFFFFFFFFFFFFFFFFFFFFFFFFE7FFFFF78
S21400041072B610490F4A0F4B0E4C0E4D0D4E0D4F37
S214000420B846B946BA46BB46BC460B490B4A521AB2
S214000430013A05DD0020042308601944043AFBDA7B
S21400044007488546074880470748804762B613F046
S214000450BBF9FEE700000000000000200038002086
S2140004600038002085010100A9010100FEE7C04612
S214000470002243088B4274D303098B425FD3030ADE
S2140004808B4244D3030B8B4228D3030C8B420DD3F1
S214000490FF22090212BA030C8B4202D3121209027F
S2140004A065D0030B8B4219D300E0090AC30B8B42BD
S2140004B001D3CB03C01A5241830B8B4201D38B036B
S2140004C0C01A5241430B8B4201D34B03C01A524110
S2140004D0030B8B4201D30B03C01A5241C30A8B4253
S2140004E001D3CB02C01A5241830A8B4201D38B023E
S2140004F0C01A5241430A8B4201D34B02C01A5241E2
S214000500030A8B4201D30B02C01A5241CDD2C30953
S2140005108B4201D3CB01C01A524183098B4201D3CF
S2140005208B01C01A524143098B4201D34B01C01ABA
S214000530524103098B4201D30B01C01A5241C30832
S2140005408B4201D3CB00C01A524183088B4201D3A1
S2140005508B00C01A524143088B4201D34B00C01A8D
S2140005605241411A00D20146524110467047FFE7F9
S21400057001B5002000F0FCF802BDC0460029F7D007
S21400058003B5FFF775FF0EBC4243891A1847C046ED
S21400059003460B437FD4002243088B4274D30309DF
S2140005A08B425FD3030A8B4244D3030B8B4228D380
S2140005B0030C8B420DD3FF22090212BA030C8B42A6
S2140005C002D31212090265D0030B8B4219D300E046
S2140005D0090AC30B8B4201D3CB03C01A5241830BCB
S2140005E08B4201D38B03C01A5241430B8B4201D37B
S2140005F04B03C01A5241030B8B4201D30B03C01AA4
S2140006005241C30A8B4201D3CB02C01A5241830A1D
S2140006108B4201D38B02C01A5241430A8B4201D34C
S2140006204B02C01A5241030A8B4201D30B02C01A76
S2140006305241CDD2C3098B4201D3CB01C01A5241DD
S21400064083098B4201D38B01C01A524143098B4266
S21400065001D34B01C01A524103098B4201D30B014F
S214000660C01A5241C3088B4201D3CB00C01A524174
S21400067083088B4201D38B00C01A524143088B4239
S21400068001D34B00C01A5241411A00D201465241D2
S214000690104670475DE0CA0F00D04942031000D3F1
S2140006A04042534000229C4603098B422DD3030A46
S2140006B08B4212D3FC22890112BA030A8B420CD356
S2140006C0890192118B4208D3890192118B4204D37F
S2140006D089013AD0921100E08909C3098B4201D3FF
S2140006E0CB01C01A524183098B4201D38B01C01A39
S2140006F0524143098B4201D34B01C01A52410309B0
S2140007008B4201D30B01C01A5241C3088B4201D35E
S214000710CB00C01A524183088B4201D38B00C01A0B
S2140007205241D9D243088B4201D34B00C01A5241E2
S214000730411A00D20146634652415B10104601D36F
S2140007404042002B00D54942704763465B1000D3F9
S214000750404201B5002000F00BF802BD0029F8D099
S21400076003B5FFF715FF0EBC4243891A1847C0466B
S2140007707047C0468446081C6146FFE71FB500F078
S21400078011FC002801D40021C8421FBD10B500F09E
S21400079095FB4042013010BD10B500F003FC002868
S2140007A001DB002010BD012010BDC04610B500F0D2
S2140007B0F9FB002801DD002010BD012010BDC04659
S2140007C010B500F0A5FB002801DC002010BD0120BC
S2140007D010BDC04610B500F09BFB002801DA0020D3
S2140007E010BD012010BDC046002B11D1002A0FD12C
S2140007F0002900D1002802D00021C943081C07B4F4
S214000800024802A14018029003BDC04665FFFFFFE4
S21400081003B4684601B5029800F082F8019B9E4634
S21400082002B00CBC7047C046F0B54F4646460504BD
S2140008302D0C2C1CC0B41704160C3F0C9946030C48
S2140008407C4375435F4373437D19260CAD199C4664
S214000850AF4203D980235B029846C4444B465143BB
S214000860434324042E0C240C2D0466442C195918DA
S2140008708919201C0CBC90469946F0BD9E2110B5E7
S214000880C905041CFFF7A6FF002803D1201C00F0B2
S2140008907FFE10BD9E21201CC90500F0FBFC00F069
S2140008A077FE80231B069C466044F2E738B500229C
S2140008B00C4B041C0D1C02F08FF9002804D1201CE0
S2140008C0291C02F009F838BD064B0022201C291C02
S2140008D001F088FC02F000F880231B069C4660446A
S2140008E0F1E7C0460000E041F0B583B0161C1F1CBF
S2140008F00090019102F098F9041C0D1C221C2B1C80
S214000900301C391CFFF790FF009A019B121A8B418E
S2140009100899201C0A604B60291C03B0F0BDC04635
S214000920F0B5141C83B01D1C0090019102F074FAFF
S214000930221C2B1C061C0F1CFFF776FF009A019B3F
S214000940121A8B410899301C0A604B60391C03B0A0
S214000950F0BDC046F8B54A00430244004E02C50F3B
S214000960240E281C9B09120EC90FB7098D4240D0D1
S214000970A01A002800DC84E0002A1CD1002F5CD1DD
S2140009805A0704D00F221A40042A00D004338022CB
S214000990D2041A40281C002A24D00134FF2C00D18F
S2140009A07BE09B015B0AE4B25B02E4055B0A23433F
S2140009B0C0071843F8BDFF2CE2D08022D2041743AC
S2140009C001261B2808DC391C20223E1CC140101AB8
S2140009D08640771EBE410E439B1B5A0133D4281C0B
S2140009E05A07CFD1DB08FF2C1ED05B025B0AE4B2AD
S2140009F0DAE7A11A002957DD002A3AD0FF2CBFD02B
S214000A008022D204174301261B2972DD9B195A0146
S214000A10E5D50134FF2C00D187E001218A4A194030
S214000A2013405B080B43ABE7002B36D08022D20383
S214000A3013435B025B0AFF24B6E7013800283FD168
S214000A40DB1B5A01CBD59B019E09301C02F0CEF869
S214000A5005388640844223DC001B1F24321C431CBE
S214000A60201ADA408640131C741EA6410024334325
S214000A7086E7002F00D183E70139002950D1DB1922
S214000A80C5E7002820D1621CD2B2012A5EDDDE1B3B
S214000A90720128D5FE1A0D1CD7E7FF24002383E732
S214000AA0694B241A33406BE7002958D1621CD1B237
S214000AB001293CDDFF2A37D0FB185B08141C5FE7D2
S214000AC0FF2C00D07CE75BE7002C1ED0FF2A23D04B
S214000AD08024E404404223431B285BDD0123FB1AE9
S214000AE0141C0D1CADE7002EAFD1002300200024FF
S214000AF078E73A1CCA40944620223E1C511A8E4083
S214000B006246771EBE41164380E7002B3ED0C043A8
S214000B100028E4D0FF2ADFD13B1CFF240D1C2FE762
S214000B20FF2C00D06FE72BE7FF2400235AE7002CAA
S214000B305AD1002B7FD0002F00D121E7DB195A01B4
S214000B4000D44CE7404A0134134019E7002C15D175
S214000B50002B2FD1002F5DD03B1C0D1C10E7002C66
S214000B6021D1002B53D0C943002904D0FF2A4BD0F3
S214000B701B2957DD0123DB19141C48E7002B22D163
S214000B80002F4AD03B1C0D1CFF24F9E63B1C141C0E
S214000B900D1CF5E61D1C2024C540201A8340581E57
S214000BA083412B439BE7FF2A2ED08024E40449424E
S214000BB02343DDE7002F00D1E2E6DA1B50013CD5E7
S214000BC0FB1A0D1CDCE6FF24002F00D1D8E680229D
S214000BD0DB08D203134204D0FE08164201D1331CB0
S214000BE00D1CDB00FF24CBE6002B0DD0FF24002FCE
S214000BF000D1C5E68022DB08D2031342F1D0FE08FE
S214000C001642EED1331CECE73B1CFF24B8E63B1C37
S214000C10141CB5E6231C0020E4E6802300209B0479
S214000C20FF24DFE61E1C2024CE40611A8B40591E8E
S214000C308B4133439FE73B1CA2E6131E00D0CEE653
S214000C4000230020CEE6C046FFFFFFFBF0B5564669
S214000C504D465F464446F0B443024500C70F83B096
S214000C608A465C0A2E0EB94641D0FF2E26D0802337
S214000C701B042343DC00002398469B467F3E5346D6
S214000C805B025D0A53465A00DB0F120E9A4639D0B5
S214000C90FF2A33D080231B042B43DD0000237F3A3A
S214000CA05146B21A46467940081C01921E430F2E42
S214000CB000D976E07E4AB6009659B746002C30D169
S214000CC008239846063B9B46D9E780230021DB0392
S214000CD0FF245B02E4055B0AC90723430B43181C89
S214000CE003B03CBC90469946A246AB46F0BD002CED
S214000CF028D104239846033B9B46C0E7002D1FD10E
S214000D00022302E0002D11D10123B21A50464646B6
S214000D10784001921E430F2E27D86649B60089599F
S214000D208F460C239846093B9B46A8E7281C01F0F3
S214000D305DFF7622431F52429D40121A0023AFE702
S214000D400323ADE7201C01F051FF431F9C40762390
S214000D505B421E1A002398469B4690E70025D14624
S214000D609B465B464846022B6FD10121FF2401407B
S214000D700023AEE77E23019A5B429B1A1B2B6DDD98
S214000D8001214B46194000240023A2E78023DB0301
S214000D901C4249D18023DB0323435B025B0A391CD8
S214000DA096E763016D01AB4237D389461A200121CD
S214000DB05B1B01241E1C49005B00002E01DBAB42BE
S214000DC001D35B1B214301380028F3D1581E834111
S214000DD00B431D1C019C7F34002CCBDD6B0704D01D
S214000DE00F232B40042B00D004352B0104D5019A89
S214000DF0314B8032141C1D40FE2C07DD4B46012172
S214000E00FF241940002364E7251CAAE701214A466F
S214000E10AB015B0AE4B211405BE7019A8946013AEE
S214000E2001921B200021C4E71D4207D023435B022A
S214000E305B0A391C4CE700256302ABD58023DB0335
S214000E402B435B025B0A514642E7032B25D0012B5E
S214000E50C0D101210024014000233AE7291CD940D3
S214000E602B1C019A9E3293405D1EAB410B435A07E2
S214000E7004D00F221A40042A00D004335A0105D5A4
S214000E804B46012101241940002322E701214A464E
S214000E909B015B0A114000241BE7802301214A4680
S214000EA0DB032B435B020A405B0A111C10E7C046BB
S214000EB02053010060530100FFFFFFF7430270B5A7
S214000EC042004C005D0AC30F4802120E460A240E6A
S214000ED0C90FFF2A05D0FF2C08D00120A2420BD054
S214000EE070BD0120002DFBD1FF2CF6D10120002E75
S214000EF0F6D10120A242F3D1B542F1D18B4205D002
S214000F00002AEDD1281C431E9841E9E70020E7E7B8
S214000F10F0B543024D024A0044005E0A240EC30F99
S214000F206D0A120EC90FFF2C0DD0FF2A31D0002CEF
S214000F300DD177427741002A23D1002D21D1002000
S214000F40002F0BD107E0002E28D1FF2A21D0002A3F
S214000F5005D08B4207D0584201231843F0BD002D20
S214000F60F9D08B42F7D19442F5DC04DBAE42F2D8DE
S214000F700020AE42F2D25842434101205B42184361
S214000F80ECE7002FE5D048424141012049420843A2
S214000F90E4E7002D02D1002CCBD0DAE70220404255
S214000FA0DCE7C0464302F0B542004C005E0AC30FC1
S214000FB04802120E450A240EC90FFF2A0FD0FF2C36
S214000FC01AD0002A10D177427741002C29D0002F62
S214000FD017D0484241410120494208430BE0022015
S214000FE0002E08D1FF2C07D0002C0AD1002D08D1E6
S214000FF0584201231843F0BD0220002DFBD1002AE1
S214001000E1D08B42F4D1A242F2DC04DBAE42EFD850
S2140010100020AE42EFD25842434101205B421843C3
S214001020E9E7002DD3D10020002FE4D1E0E7C04649
S214001030F0B55F4656464D464446F0B44502460077
S214001040C40F83B00F1C6D0A360EA34645D0FF2E84
S21400105025D080231B041D4300239A46ED007F3EC7
S21400106001937B025B0A98467800FB0F000E9946B8
S21400107040D0FF2838D0802342461B041343DB00B1
S214001080984600237F384A46019F30186240411C2C
S2140010901F430F2F69D87D4EBF00F659B746002D67
S2140010A045D108230193063B9A46DAE79346534612
S2140010B0022B2FD15B46012400251C40FF236D0226
S2140010C0DB056D0AE4071D432543281C03B03CBC22
S2140010D090469946A246AB46F0BD002D2CD104237F
S2140010E00193033B9A46BCE743465A4253410322C8
S2140010F0D31AC8E742460123002AC4D0404601F06E
S21400110075FD4246431F9A4076235B42181A904666
S2140011100023B8E7032B00D1ADE0012B00D08CE014
S2140011205B4654461C40E4B200230025C7E70C2368
S2140011300193093B9A4694E7281C01F057FD762652
S214001140431F9D4000237642361A01939A4688E74D
S21400115080250024ED03FF23B1E74546CB469A469B
S214001160A5E7454693469A46A1E743462C041B0C42
S2140011709C46230C444626041C1C360C2F0C744339
S214001180351C66467D4373437743EB18260C9E1941
S214001190B54203D980235B029C466744240433048B
S2140011A0240C1B199D016C1EA5419B0E360C2B436F
S2140011B0BD19AD011D432B0104D5012368081D4050
S2140011C00543081C031C7F33002B2CDD690704D065
S2140011D00F212940042900D00435290103D52C4BC2
S2140011E01D40031C8033FE2B17DD0124FF23144013
S2140011F0002564E78020C003054209D04346034229
S21400120006D1454605436D026D0A4C46FF2356E758
S21400121005436D026D0AFF2351E70124AD016D0AF7
S214001220DBB214404BE77E235B421B1A1B2B07DD09
S214001230012400231440002541E7081C5A46C1E754
S2140012409E30291C8540D940681E85410D436B079A
S21400125004D00F232B40042B00D004356B0104D59B
S214001260012401231440002529E70124AD016D0A5D
S2140012701440002323E78023DB031D4301245B4641
S2140012806D0223401C1C6D0AFF2318E7A0530100C3
S214001290FFFFFFF7F8B54A00430244004D02C00FB7
S2140012A0240E061C9B09120EC90FAD09FF2A00D199
S2140012B075E001277940884250D0A01A002800DC4B
S2140012C08FE0002A1ED1002D00D075E05A0704D00A
S2140012D00F221A40042A00D0043380220120D204B0
S2140012E01A403040002A32D00134FF2C00D184E06E
S2140012F09B015B0AE4B25B02E4055B0A2343C0077A
S2140013001843F8BDFF2CE1D08022D20415431B28D9
S2140013107ADD01255B1B5A015DD59B019F09381CB0
S21400132001F064FC05388740844269DC001B1F24FA
S2140013303A1C431C201ADA408740131C7C1EA74127
S21400134000243B43C2E7131E45D100230020DB08E0
S214001350FF2C28D05B025B0AE4B2CCE7A11A002976
S2140013605BDD002A2ED0FF2CB0D08022D20415439D
S2140013701B2974DC2F1C2022CF40511A8D40691E79
S2140013808D413D435B195A0125D50134FF2C74D09D
S21400139001217E4A194013405B080B4396E7002D57
S2140013A000D088E785E7002B27D08022D20313439E
S2140013B05B025B0AFF249EE701380028AAD0FF2CB8
S2140013C0A5D183E7002D00D180E701390029D9D0C7
S2140013D0FF2CCDD17AE75A0700D079E701203040BC
S2140013E0B5E7002825D1621CD2B2012A55DD5F1B65
S2140013F07A012DD5EF1A0E1C91E7FF2400237AE719
S214001400624B241A3B4061E7291C2022C140101A77
S2140014108540681E85410D437CE7002946D1621C45
S214001420D1B201292BDDFF2A26D0EB185B08141C4D
S2140014304CE7002C15D0FF2A1AD08024E404404242
S21400144023431B284DDD0123EB1A141C0E1C62E7F8
S214001450002F00D063E700230020002477E7012553
S21400146090E7002B39D0C0430028EDD0FF2AE8D102
S2140014702B1CFF240E1C29E7FF24002367E7002C03
S2140014805AD1002B7FD0002D00D11FE75B195A01DF
S214001490A1D53E4A0134134018E7002C15D1002B85
S2140014A02FD1002D5ED02B1C0E1C0FE7002C21D157
S2140014B0002B54D0C943002904D0FF2A4CD01B2946
S2140014C058DD01235B19141C5DE7002B23D1002D8A
S2140014D04BD02B1C0E1CFF24F8E62B1C141C0E1CD9
S2140014E0F4E61E1C2024C640201A8340581E834162
S2140014F03343A9E7FF2A2FD08024E404494223433C
S214001500DDE7002D00D1E1E65A1B500100D41AE7B2
S214001510EB1A0E1CDAE6FF24002D00D1D6E6802258
S214001520DB08D203134204D0ED08154201D12B1C70
S2140015300E1CDB00FF24C9E6002B0DD0FF24002D77
S21400154000D1C3E68022DB08D2031342F1D0ED08B7
S2140015501542EED12B1CECE72B1CFF24B6E62B1C09
S214001560141CB3E6231C0020F1E6802300209B0415
S214001570FF24ECE61F1C2024CF40611A8B40591E26
S2140015808B413B439EE72B1CA0E6C046FFFFFFFBBC
S2140015904202510A4200C30F120E00207E2A0DDDC1
S2140015A09D2A0CDC802000040143952A0ADC962044
S2140015B0821AD1400A1C58424240D0187047034A4B
S2140015C09818FBE7963A91400A1CF4E7FFFFFF7F66
S2140015D010B5041E35D001F009FB9E21091A962984
S2140015E009DC082830DD021C231C083A93405B0205
S2140015F05B0AC8B220E099290CDD0522231C121ACA
S214001600D3401A1C031C1B339C40231C5C1EA341A6
S21400161013431C1C052801DD431F9C400F4B234031
S214001620620704D00F221440042C00D004335A0161
S2140016300ED49B015B0AC8B25B025B0AC005184366
S21400164010BD00200023F7E763025B0AC8B2F3E789
S2140016509F21024A091A1340EBE7C046FFFFFFFB33
S214001660F0B5454657464E4694464C000A03C90F09
S214001670E0B488460E1C1903470FC500480A6146A9
S214001680490F01436046520A1743C0005A00640DD2
S214001690520DDB0F8446984500D1A7E0A01A00281B
S2140016A000DC01E1002A3DD163460B4300D0D4E0C4
S2140016B06B0700D188E00F232B40042B00D183E07A
S2140016C02A1DAA42AD4180236D427F191B043B4070
S2140016D04646151C002B00D17CE0CC4B01349C42C6
S2140016E000D1FDE03A1CCA4BED081A4050076405CD
S2140016F052020543120B640D002112030B0D1B054D
S2140017006405120B1A436308C24CF60714401C43C8
S214001710640064083443281C211C1CBC904699466F
S214001720A246F0BDB94B9C42C2D080231B0419438D
S214001730382800DDECE01F2800DD21E120220E1C09
S2140017406346121A9640C340334366469640321CA0
S214001750561EB24113430A1CC240EB1A9D42B641C4
S2140017601D1CBA1A7642971B3B0200D497E07A02F9
S214001770560A002E00D1B6E0301C01F037FA031CE2
S214001780083B1F2B00DDB7E09E40371C28262A1C8E
S214001790361AF240161C9D403E439C4200DDB2E0E5
S2140017A01C1B621C1F2A00DDD8E01F23291C1C1BE3
S2140017B0331CA540A340D1406C1EA541D64019431A
S2140017C00D43371C002473E780231B043B4046462A
S2140017D000D082E78D4BED0878070543FA089C4257
S2140017E032D012036405120B640D85E7A31A002B92
S2140017F000DC94E0002A3CD0844A944200D157E7AB
S214001800802212041143382B00DC05E1634619439D
S214001810481E81410022C8B24019A8429B41051CBF
S214001820D2195B42D7183B0239D5784B01349C421B
S21400183000D14CE10120764A6B083A402840184314
S214001840D5070543570833E72B1C134348D080239E
S2140018501B031A431203120B4EE70138002878D1F7
S2140018606346EE1AB5429B417A1A5B42D71A351C7C
S2140018707AE7021C0A4300D11AE7013B002B00D08E
S214001880F2E04019A8429B41CA195B42D718051CD2
S214001890C9E7131C334300D118E1171C351C464614
S2140018A06B0700D007E795E700287AD1621C52053F
S2140018B0520D012A00DCFBE06246AA1A9542B641A8
S2140018C09146781A7242861A320200D493E0624633
S2140018D0551BAC458041CF1B40423E1A984648E710
S2140018E00022002508E7281C01F080F92030031CA0
S2140018F0083B1F2B00DC47E7283885402E1C0025B8
S2140019009C4200DC4CE7424AE41A1640371CCFE6FD
S214001910634619434B1E99410022CBB21DE7002BAC
S21400192000D0F2E0601C43055B0D012B00DCA4E058
S214001930364B984200D121E163465C19AC429B418C
S214001940CF195B42FA186408D50725435708041CCC
S214001950AEE62E4B9C4200D0EAE6A9E6211C331CDC
S2140019601F39CB40191C202A00D182E03F231C1BC4
S214001970A64035436E1EB54100270D4300248EE772
S214001980031C0E1C203BDE40202874D040231B1A6C
S21400199099400B1C62461343591E8B410022334369
S2140019A0DBE6002C50D0194CA24200D1A8E08024DF
S2140019B0240440422743382800DDD9E01F2800DDF4
S2140019C039E120243E1C241AA640B0462E1CA1460F
S2140019D0C640444626434C46A5406C1EA541C7401B
S2140019E035436046451BCF1BAC45894149427F1AAB
S2140019F0141C9846B8E64B464D46334300D0B8E62E
S214001A000026002700240025E4E6C046FF07000065
S214001A10FFFF7FFFFFFF0F801F2B5BDC2022081CD1
S214001A20D21A9040814660469246D8404A461043B5
S214001A308146524660469040021C501E82414846EF
S214001A4010430A1CDA40E7E63C1C2C4358D0C0433F
S214001A50002851D16046451BAC458041CF1B404213
S214001A603F1A141C98467FE68F4A944200D0CAE676
S214001A701EE600267DE700238CE73B1C2B43002C4C
S214001A8000D0BDE0002B00D1F5E063460B4300D14B
S214001A900EE663465B19AB428041CA1940421718EE
S214001AA03A0200D4FCE0814A1D1C17400134FFE5D1
S214001AB03A1C2A43002C51D1002A00D085E0624609
S214001AC00A4303D00F1C65469846F1E5002600271A
S214001AD000257FE6181C0A1C2038C240202B00D1A7
S214001AE0A7E04020C01A8140081C63461843411EE8
S214001AF08841104300228FE66B4CA24200D05AE782
S214001B000F1C6546141C9846D2E5002C3AD1381CAA
S214001B10284371D0DB43002B18D0634882426BD039
S214001B20382B00DD9DE01F2B00DDA7E020203C1CAD
S214001B30C01A8440A1462C1C8246DC40484604431A
S214001B4050468540681E8541DF402543654465450F
S214001B509B417F185B42FF18141C64E6002A19D1CB
S214001B6062460A4377D00F1C654698464E4C9FE562
S214001B703D436F1EBD410027EDB232E7041C00272F
S214001B80002527E64848824236D0802000045B4283
S214001B900743C5E762460A4349D08024ED08780724
S214001BA0FA0824032843224209D0CE08264206D14A
S214001BB062464F07381CD20810439846321CD200A3
S214001BC0470F1743C500384C72E562460A4300D1FA
S214001BD06EE56246AE1AB5429241781A5242821AB1
S214001BE0100200D455E66246551BAC458041CA1B20
S214001BF04042171A98465BE50F1C6546141C57E5CD
S214001C00002B34D063460B4311D08024ED087807B0
S214001C10FA08240328432242D1D0CB082342CED14F
S214001C2062464F07381CD20810431A1CC7E71E4CE2
S214001C303EE5002059E7041C3E1C203CE640341CD0
S214001C4020282BD04026301A87403D436F1EBD41CA
S214001C5000272543C5E680270026FF03124C0025F3
S214001C60B8E53D436F1EBD410027EDB26EE70F1C81
S214001C7065460D4C1CE50F1C654619E51C1C381CFA
S214001C80203CE040041C202B0CD04020C31A9F4070
S214001C903D436F1EBD410027254357E70027D4E785
S214001CA01D1CFCE50027F3E7FF070000FFFF7FFF92
S214001CB0F0B55F4656464D464446F0B4051C061C35
S214001CC0080387B099464F00030BCC0F92469B46FD
S214001CD07F0D019467D06C4B9F4236D080205B46C8
S214001CE040031843C0006B0F1843684B83469C465E
S214001CF000239846EE00674400934B4649461D0372
S214001D00C90F5B0052462D0B5B0D894600D16EE075
S214001D105D498B4264D080205C4940038C4600219C
S214001D200543ED00500F0543D20063444846FF18B4
S214001D307B1C9A46009B604002900B430F2B00D9F9
S214001D40ACE053489B00C3589F465B461D4300D0FB
S214001D5082E00823009300239B4602330026984621
S214001D60CBE7029B01934346022B59D10124002561
S214001D700026019B1C40444B00212D030A0D120532
S214001D802D0B1543434A1B0515401D436D00E40704
S214001D906D082543301C291C07B03CBC904699466C
S214001DA0A246AB46F0BD2B434ED05B46002B00D17F
S214001DB085E1584600F01AFF021C2823291C9B1AAE
S214001DC0161C5846D940083EB0400B1CB54003438D
S214001DD09B462E1C0023304F0093BF1A98468CE774
S214001DE0514629432ED10025002202219EE7514666
S214001DF0294323D0002D00D154E1281C00F0F6FE24
S214001E00031C28215046C91A1A1CC8405146083AD5
S214001E10914095400A1C05431F480021C31A85E7D8
S214001E20032B00D1C2E1012B00D06DE14446019B9B
S214001E3000251C40E4B2002300269DE70025002272
S214001E40012173E7032171E70423009300239B46D7
S214001E5001330026984650E70C230093093B98462A
S214001E604BE7802500242D030026074B84E74B46CE
S214001E70AB46161C0193884675E7029BAB46161CBC
S214001E80019388466FE7C046FF07000001FCFFFF8E
S214001E90E0530100FFFF0F800DFCFFFF330C3604FC
S214001EA0360C9C46331C140C1204120C53439846F2
S214001EB0634653439946634663430193331C414646
S214001EC06343090C4B445B18994505D980204002B2
S214001ED08146019949440191190C03914146090430
S214001EE0090C1B045B1804932B0C9846331C2D041A
S214001EF0290C4B43604600934346654658435E4371
S214001F00009B4D431B0C9946AE194E448446B54281
S214001F1003D980235B029946CC44350C2B1C0398CE
S214001F20634484460593009B36041B041B0CF3187D
S214001F309C446046039058460504060C280C8446CC
S214001F405043351C81466046654344434846000C72
S214001F508346724314195C44A24203D9802252027B
S214001F6093465D44220CAD184A461204120C240413
S214001F704046A41862464A4371434643604600966C
S214001F80464670438046100C84468844E0444145EB
S214001F9005D9802149028C46009961440091019838
S214001FA003998446614499429B415B429946059851
S214001FB0434684461204120C1B049B1863449C463A
S214001FC0AB4683429B4140460A19CC44A242894113
S214001FD0E344CC45B6415C46000C80464942764216
S214001FE05B426418334398448C428941AB459B411D
S214001FF049425B4219430D1C009B4544EE1876028D
S214002000E50D2E43B346049B56021E43731E9E41A7
S2140020105B46D20D324366021643DB010AD5012326
S214002020334076081E435B46DB071E435B465B0871
S2140020309B465746634BFB18002B5ADD720709D0A8
S2140020400F223240042A05D0321DB242B6417642F3
S214002050B344161C5A46D20106D55A465A4B1A4065
S21400206080239346DB00FB18584A934234DD012454
S214002070029B00251C400026554B7DE680205B46D3
S2140020800003034208D0054206D105432D032D0B5D
S2140020904C46161C4E4B6FE65D4605432D032D0B36
S2140020A04B4B69E6504600F0A1FD031C2033272B5E
S2140020B000DCA6E65546083885400022ACE6281C1B
S2140020C000F094FD021C2032272A00DC75E6083852
S2140020D085400026AB467DE65A46F608520716436C
S2140020E05A4601245502029A5B052D0B5B0D1440DF
S2140020F042E6384DED1B382D0ADD0124029B0025F3
S2140021001C400026002337E6019B5746029391E7C2
S2140021101F2D25DC304B321C9C466744BE405B4678
S214002120BB40371CEA407E1EB74113433B431E1C90
S2140021305B46EB401D1C730709D00F233340042B6E
S21400214005D0331DB342B6417642AD191E1C2B0294
S21400215020D50124029B00251C40002601230BE607
S2140021605A461E4BDB1BDA40131C202D1CD01C4A83
S21400217094465A466744BA40171C3E43721E964120
S2140021801E4307230025334007D00F230025334086
S214002190042BD6D16B076D022D0B0124F6081E43C7
S2140021A0029B1C400023E7E50027E6E780255B4608
S2140021B001242D031D43019B2D0323401C1C2D0BC6
S2140021C0034BD9E5FF030000FFFFFFFEFE070000FC
S2140021D0FF07000002FCFFFF1E040000E2FBFFFFFB
S2140021E03E040000F0B54D4644465F465646F0B401
S2140021F00E1C111C3203520A470F1743C5001A0360
S2140022005800DB0F9946520A4B0F83B01A43CB0097
S2140022100193CF4B7400F60F640DB046400D984204
S21400222000D1E8E00123494659400B1C9E4200D1EC
S214002230B1E0261A002E00DC1CE1002842D1131C57
S21400224001990B4300D0E6E06B0700D18EE00F2328
S2140022502B40042B00D189E02A1DAA42AD418023E1
S214002260012641466D427F191B043B400E40151C5B
S214002270002B00D183E0B64B01349C4200D116E11E
S2140022803A1CB44BED081A40500764055202054349
S214002290120B640D002112030B0D1B056405120BB7
S2140022A01A436308AC4CF60714401C4364006408E9
S2140022B03443281C211C03B03CBC90469946A246D9
S2140022C0AB46F0BDA24B9C42BED080231B041A43F3
S2140022D0382E00DD03E11F2E00DD3FE12020831BAA
S2140022E09946131C49468B409C46019B6046F3402A
S2140022F003430198F2408840011C481E81410B436D
S214002300EB1A9D4280411D1CBA1A4042171A3B0226
S21400231000D4A8E07A02560A002E00D1CAE0301C8B
S21400232000F064FC031C083B1F2B00DDCBE02822DA
S214002330291C121AD1409E400A1C9D4032439C42E2
S21400234000DDC8E01C1B671C1F2F00DDEDE01F230F
S214002350291C1C1B131CA540A340F9406C1EA5415C
S214002360FA4019430D43171C00246DE7802301260D
S21400237042461B043B401640002B00D07BE7744BC4
S214002380ED0878070543FA089C423BD01203640523
S214002390120B640D7EE7231A9A46002B00DCA5E09C
S2140023A0002844D06A48844200D14DE780200004CB
S2140023B002435346382B00DC1CE1019B1A43511E96
S2140023C08A41D1B200224919A94280410D1CD21976
S2140023D0404217183B0246D55D4B01349C4200D163
S2140023E069E101205B4A6B083A4028401843D5074C
S2140023F00543570828E7131C01990B4300D111E742
S2140024004B4613E72B1C134351D080231B031A4360
S2140024101203120B3EE7013E002E00D080E0691A40
S2140024208D429B41BA1A5B42D71A0D1C6FE7101CEF
S214002430019B184300D107E701235B429C46E24418
S2140024405346002B00D002E1019BD2195919A9422C
S2140024509B415B42D7180D1CBCE76346034300D183
S21400246028E1071C65466B0700D0F0E601264346C8
S2140024701E4084E7002E00D081E0601C4005400D21
S214002480012800DC07E10199681A84466545B641D3
S214002490B81A7642861B300200D4A1E08C464D1B4B
S2140024A0AC458941D21B4942561A984634E7002269
S2140024B00025EFE6281C00F099FB2030031C083BA3
S2140024C01F2B00DC33E7021C283A95402A1C002507
S2140024D09C4200DC36E71F4FE41A1740B4E6019B27
S2140024E01A43511E8A41D3B2002209E7002B00D0BE
S2140024F001E1601C43055B0D012B00DCB0E0144BD2
S214002500984200D11EE1019BD2195919A9429B415C
S2140025105B42D2184908D5070D435708041C93E6BA
S2140025200B4B9C4200D0D3E68EE6211C131C1F39B1
S214002530CB40191C202F00D18EE03F231C1BA2404D
S21400254015436A1E954100270D4300248BE7C046BD
S214002550FF070000FFFF7FFFFFFF0F80331C101CEC
S214002560203BD840202E79D040239B1B9A40131C3A
S214002570019A1343591E8B4100220343C0E6002CE8
S21400258053D0C74CA04200D1B0E0802471428946A7
S214002590240427434946382900DDCDE01F2900DD05
S2140025A059E120243E1C611A8E408A46B0464946B0
S2140025B02E1CCE405146B4468D406446464649469B
S2140025C026436C1EA541CF4035430199D71B8C4648
S2140025D04D1BAC4592415242BF1A041C984696E6E3
S2140025E063466546334300D096E60026002700245F
S2140025F00025C4E61F2B61DC2020C31A9B46131C53
S21400260059468B4051469946019BCB409C464B46CB
S214002610604603439C465B46019999406346481EC4
S214002620814119435346DA40CDE63C1C2C435DD02D
S214002630F1438946002955D10199D21B8C464D1B82
S214002640AC4589414942571A041C98465FE69448AF
S214002650844200D0ADE6F7E5002271E7002387E765
S2140026603B1C2B43002C00D0DAE0002B00D113E1FA
S214002670131C01990B4300D1E6E54919A9429B4179
S214002680D2195B42D7183B0200D421E1854B0D1CC2
S2140026901F40041CD8E5381C2843002C40D10028D5
S2140026A000D083E0101C0199084303D0171C0D1CB2
S2140026B09846C9E500260027002560E65046131C0C
S2140026C02038C340181C5346202B00D1C1E04023BD
S2140026D051465B1A9A40019911434A1E91410022C5
S2140026E0014370E66E4CA04200D053E7171C019DD4
S2140026F0041C9846A8E5002C28D13C1C2C4300D18D
S2140027008AE0DB439A46002B00D082E0019BD21978
S2140027109C4665449D42894149425718041C59E627
S21400272000285BD1101C0199084300D1A4E0171CB7
S2140027300D1C98465A4C87E53D436F1EBD41002749
S214002740EDB242E7041C0027002518E6544CA042D0
S21400275062D0534680245B429A462404274353465D
S214002760382B00DD8EE01F2B00DD9DE02024E31AD1
S2140027709B463B1C59468B40514699462B1CCB40EA
S2140027809C464B46644623439C465B469D406346B8
S2140027906C1EA541CF401D43019BBF189C46654457
S2140027A09D4292415242BF18041C13E6101C019928
S2140027B0084300D148E5681A844685428041BE1A1F
S2140027C04042301A060200D447E68C464D1BAC4504
S2140027D08941D21B4942571A984635E5101C019983
S2140027E0084334D080247807ED08FF0824032843E4
S2140027F0274208D0D608264205D1C90852070A4300
S214002800101C371C9846FF00420F1743C500244C87
S2140028101AE5234CA042A2D1171C019D041C13E507
S214002820002B35D0131C01990B4310D08024780759
S214002830ED08FF08240328432742E4D0D3082342A8
S214002840E1D1C90852070A43101C1F1CDBE7144CD1
S214002850FAE400223FE74C463E1C203CE640494650
S214002860341C202932D04026761AB7403D436F1ECE
S214002870BD4100272543A8E680270026FF03084C15
S21400288000257CE53D436F1EBD410027EDB283E782
S214002890171C019D024CD7E4171C019DD4E4C046CA
S2140028A0FF070000FFFF7FFF54463B1C203CE34031
S2140028B01C1C5346202B0DD0402351465B1A9F40CC
S2140028C03D436F1EBD410027254365E70027CDE742
S2140028D00D1CC8E50027F3E70B0330B5134C1A0BA5
S2140028E04B00051C5B0DC90F0020A34210DD1048ED
S2140028F083420EDC80200F4C40030243E41A1F2C58
S2140029000ADD0D48C31ADA40131C484243405818E3
S21400291030BD0A4BC818FBE7281CE040084CA4460C
S21400292063449A40131C0343EFE7C046FE030000CF
S2140029301D0400003304000013040000FFFFFF7FA7
S214002940EDFBFFFF10B5041E10D000F04FF9144A3F
S214002950121A0A281ADC0B23211C1B1AD940153020
S2140029600B03520584401B0B520D01E0002200238E
S21400297000211B03201C1C0B0B0D1B052343094CBD
S2140029801205234013435B00590810BD031C0B3B84
S2140029909C40520523031B0B520D0024E8E7C0465B
S2140029A01E040000FFFF0F804200120E511C38B5B7
S2140029B0C9B243025D0AC40F012915DDE021890072
S2140029C08C466D071B0B62440021281C0D0D2D053F
S2140029D02B431C4D52052B40520813435B00E40763
S2140029E05B082343191C38BD002A15D1002D1FD0C3
S2140029F0281C00F0FBF80A281DDC0B232A1C1B1AD7
S214002A00DA40131C021C153295400F4A1B03121A9B
S214002A1052051B0B520DD7E7002D06D080221B0B4C
S214002A20120313436D07094ACEE7084A0023CBE793
S214002A3000220023C8E7031C0B3B9D402B1C0025EF
S214002A40E3E7C046FFFF0F8089030000FF07000092
S214002A5070B50B034D00440F6D0D5B0A23436C1CD1
S214002A606405C90FC200640D012C2ADD3B4C2C19ED
S214002A70FE2C1ADC002C35DD8001451EA841DB004B
S214002A800343520F13435A0704D00F221A40042A56
S214002A9000D004338022D2041A4027D00134FF2C01
S214002AA003D09B015B0AE4B201E0FF2400235B0233
S214002AB0E4055B0A23435B00C9075B080B43181C4D
S214002AC070BD002D06D113430ED100245B025B0AB5
S214002AD0E4B2ECE71A43E8D08020DB00800403432E
S214002AE0FF24D0E717340CDA05230024DB08FF2C7C
S214002AF0ECD1002B2DD08022D20313435B025B0A5D
S214002B00D5E78024164824042343401B1F280DDCE9
S214002B10144CA4466544AB401C1C131CAB405D1E05
S214002B20AB41C240234313430024ACE71E1C0E4CAB
S214002B30641BE640341C20280DD00C4884466544AF
S214002B40AB401D1C2A43531E9A41131C23430024EA
S214002B5099E70023ABE70025F4E7C04680FCFFFFBB
S214002B609E03000082FCFFFF7E030000A2FCFFFF26
S214002B708446101C62468C46191C634600E0C0461C
S214002B801FB500F0A9FA002801D40021C8421FBDD5
S214002B9010B500F0EDF94042013010BD10B500F060
S214002BA09BFA002801DB002010BD012010BDC046A6
S214002BB010B500F091FA002801DD002010BD0120BC
S214002BC010BDC04610B500F017FA002801DC002042
S214002BD010BD012010BDC04610B500F00DFA00284B
S214002BE001DA002010BD012010BDC0461C210123C3
S214002BF01B04984201D3000C10391B0A984201D3DB
S214002C00000A08391B09984201D30009043902A2B8
S214002C10105C40187047C04604030202010101011F
S214002C200000000000000000F0B544465F4656462F
S214002C304D46F0B41C1C85B0002900DAA9E00F1C34
S214002C400021061C8846101C191C002C00DA97E090
S214002C50341C3D1C82468946B94273D870D049461A
S214002C60504600F09FFA8346391C301C00F09AFA52
S214002C705B46181A031C8346203B9C4600D59CE006
S214002C800023002251460092019363469940019129
S214002C9051468140019B0091BB4200D983E000D1A0
S214002CA07EE0009A019B341C3D1CA41A9D4163469D
S214002CB0002B00DA9AE000260027029603970136DA
S214002CC09E400396012686400296002800D171E0B9
S214002CD00099019AD30799464B464E081E4357085B
S214002CE0002301220CE0AF4201D1A6420AD8A41B61
S214002CF0BD4124196D410138A4185D41002806D055
S214002D00AF42F0D9013824196D410028F8D12022AD
S214002D10029E039F5B46524236196F4199185AD459
S214002D20281CC8402C1C5B46DC40002968DB041CC1
S214002D308C40231C59468840021CB61A9F4103E06B
S214002D40B0428CD90026002741464B1E99410023ED
S214002D5000910193009A019B002554429D41331C2B
S214002D606340181C3B1C6B40191C009B019CC01840
S214002D70614105B03CBC90469946A246AB46F0BDC4
S214002D804346DB430C1C9846131C00215842A141C5
S214002D905EE7002746428F4101214942884652E7B6
S214002DA0B14200D87DE70026002702960397002848
S214002DB000D08DE7029E039FC6E720215346091ADE
S214002DC0CB400022191C0023009201934B468340FF
S214002DD00B4301935CE75A4620239B1A2A1C9A4011
S214002DE0201C131C5A46D04018439BE72026002779
S214002DF0331A0026029603970127DF40039761E700
S214002E005B4620215D46C91A031CAC40CB40191C0A
S214002E10231C0B438EE7C046F0B545464E46574644
S214002E20E0B4041C82B00D1C914698468B4262D8D2
S214002E305FD04146484600F0B5F9291C061C201C08
S214002E4000F0B0F92023311A5B428A46C81865D4D0
S214002E504B4683401F1C4B468B401E1CAF4258D827
S214002E6055D0A41BBD41002800DA77E000220023DD
S214002E700092019301328240019201238B4000931D
S214002E8000293CD0FB079846404672087B08024360
S214002E90012600270CE0AB4201D1A2420AD8A41AB0
S214002EA09D4124196D410139A4197D41002906D0A0
S214002EB0AB42F0D9013924196D410029F8D12022FE
S214002EC00098019953465242001969419E183AD417
S214002ED02F1CF7405346DD40002E29DB3C1CB44037
S214002EE0231C5446A7403A1C801A99410090019131
S214002EF005E082429DD900230024009301940098A7
S214002F00019902B01CBC90469946A246F0BDA34269
S214002F10A7D90022002300920193B1E720224B4656
S214002F20521AD3401A1C43468B401F1C174392E785
S214002F30534620245646E41A3B1CB540E3401C1C6E
S214002F402B1C2343CDE7524620239B1A2A1C9A406B
S214002F50271C131C5246D7401F43BBE720230022E2
S214002F60581A0023009201930132C240019284E76E
S214002F70F0B55F464D4644465646F0B41F035C0027
S214002F80DB0F99461B4B0E034D00C90F8446360BCC
S214002F906D0D8B4690463F0B640D9D420CD0154B35
S214002FA09C4210D00123A54214D0181C3CBC90466D
S214002FB09946A246AB46F0BD311C01230143F4D12D
S214002FC00C4B9C42EED13A430123002AEDD101235B
S214002FD0A542EAD1BE42E8D1C445E6D1CB4506D0EB
S214002FE0002DE2D13043031C581E8341DDE7002349
S214002FF0DBE7C046FF070000F0B5574645464E469D
S214003000E0B40F034E00C90F8A4632491D035C0028
S21400301084463F0B760D90462D0B640DDB0F8E42DB
S2140030200FD08C4239D0002E10D138434142414156
S2140030308946002C27D12A4325D1002000290ED10D
S21400304008E0391C01432ED1B44226D0002C0BD008
S2140030509A450DD05346594201231943081C1CBCFF
S21400306090469946A246F0BD2A43F3D09A45F1D140
S214003070A642EFDC1ADA504641424841012341425B
S2140030801943081CEBE74A46002AE1D0584258414B
S214003090012241421143081CE1E7291C114302D1D9
S2140030A0002EC2D0D4E702204042D8E7AF42D1D8A3
S2140030B009D00020AF42D2D25046414248410123B7
S2140030C040421843CBE7C445C4D80020C445F3D3D8
S2140030D0C5E7C046FF070000F0B55F464D464446CC
S2140030E056468046F0B4061C0803000B84462C485F
S2140030F04C001F035D00C90F640D8B4691463F0BC5
S2140031006D0DDB0F844212D0854225D0002C14D1E1
S21400311061460E4370424641002D35D0002E21D028
S21400312058425841012143420B43181C0EE06146A9
S214003130022031430AD1A5420ED0002D12D13A43C7
S21400314010D15B46594201231943081C3CBC9046EB
S2140031509946A246AB46F0BD391C02201143F5D174
S214003160002CD5D09B45ECD1AC42EADC05DBBC4557
S214003170E7D80FD00020BC45E8D258464142484127
S214003180414201200843E1E73A43C7D10020002E20
S214003190DCD1D6E7C845D4D80020C845EDD3D5E75E
S2140031A0FF07000010B5002903D1FFF71FFD2030F0
S2140031B002E0081CFFF71AFD10BDC0460122014BB5
S2140031C01A707047C020002008B5002001210EF0BC
S2140031D08BFE00280DD0002001210EF099FE002065
S2140031E001210EF013FD00200EF0F0FC014B1B68D1
S2140031F0984708BDC420002070B582B0061C0D1C80
S214003200141C00202C490EF09BFC3E2001A90DF05A
S214003210ABFE281C0021019A0023FDF705FB321C9B
S2140032200023FDF7E1FA01225242D31780185941D4
S21400323000293DD121486843311CFDF719F9204B80
S2140032405860002C19D100221E4B1A701E4A1F4BC4
S2140032501A60002001210EF05BFE00200021184AB3
S2140032600EF076FD14201A4900220EF07DFB002099
S21400327001210EF0B7FC134A15E0144B1C60002029
S21400328001210EF045FE002000210D4A0EF060FDE3
S21400329014200F4900220EF067FB002001210EF0DB
S2140032A0A1FC002005E01378002BFCD0002000E0F5
S2140032B0084802B070BDC0462C59010040420F00BD
S2140032C0EC010020C0200020BD310000C4200020FA
S2140032D0C931000080F100000020704710B5021CC4
S2140032E00001040E13041B0C0A48184304290BD1D2
S2140032F0FF20000302408020C00510430FF0AAFC08
S214003300E0400123184004E00FF0B2FCE040012347
S214003310184010BD00F00F4008B5031C0A1C00043E
S214003320000C034908431901090E0FF097FC08BD6D
S21400333000F00F4008B5011CFF2000030840802362
S214003340DB0518430901090E0FF06EFC08BDC046E8
S21400335008B5002812D0042912D10A4B0380012395
S214003360837000200849094A0FF062F900206421A2
S214003370642264230FF058F8002002E0044800E0BE
S214003380034808BD32F1FFFF5432002030590100D7
S21400339080F1000030B5C3B01D1C00234193479B4D
S2140033A0002B07D00020111C1A1C2B1C0FF08CF9C8
S2140033B0041C06E00020111C01AA2B1C0FF084F947
S2140033C0041C002041A90FF095F90228F9D0002C22
S2140033D005D1489B002B04D01D80002002E0024847
S2140033E000E0002043B030BD81F1000010B500249D
S2140033F01C6084898C420CD9C48994420BD96143E1
S2140034008A1811018A18520081688A181A600020EA
S21400341002E0024800E0014810BDC04621E200007C
S214003420F0B5474680B482B0061C08A880C8058858
S2140034300BA8048800200190182944D12449318023
S2140034407260B760B381F5810A9A3261B482002B4C
S21400345024D0002501235B4298460027AB00726803
S2140034604146D1527268944663445980F389002BD2
S2140034700FD03C1C301C291C221C01ABFFF7B6FFEA
S214003480002821D1019B1F840134A4B2F389A342F2
S214003490F0D80135ADB2B389AB42DFD8B08A002888
S2140034A012D00023012040420021DA003469A050E7
S2140034B03469A4466244516001339BB2B28A9A4290
S2140034C0F3D8002000E0034802B004BC9046F0BDEC
S2140034D001E2FFFF20E20000F0B583B0061C0C1CE2
S2140034E00023019383898B4226D9062A26D88B008F
S2140034F04168CA52426894466344012252425A8046
S214003500C08900281BD0002200250027301C211C63
S21400351001ABFFF76BFF002811D1019B1F84181C1D
S214003520391C202210F0D1FE0135EDB2AAB2F38983
S2140035309342EBD8002002E0024800E0014803B0C6
S214003540F0BDC04621E2000070B500241C608489EE
S2140035508C4227D9C489002C26D00D1C4C4321014F
S2140035600C196400816809191960098C914213D0FE
S21400357000240BE0694309190E017118490086689A
S214003580B44661441960098C914206D00134A4B255
S214003590C189A142EED800E00024C3890020A342DE
S2140035A005D103E0024802E0014800E0004870BD93
S2140035B021E20000F0B5474680B482B0061C0C1C21
S2140035C01D1C08AB80CB1B8898460023019301ABDB
S2140035D0FFF7BAFF031E12D17368A400E05AA84290
S2140035E00CD1019C00F012F8021C201C391C10F0B3
S2140035F063FE019B42461A84002000E0024802B0A7
S21400360004BC9046F0BDC04621E20000031E032B1A
S21400361011D0032805D8012811D02020012B0FD85F
S2140036200BE005280BD008D30C20063B5A4253412A
S2140036305B42184004E0082002E0102000E018205A
S2140036407047C046002804D00268034B5A6000202A
S21400365000E002207047C0466C22002000B585B00E
S214003660854B1B780120002B00D003E18348031C08
S214003670083B5A68824B0093824901918C4663440A
S2140036800293814B0393C421804B03F0D1F90028A9
S21400369000D0EFE07E48021CE03A182109F0D8FE80
S2140036A0031E00D0CDE07B48021CF83A2C210AF01D
S2140036B02BFB031E00D0C4E07748021C253AFF3AD5
S2140036C014210AF0EBFF031E00D0BAE07348021C78
S2140036D0393AFF3A14210AF075FF031E00D0B0E015
S2140036E06F48021C713AFF3A202109F04FFD031E75
S2140036F000D0A6E06B48021C4D3AFF3A18210BF0AA
S21400370023FF031E00D09CE067480C215B4A0BF0A9
S214003710C3FA031E00D094E064482021574A09F0FB
S21400372027FD031E00D08CE061482421534A0BF08D
S2140037300FFC002800D09CE05E48021C703A0C216A
S21400374003F046F8031E7CD15B48021C2D3AFF3A74
S214003750102103F08FF8031E73D15848021CA03ABC
S21400376000930193202103F05BF8031E69D15448AF
S214003770021C103A031C3C3B009300230193031CDD
S214003780303B0293031C3D3BFF3B03935C2100232D
S21400379003F0D6F8031E54D14A480C21424A03F0DF
S2140037A025F8002865D1484B009302230193474B28
S2140037B002930123039346481821464A0133FFF734
S2140037C02FFE002855D1424801210622FFF784FE2D
S2140037D000284ED1404B0093002201923C48012124
S2140037E00623FFF7E7FE002843D13C489021490016
S2140037F0224A00F0A1FA00283BD1394B1F49AA22E1
S2140038009200995022490432995022490832995020
S2140038102149083299502149043A99502049083ADA
S214003820995020491032995021490C3299501E491E
S214003830083A99502349043299501F490832995042
S21400384002E01020002B15D10B4B0121197000222D
S21400385000205A701A819970D97000215971987198
S2140038601871FF201F495854E4231D49CA500020F0
S21400387000E0102005B000BD0C26002074220020B9
S21400388024260020060400000C080000B0570100A3
S214003890542300206C23002098230020AC23002013
S2140038A0E4230020C0230020D82300202824002062
S2140038B004240020542400208024002060240020BB
S2140038C09024002048240020D0200020C82000207B
S2140038D03823002058210020C0000020EC240020BF
S2140038E06C2200202B0C00003C4B1B78002B70D069
S2140038F0B0231B01984256D024D8A023DB00984260
S2140039004BD00CD8C0239B00984242D00133FF33E3
S214003910984240D080239B0098425CD137E08023B9
S2140039201B01984243D004D8C023DB00984236D00F
S21400393051E090231B0198423BD00133FF3398425D
S2140039402FD048E0C0235B0198423CD00CD8A0237F
S2140039505B0198422FD00133FF3398422DD0C0230D
S2140039601B01984237D120E0E8235B01984228D01B
S21400397004D8013BFF3B984221D02CE08023DB019A
S214003980984222D0E2231B02984220D023E014481B
S21400399022E0144820E014481EE014481CE01448B6
S2140039A01AE0144818E0144816E0144814E01448C6
S2140039B012E0144810E014480EE014480CE01448D6
S2140039C00AE0144808E0144806E0144804E01448E6
S2140039D002E0002000E000207047C0460C260020D1
S2140039E074220020542300206C23002098230020FB
S2140039F0AC230020C0230020D8230020042400206D
S214003A00E4230020282400205424002060240020E2
S214003A10802400209024002048240020EC2400204D
S214003A2038230020F0B55F4656464D464446F0B46F
S214003A3083B00CAC2688012800D9B0E0072B00D94B
S214003A40AFE0002A08D1002B00D0ACE00E9A13801D
S214003A500F9A13700020A9E01F1E93468946009017
S214003A600AD1101C0921FCF703FD84B2584609212F
S214003A70FCF784FDC9B20AE0551E281C0921FCF794
S214003A80F7FC84B2281C0921FCF778FDC9B2E300D4
S214003A90CB189BB2B94202D80E9A138002E0013BC3
S214003AA00E9A13800E9B1B88FB1A072213400F9A50
S214003AB0137004D00E9B1B8801330E9A13800E9B46
S214003AC01B88B34202D8002B05D156E000230E9A7D
S214003AD013803A486AE007239846002700229A4651
S214003AE0009C601E8441E3B2019301264146009784
S214003AF00D9BDD1953465B1A9C464B46985C634605
S214003B001841C0B22870541C5C4527D24C44A046CD
S214003B1023784C1CA3401843C0B228700F9B1B7818
S214003B20002B05D03D1C01350E9B1B889D4215D2EF
S214003B30019B0025341CAC40044201D00133DBB2AB
S214003B400135082DF6D1301C6446A0404446247842
S214003B50204033406446A340984226D1002902D133
S214003B60013292B208310137BFB2013292B2013946
S214003B70C9B20E9B1B88BB42B9D80F9A1278002098
S214003B80002A13D0013B0D998C46634408218A1AFB
S214003B90F731D1400A1C19780A401A7006E0084826
S214003BA004E0074802E0064800E0064803B03CBCD4
S214003BB090469946A246AB46F0BDC04604E30000D8
S214003BC021E3000002E30000F0B55F4656464D468E
S214003BD04446F0B483B0019094469A460CAB1F88D6
S214003BE00D9C0723021C9A43131E79D121700233C1
S214003BF0021C1A40914675D0C90021706346DA004F
S214003C00D3B29C46002F5FD00122042301991940AD
S214003C108B46FB339846FE3B664694466246511EEC
S214003C2089B25A46002A08D0072F02D8FDB20027CC
S214003C3006E0083FBFB2082502E0013FBFB20825F4
S214003C404A46002A1CD00822501B42468240101CBE
S214003C505246515C0140207841402170002D2AD008
S214003C600020227851B2002903DA520072402270F6
S214003C7001E0520022700130C0B2A842F1D11AE031
S214003C800822501B4246C240101C5246515C01405E
S214003C90207841402170002D0DD00020227813425C
S214003CA003D052087240227001E0520822700130A0
S214003CB0C0B2A842F2D16246013292B29446002FB8
S214003CC0ACD14B46002B02D02378DB0823700020B3
S214003CD0019BDB0709D522781F235340237004E09D
S214003CE0054802E0002F8FD1F1E703B03CBC9046B8
S214003CF09946A246AB46F0BD21E3000070B5061C0F
S214003D0041180C4D34786C40E4B223015C40E3B2B9
S214003D1018092D0A454018024540DB005D40013673
S214003D208E42EFD1EB439BB213701B0A53700020F8
S214003D3070BDC046FFFF000030B590235B0099427F
S214003D4078D13D4B038082620023C3624363836362
S214003D500363C363036443648364C364036502212B
S214003D602122815403328154233A02814371C37065
S214003D708371202401250555C37702340355033487
S214003D80035583772D4C8483037182720482C2723A
S214003D904482027342732A4C84822A4CC482827301
S214003DA0294C0483C273294C44833F248470153401
S214003DB003551434035501340355013403550134B7
S214003DC00355633C7C254455013543550135435521
S214003DD00135435501354355343543550135435573
S214003DE003354455B13403550134035501340355A6
S214003DF001340355063C03552E3C035577342F3DBE
S214003E00445501354455FC3C01354455153543555C
S214003E100135435501354355013543552F35435537
S214003E2001354155DC314354DF33C4540133C254A9
S214003E30002000E0064830BD01400000EC13000002
S214003E40B04F0000C43B00005014000010270000D4
S214003E502040000038B5041C0D1C2123C35C032B36
S214003E6007D0806A5E21002203F0C2FC031E00D049
S214003E7078E0A06A2021002203F0BAFC031E71D16C
S214003E80002D02D0012D49D05FE0E37F002B0CD03F
S214003E902389012B2AD1A06A06F000FDFF230340E8
S214003EA003D0012B53D0031C5CE0E378002B1DD01D
S214003EB02389012B1AD1201C00F048FCFF23034065
S214003EC0842B07D08C2B44D0822B44D0E0848123D3
S214003ED0DB0147E0A06A03F02DF9031E42D1A28B56
S214003EE0A06A002103F03EF9031E3BD1A378002B05
S214003EF00DD0201C00F0FAFEFF231B020340802298
S214003F00D201934229D0E0848123DB012AE00023FA
S214003F102522A354033AA354134B23E0134B6268A1
S214003F201A421CD0A06A03F005F9031E1AD1201C01
S214003F3000F008FCFF231B0203408022D2019342BC
S214003F400FD0E0848123DB010CE0094B0AE0064B2E
S214003F5008E0031C06E0031C04E0031C02E0044B1C
S214003F6000E0031C181C38BD8440000000FFFF0062
S214003F702140000038B5051C141C452900D13FE13E
S214003F8052D8142900D1DEE127D8052900D1D3E084
S214003F9011D8022900D1BEE006D8002900D1B4E02D
S214003FA0012900D1B4E0E3E1032900D1BAE00429F5
S214003FB000D1BEE0DCE1112900D149E106D806298E
S214003FC000D1BCE0102900D1F2E0D1E1122900D1E5
S214003FD07AE1132900D19AE1CAE1352900D161E1DD
S214003FE011D8322900D14BE106D8302900D137E16B
S214003FF0312900D138E1BBE1332900D147E134292A
S21400400000D14BE1B4E1412900D1E0E006D83629E1
S21400401000D14EE1402900D1D2E0A9E1432900D1E8
S214004020E0E000D8DAE0E4E0702900D192E127D899
S214004030522900D155E111D8482900D1FAE006D816
S214004040462900D1E3E0472900D1E7E090E149297D
S21400405000D1F6E0512900D13DE189E1552900D192
S2140040604FE106D8532900D141E1542900D142E15D
S2140040707EE1572900D123E1602900D14EE177E1A6
S21400408086295FD00ED8822963D006D8712900D140
S21400409068E1802900D188E06AE1832919D0842963
S2140040A01AD065E18A290ED004D8882920D089291B
S2140040B006D05DE18C2918D008D38D291CD057E195
S2140040C0AA71002097E1EA70002094E16A7100204E
S2140040D091E1AA7700208EE1FF231C40631E022B8D
S2140040E000D947E10481002085E1AA70002082E122
S2140040F02023EA5400207EE1531E9BB2012B00D9F8
S2140041003AE12423EA54002075E12A82002072E175
S2140041106A8200206FE1B44B9A4200D82EE1AA8250
S214004120002068E1B14B9A4200D829E1EA820020DB
S21400413061E12A8300205EE16A8300205BE1AA83B6
S214004140002058E11F239A4300D01BE10471002091
S21400415051E1531E9BB2022B00D915E12123EA54EC
S214004160806A5A2103F044FB031E00D043E1A86B8B
S2140041700621221C0AF038FA031E00D03BE1686BC9
S2140041800121221C09F0EAFD031E00D033E1E86A93
S2140041900121221C09F06EF9031E00D02BE1E86B0A
S2140041A00121221C0AF096FA25E1EA77002022E196
S2140041B0FF231340012B00D9E8E0AA7200201AE181
S2140041C00C2A00D9E4E07C23EA54002013E10E2AEE
S2140041D000D9DFE07D23EA5400200CE17E23EA5478
S2140041E0002008E1032A00D9D6E07F23EA54002005
S2140041F001E1032A00D9D1E08023EA540020FAE046
S2140042000E2A00D9CCE06823EA540020F3E0032A03
S21400421000D9C7E06923EA540020ECE0002A04D164
S21400422000226A23C2540020E5E001226A23C25419
S2140042300020E0E0FF2A00D9B6E06B23EA54002015
S214004240D9E0302A00D9B1E07023EA540020D2E049
S214004250FF231340012B00D9AAE0EA720020CAE02F
S214004260B523EA540020C6E0002A04D10022B62373
S214004270C2540020BFE00122B623C2540020BAE098
S2140042800C2A00D996E0B823EA540020B3E00E2AA0
S21400429000D991E0B923EA540020ACE0BA23EA54EE
S2140042A00020A8E0032A00D988E0BB23EA540020B7
S2140042B0A1E0032A00D983E0BC23EA5400209AE058
S2140042C02323EA54002096E0FF231340012B79D8DD
S2140042D02A7300208FE00E2A76D8A023EA54002006
S2140042E089E0032A72D8A123EA54002083E0A2239F
S2140042F0EA5400207FE0FF2A6AD8A323EA5400206D
S21400430079E0302A66D8A823EA54002073E0FF2319
S2140043101340012B60D8AA7300206CE0131C0C3BE2
S2140043209BB2012B5AD80D2A06D1D322835C0221D8
S2140043300B43835400205EE0D322835C02218B4330
S2140043408354002057E0FF231340012B48D8EA731C
S214004350002050E0931E9BB2012B43D8DF23EA5483
S214004360002048E0012A45D8E023EA54002042E035
S2140043701F4840E01E483EE01D483CE01C483AE02E
S2140043801B4838E01A4836E0194834E0184832E04E
S214004390174830E016482EE015482CE014482AE06E
S2140043A0134828E0124826E0114824E0104822E08E
S2140043B00F4820E00E481EE00D481CE00C481AE0AE
S2140043C00B4818E00A4816E0094814E0084812E0CE
S2140043D0074810E006480EE005480CE004480AE0EE
S2140043E0034808E0024806E0AF4F0000C33B000069
S2140043F021400000004838BD2140000000B5472994
S21400440000D10DE154D8202900D1DDE029D80529B6
S21400441000D178E111D8022900D127E106D8002979
S21400442000D1CDE0012900D10EE183E1032900D1BE
S21400443020E1042900D14DE17CE1112900D10CE1F5
S21400444006D8062900D1B7E0102900D1C1E071E1F5
S214004450132900D142E100D215E1142900D156E11A
S21400446068E1402900D1B8E011D8232900D139E10C
S21400447006D8212900D1EBE0222900D1FEE059E13F
S214004480242900D147E1252900D1EAE052E1432959
S21400449000D1B6E006D8412900D1A3E0422900D1D8
S2140044A0A5E047E1452900D1B0E000D8A4E0B2E09D
S2140044B0712900D139E12AD8532900D1F6E011D864
S2140044C0502900D1BBE006D8482900D1ADE04929E3
S2140044D000D1AFE02EE1512900D1DDE0522900D114
S2140044E0DFE027E1562900D1EFE006D8542900D1B5
S2140044F0E1E0552900D1E3E01CE1602900D1F6E0B7
S214004500702900D10CE1572900D013E1BFE08729BC
S21400451033D00BD8832923D004D880293FD08129D3
S21400452030D007E1852943D01ED930E08A2913D040
S21400453004D888291CD089290AD0FBE08C292AD0E7
S21400454002D38D292FD0F5E0437913800020F2E0C6
S214004550837913800020EEE0C37813800020EAE021
S214004560837F13800020E6E0037A13800020E2E0D9
S2140045702023C35C13800020DDE02523C35C13806A
S2140045800020D8E02223C35C13800020D3E0037908
S21400459013800020CFE0837813800020CBE0C37F19
S2140045A013800020C7E02423C35C13800020C2E0F1
S2140045B0C38C13800020BEE0838B13800020BAE0FB
S2140045C0038A13800020B6E05423C35C13800020C7
S2140045D0B1E0837A13800020ADE07C23C35C1380B7
S2140045E00020A8E07D23C35C13800020A3E07E2388
S2140045F0C35C138000209EE08023C35C13800020F1
S21400460099E07F23C35C1380002094E06823C35C9A
S214004610138000208FE06923C35C138000208AE0AB
S2140046206A23C35C1380002085E06B23C35C138081
S214004630002080E07023C35C138000207BE078239A
S214004640C35C1380002076E0438A1380002072E06B
S214004650B423C35C138000206DE0C37A138000206F
S21400466069E0CF23C35C1380002064E0838A138054
S214004670002060E0C38A138000205CE08823C35CCF
S2140046801380002057E0037B1380002053E0232391
S214004690C35C138000204EE0A023C35C1380002080
S2140046A049E0A123C35C1380002044E0A223C35C3E
S2140046B0138000203FE0A323C35C138000203AE071
S2140046C0A823C35C1380002035E0B023C35C1380AE
S2140046D0002030E0038B138000202CE0837B1380C7
S2140046E0002028E0D223C35C1380002023E0D323DD
S2140046F0C35C9B0703D50D23138000201BE00C230F
S2140047001380002017E0438B1380002013E0C37B48
S214004710138000200FE0DE23C35C138000200AE035
S214004720DF23C35C1380002005E0E023C35C138016
S214004730002000E0004800BD2140000008B500F061
S21400474035F808BD004870472440000000222523A5
S214004750C25401487047C0468440000038B5041C67
S2140047600D1C002325228354033A83548A000C4BE5
S214004770D3589847FF2303400ED10133AB401D1C8E
S2140047802523E554033BE05C213B834280414042C5
S214004790044B9C46604402E0012B00D1024838BD21
S2140047A050540100894000008540000038B5041CC4
S2140047B00D1C00212523C154A9000B4BCB58111CFE
S2140047C09847FF23034006D10133AB401D1C252329
S2140047D0E554064807E08D3B012B04D80123AB4087
S2140047E01D1C2523E55438BD205401008B400000D5
S2140047F010B5041C806A5621002202F0F9FFFF2340
S2140048000340232B01D0002B02D1A06A02F07CFCCF
S21400481010BDC046F0B5474680B482B0061C806A1C
S21400482002F088FC031E74D1B06A00213B4A02F0F5
S21400483099FC031E6DD1012333812433F35CDB071F
S21400484030D500222523F254B06A012104F010FE70
S214004850031E5ED1301CFFF7CBFF031E59D1002587
S214004860341C5634FF27328AB06A352102F0C0FF66
S214004870002849D1F06A211C09F0BCF8031C384016
S21400488001280AD0122844D0F06A08F009FE031C5A
S214004890384012283DD00025E5E76B1CDDB2022D1E
S2140048A0E1D935E000222523F254B06A022104F053
S2140048B0DFFD031E2DD1301CFFF79AFF031E28D103
S2140048C00024C1239846B044371CCE37FF25728A91
S2140048D0B06A352102F08CFF002817D143460093BA
S2140048E00197706B00210022002309F0CBFB031C0C
S2140048F02840012803D012280BD00024E7E7013413
S214004900E4B2022CE3D903E0031C02E0031C00E03F
S2140049100023181C02B004BC9046F0BDEC13000047
S214004920F0B557464646C0B485B0041C0F1C01922D
S21400493000222523C254806A5F2102AB9A1D02F032
S21400494063F90090002800D0C1E002AB06331B8854
S214004950002B00D09DE0A06A012104F089FD031E13
S21400496000D0B4E0201CFFF743FF031E00D190E008
S214004970ADE0002E00D1A2E02523E35C52461A42A9
S21400498000D0A0E0228AA06A352102F031FF00287C
S21400499000D09CE002AB06331B88012B06D1A06A30
S2140049A0514604F065FD002803D090E002AB524665
S2140049B0DA80201C00F03EFA0090FF23184087287B
S2140049C007D12522A15C01230B43A3540135EDB288
S2140049D075E0122873D158E02523E35C42461A425C
S2140049E060D152461A4208D0628A3B4B9A4204D99A
S2140049F03A4B9C46624492B200E0628AA06A352135
S214004A0002F0F6FE002862D1A06A414604F030FDAE
S214004A1000285CD1201C00F0CFFD0090FF2318403A
S214004A20872807D12522A15C02230B43A354013516
S214004A30EDB23DE012283BD129E0002D10D0002B2E
S214004A4097D0012D05D10123019A13708633009368
S214004A500EE0012D04D9019B1D708823009307E00A
S214004A60FF23009A1340012B26D00020002A2ED0C8
S214004A70009A101CFF231B021A4228D1FF20161C86
S214004A8006408020C001304321E000981FE00098D7
S214004A901DE0002501239A461E1C3E400133984621
S214004AA01F4066E72B1C00E02B1C002BD8D0C8E765
S214004AB0002D00D05DE7D3E784230093D8E70023DA
S214004AC0002FBAD088E7002FEED15346B5E705B0E1
S214004AD00CBC90469A46F0BD4C040000B4FBFFFFA9
S214004AE010B5041C806A5621012202F081FEFF23C5
S214004AF00340232B01D0002B14D1A06A02F004FB44
S214004B00021CFF2303400A2B0BD00020002A09D0EA
S214004B10101CFF2109020A4204D18020C00118435C
S214004B2000E0014810BDC04682400000F0B55F4678
S214004B3056464D464446F0B483B0051C8946171CBD
S214004B409B46002201AB1A802523C254033BC25465
S214004B50002398460024843308223A4092462122B5
S214004B60AA5C022A05D14246002A02D0052C00D1B2
S214004B7091E0261C3A1CE240D20700D486E0A86AE0
S214004B805F216B469A1D02F03FF8002800D09BE09C
S214004B906B4606331B88012B14D1A31E012B06D8A7
S214004BA0281C211C01F0C0F900280BD08CE0231C27
S214004BB008335B005A5BA86A352102F019FE00280C
S214004BC000D081E0B300444AD15CA86A04F050FCEF
S214004BD0002879D1281CFFF783FF002874D1A86A23
S214004BE0622101AA02F010F8002808D101AB1B8848
S214004BF0012B04D1A86A05F07BF9002864D16B4626
S214004C0006331B88002B13D1A31E012B06D8281CA5
S214004C10211C01F089F900280AD055E0331C08331E
S214004C205B005A5BA86A352102F0E2FD00284BD1F2
S214004C30B3002A4A9B58281C9847031CFF221040A2
S214004C40872816D1FE3AB240161C25216A5C164308
S214004C50F6B26E5442460132D2B2904672070AD578
S214004C605246002A07D05A46414611700134E4B233
S214004C7001E0122825D04A46E240D20706D5424631
S214004C80002A03D05A464146117004E00134E4B2CB
S214004C90052C00D863E74246012A04D101235A4670
S214004CA013700F4810E04246012A04D95B4642467C
S214004CB01A700C4808E0FF221A40181C012A03D17B
S214004CC001E0181C00E0084803B03CBC904699463A
S214004CD0A246AB46F0BDC0466854010038540100F9
S214004CE087400000884000008440000030B583B054
S214004CF0041C00226B46DA7103892132012B2FD166
S214004D002033C35C9A1E012A0BD8017982786B4641
S214004D100733FFF70BFF021CFF21014012290CD1BD
S214004D206EE0012B67D181786B46DA1DFFF7F8FD40
S214004D30021CFF210140122962D0E37F002B08D01D
S214004D40A378002B05D0FF231340842B01D14AE023
S214004D502122FF231340872B02D1853B238102E0CB
S214004D602389022B25D1A3782522A25C13403CD0B0
S214004D705A1E1A423BD100225B080132D2B2002BE7
S214004D80FAD17F20002A3BD0013AD5B2201C291C3C
S214004D90FFF7E4FC021CFF231840892805D1201CDD
S214004DA0291C0022FFF702FD021CFF231340122BD2
S214004DB01FD02389032B07D11E33E35C012B03D1BD
S214004DC0201CFFF727FD021C0020002A18D0101C0C
S214004DD0FF231B021A4213D1FF231340181C802303
S214004DE0DB0118430CE007480AE0074808E00648DD
S214004DF006E0101C04E0C37F2122002BD9D0A7E7D1
S214004E0003B030BD8640000021400000FF23034071
S214004E100120002B0CD05A1F92B2012A07D9023B60
S214004E209BB2002001229A424041C0B200E001201D
S214004E307047C04638B5041C002354228354827F32
S214004E4001218A43827764228354023A8354011CE8
S214004E505631C06A08F0CEFD051CFFF7D7FF2B1CA5
S214004E60002822D0FF231D40032D03D1A27F01235B
S214004E701343A377A06A0721FA22520002F0B8FC77
S214004E802423E35C022B03D02123E35C022B06D011
S214004E90E06A08F005FBFF230340122B04D0012232
S214004EA05423E254024B00E0031C181C38BDC046D5
S214004EB087400000F0B55F4656464D464446F0B47F
S214004EC08DB00AAB00220A929A809A71837FDB0724
S214004ED007D5837A002B04D100225433C254C84825
S214004EE043E2071C2123C35C022B0FD12233C35C91
S214004EF0012B0BD1806A012104F0BAFA031E00D000
S214004F0033E2BB7FDB0700D502E20CE23A8AB86ADE
S214004F10352102F06DFC031E00D026E2B86A01219E
S214004F2004F0A6FA031E00D01FE2F86A391C5631B8
S214004F3008F060FD031CFF221040032807D1DE3A6C
S214004F40BA5C012A00D1D3E101220692E3E10022F5
S214004F5055217A5401397A54069200282ED15623C8
S214004F60FB5C00220692002B00D0ECE1B86A202100
S214004F70013202F03DFC031E00D0F6E1391C583128
S214004F80386D3A1C623201F081FCFF2303400CD1DD
S214004F9001335522BB54013ABB54323ABB54BA7F54
S214004FA09A43BA778020C001DFE1032B00D0DCE112
S214004FB0BB7F01221343BB779248D6E1BA7A002A18
S214004FC005D1B97F01220A43BA77181CCDE1212208
S214004FD0BA5C012A21D1012817D102263D1C56357C
S214004FE0FF24B86A0021884A02F0BCF8002800D0E6
S214004FF0BBE1F86A291C08F0FDFC031C20400128D0
S21400500003D1013EF6B2002EEBD1BA7F01218A43CE
S214005010BA77181E00D196E1A7E1032800D192E1E5
S214005020BA7F01218A43BA77181C9EE1BA7F012312
S2140050301343BB77734898E1059A9A4200D942E138
S214005040BB7F01229343BB77704B9A46059A1301A8
S2140050509B1A98463B1C434408933E1C5746C24640
S21400506000220F2308A98C4663441A7000230AAC5A
S2140050700F2565442122934604973A7803920094BC
S2140050800195F06A111C221C08F046FA031C5A46C9
S214005090B25C012A00D05CE1FE320240012A00D058
S2140050A05DE10223B846371C1E1CB86A0021564A2A
S2140050B002F058F8002800D057E12B7800940195AC
S2140050C0F86A0399221C08F027FA031CFF221040F6
S2140050D0012806D1013EF6B2002EE6D13E1C474618
S2140050E034E03E1C4746FF221A40032A2ED15B4678
S2140050F0F35C012B00D1FDE0B27F01231343B377AD
S214005100B37A059A934200D8F6E02B7807221A4025
S214005110062A0DDC0133DBB22B701A0907210B407F
S214005120013B063999400B1CA15C0B43A35410E0CD
S2140051301B0901331B01DBB22B701B09013BDBB2E1
S214005140E25C802149420A43E25402E0002B00D090
S214005150D4E02B78402B8FD1069B002B19D1B37F40
S21400516001221A4215D1089B50339B793E32934355
S21400517004D1049B1B78932B0BD105E0402B08D160
S214005180049B1B78952B04D10AAB1B78882B00D187
S214005190B6E0049B1B780393059D5246B41863340F
S2140051A0F06A191C0AAA231C08F076FB021C2123AD
S2140051B0F35C012B2DD1FE331840012829D1FD3B8D
S2140051C09846FD339946231C4446A8461D1CB06AE3
S2140051D000210D4A01F0C6FF002800D0C5E0F06AA5
S2140051E003990AAA2B1C08F057FB021C4B461840D2
S2140051F001280DD1013CE4B2002CE8D116E0C046EF
S2140052008540000081400000B80B0000805401007B
S2140052104546FF23134209D12B015B1BF318583375
S214005220DB7A5B0704D4371C2E1C08E0101C9CE0BD
S2140052300137099B9F4200D012E7371C2E1C002A1C
S21400524041D133019B1BF9185831FA186232F86ABB
S21400525008F044FD002800D087E0059B0133DBB250
S2140052601C1C0593BB7F01221A4235D0BB7AA34291
S21400527032D9F86A08F014F9002876D1621E1301B4
S2140052809B1AFB18583301221A732101091B79183F
S2140052905631F86A08F0A8FB021CFF2318400CD110
S2140052A0059A13019B1AFB1850339B79002B0AD1E1
S2140052B0BB7F01221343BB7757E0032822D1BA7F76
S2140052C001231343BB77079B0133DBB21A1C0793FA
S2140052D0BB7A934200D3AFE6059B9B4654235A46BF
S2140052E0FA54323BFA545B460020002B3DD10BE0CB
S2140052F021483AE0204838E0002036E0181C34E028
S2140053001E4832E0101C30E01D482EE01A482CE003
S214005310002306930333002255217A5401397A5428
S214005320FF2018404AE600235522BB54013ABB54DE
S21400533015E6BB7A002293460792124A0332099278
S2140053405A46059278E62023FB5C002B00D16DE6DA
S214005350EFE7FF221040032800D0F7E6CCE6FF2256
S2140053601040032800D0F1E6D0E70DB03CBC9046D4
S2140053709946A246AB46F0BD8140000006400000BC
S214005380854000008054010030B58DB05423C35CC6
S2140053908B4200D8F4E0002900D0F3E0041C012B77
S2140053A000D8F7E06423C35C012B00D0F2E0011CB8
S2140053B058316133C25C3F3B6B440093031C63333C
S2140053C0019322236B440293C06A09AB08F018FBD2
S2140053D0031E00D0E6E000226433E254DAE0212324
S2140053E0E35C032B07D0A06A5E21012202F000FADC
S2140053F0031E00D0D6E07C23E15C0133E25C02337E
S214005400E35C8020205C0090842020580190E06BB4
S21400541009F004FC031E00D0C4E01E336B44009366
S2140054201D236B44019307AB0293E06B2121694473
S21400543008AA1F236B4409F01DFC031E00D0B1E030
S2140054402133E35C012B06D107AB1B78082B02D96E
S214005450082207AB1A70A06B21236B44197808AB9F
S2140054601A781F236B441B787E25645D00941E24E7
S2140054706C44247801941D246C442478029407AC70
S2140054802478039409F066F88CE0022B1ED11F33B3
S214005490E35C012B78D0E06C211C58316823E25C79
S2140054A00133E35C6A25655D00956B25655D0195B6
S2140054B0E56E02957025655D0395656F04957834F5
S2140054C0059409F0E7FD002860D06BE0032B4ED171
S2140054D01E33E35C012B5BD1A06A5E21012202F041
S2140054E087F9031E5ED17C33E15C0133E25C023354
S2140054F0E35C8020205C0090842020580190E06BC4
S21400550009F08CFB031E4DD11E336B4400931D2304
S2140055106B44019307AB0293E06B2121694408AA10
S2140055201F236B4409F0A6FB031E3BD107AB1B7879
S214005530082B02D9082207AB1A7021236B4419786E
S21400554008AB1A781F236B441B787E20205C0090E3
S2140055501E206844007801901D2068440078029060
S21400556007A800780390A06B08F0F4FF1AE000206C
S214005570002B17D12133E35C012B13D10A4811E02D
S2140055800A480FE009480DE007480BE0084809E024
S214005590084807E06323E35C5B069B0F012B00D003
S2140055A073E71CE70DB030BD8540000021400000C9
S2140055B08D4000008E40000030B583B0041C0023F0
S2140055C0B5228354013A8354837FB23A9343837758
S2140055D0B623C35C021CC13200920D320192406BAE
S2140055E00021002208F04EFD051CFFF70FFC0028E6
S2140055F00CD0FF232B4203D0A27F02231343A377B2
S214005600B422A35C0133A354024800E0281C03B074
S21400561030BDC04687400000F0B55F4656464D4652
S2140056204446F0B485B0837F9B0707D5C37A002B2A
S21400563004D10022B433C254B54861E1041C2123CE
S214005640C35C022B18D12233C35C012B14D1806AB1
S214005650022103F00DFF031E00D051E1636B9A8B0D
S214005660A06A072102F0C4F8031E00D048E1A27F1A
S214005670920700D53CE15CE0628AA06A352102F020
S214005680B7F8031E00D03BE1A06A022103F0F0FE4B
S214005690031E00D034E1B533E25C0133E35C211C29
S2140056A0C13100910D310191606B002108F0EAFCD8
S2140056B0031CFF2210403CD0DE3AA25C012A29D10E
S2140056C0012820D10226B525B627A06A0021914AD6
S2140056D001F048FD002800D012E1625DE35D211C68
S2140056E0C13100910D310191606B002108F0CAFCB8
S2140056F0031CFF221040012805D1013EF6B2002E01
S214005700E3D100E00323A27F02218A43A277181E7A
S2140057100FD0F5E0012800D1DAE0E27A002A08D1BD
S2140057200021B432A154A17F02220A43A277181C9A
S214005730E6E000220292B4266946CA730222904628
S214005740FD3291466A46D27BA255A27F41468A43E5
S214005750A277002292460027013202998A40934699
S2140057604A461A40012A48D0002B42D12433E35C33
S214005770022B16D15346002B13D0A35D013BD90054
S214005780C9184900C9186118BD31606B08F0D8FE09
S214005790606B08F007FB031C4A461040122800D135
S2140057A098E0A35DD900C9184900CB18E018BD30B1
S2140057B0E118C23104220EF07FFDA35D0133DBB297
S2140057C0A35552460132D2B29246E27A9A4203D8A2
S2140057D02222A354002093E02423E35C012B0CD167
S2140057E0606B08F0DFFA031C4A461040122804D10A
S2140057F072E0A27F02231343A3777D1CEDB25D45C2
S21400580014DAA25D0237F9B2D3009B185B009B182E
S214005810E218C132E318CE33606B08F089FB031C34
S2140058204A461040122859D02F1C99E7A37F4246BB
S2140058301A4239D0A35D002B06D0E27A9A420FD8DE
S2140058402222A35400205BE0029B042B04D10022FA
S2140058501E33E2542E4853E0029B0133DBB2029320
S2140058605346002B07D0606B08F09CFA031C4A4690
S2140058701040122834D0A15DB523E25C0133E35C0E
S214005880C8004018400041186018C13000906118E8
S214005890CE310191606B029908F0E4FB031C4A4686
S2140058A01040122808D11DE0B423E35C2222A35442
S2140058B00020002B24D117E0029A042A00D841E7E2
S2140058C0B423E35C2222A3540020002B18D10DE061
S2140058D0181C15E0181C13E0181C11E0181C0FE02B
S2140058E0181C0DE0181C0BE0094809E0084807E002
S2140058F02123E35C012B00D104E70320032309E7FF
S21400590005B03CBC90469946A246AB46F0BDC046A4
S21400591085400000B80B000030B58BB0B423C35CE4
S2140059208B4200D887E00D1C041C013B994210DA1C
S214005930B523C25C0133C35C06A9009127216944E4
S2140059400191406B002108F09DFBFF230340122BC2
S21400595078D02123E35C032B06D0A06A5E210122C7
S21400596001F046FF031E6DD1EB005B195B005B196F
S214005970E3181A1CC8320021D171C2335B7ADB07E8
S2140059805BD5131C0122DA71E900491949004D194B
S2140059906119C1316519C835AA79B823E35CB92005
S2140059A0205C0090BB20205C0190BC20205C029014
S2140059B0201CD0300390606B08F0AAFB031E41D178
S2140059C005AB009313236B44019312236B4402939D
S2140059D0606B1721694416226A4415236B4408F04D
S2140059E01DFA031E2ED12133E35C012B08D111339F
S2140059F06B441B78082B03D9082212236B441A70B9
S214005A00A06B17236B44197816236B441A7815235A
S214005A106B441B78BA25645D009405AC2478019429
S214005A2013246C442478029412246C44247803943F
S214005A3008F090FD06E0044804E02123E35C002023
S214005A40032BA1D10BB030BD21400000F0B585B0CE
S214005A50071C0D1C019200938823C35C002B48D0C2
S214005A60041C8C34013BDBB2DA00D2185200D31887
S214005A709F33C618281C211C10220EF00EFC00288E
S214005A8030D01334B442F5D133E002AB06331B8872
S214005A90002B0FD0019B102B0CD98823FB5CD80061
S214005AA0C0184000C01838189C30291C103102223B
S214005AB00EF002FC88243B5DD800C0184000C018D9
S214005AC038188C30291C10220EF0F6FB3B5DDA00ED
S214005AD0D2185200D318FB1898336A4612789A7177
S214005AE0012100E000218822BB5CCB18BB540020BB
S214005AF007E0386B002102AB9A1D07F097FC031EE7
S214005B00C3D005B0F0BDC046F0B5474680B48AB0F5
S214005B10071C0C1C039209A8384902220EF0CCFB85
S214005B201A2202AB9C466244002313800793069316
S214005B300092386B09A9221C06AB07F039FBFF233D
S214005B400340984649D1002C36D0386B01211A22E2
S214005B5002AB9C46624407F069FC00283FD11A2439
S214005B6002AB9C4664440F256544002620E02E7058
S214005B7005AB1E80C9B207AA00920195386B069A3B
S214005B8007F0D2FB00282CD105AB1B88002B07D1D1
S214005B902A78381C0799039BFFF758FF002822D164
S214005BA02388013B23808823FA5C3B7B9A420FD2F2
S214005BB021880029DBD10BE01A2302AA944663440D
S214005BC01A78381C0699039BFFF740FF00280CD173
S214005BD08823FB5C002B0AD00BE0804609E0804659
S214005BE007E0804605E0804603E0804601E0044B7F
S214005BF0984640460AB004BC9046F0BDF4520100F8
